Component: ARM Compiler 5.06 update 6 (build 750) Tool: armlink [4d35ed]

==============================================================================

Section Cross References

    main.o(i.main) refers to at32f403a_407_misc.o(i.nvic_priority_group_config) for nvic_priority_group_config
    main.o(i.main) refers to at32f403a_407_clock.o(i.system_clock_config) for system_clock_config
    main.o(i.main) refers to delay.o(i.delay_init) for delay_init
    main.o(i.main) refers to app.o(i.Peripherals_Init) for Peripherals_Init
    at32f403a_407_clock.o(i.system_clock_config) refers to at32f403a_407_crm.o(i.crm_reset) for crm_reset
    at32f403a_407_clock.o(i.system_clock_config) refers to at32f403a_407_crm.o(i.crm_clock_source_enable) for crm_clock_source_enable
    at32f403a_407_clock.o(i.system_clock_config) refers to at32f403a_407_crm.o(i.crm_hext_stable_wait) for crm_hext_stable_wait
    at32f403a_407_clock.o(i.system_clock_config) refers to at32f403a_407_crm.o(i.crm_pll_config) for crm_pll_config
    at32f403a_407_clock.o(i.system_clock_config) refers to at32f403a_407_crm.o(i.crm_hext_clock_div_set) for crm_hext_clock_div_set
    at32f403a_407_clock.o(i.system_clock_config) refers to at32f403a_407_crm.o(i.crm_flag_get) for crm_flag_get
    at32f403a_407_clock.o(i.system_clock_config) refers to at32f403a_407_crm.o(i.crm_ahb_div_set) for crm_ahb_div_set
    at32f403a_407_clock.o(i.system_clock_config) refers to at32f403a_407_crm.o(i.crm_apb2_div_set) for crm_apb2_div_set
    at32f403a_407_clock.o(i.system_clock_config) refers to at32f403a_407_crm.o(i.crm_apb1_div_set) for crm_apb1_div_set
    at32f403a_407_clock.o(i.system_clock_config) refers to at32f403a_407_crm.o(i.crm_auto_step_mode_enable) for crm_auto_step_mode_enable
    at32f403a_407_clock.o(i.system_clock_config) refers to at32f403a_407_crm.o(i.crm_sysclk_switch) for crm_sysclk_switch
    at32f403a_407_clock.o(i.system_clock_config) refers to at32f403a_407_crm.o(i.crm_sysclk_switch_status_get) for crm_sysclk_switch_status_get
    at32f403a_407_clock.o(i.system_clock_config) refers to system_at32f403a_407.o(i.system_core_clock_update) for system_core_clock_update
    system_at32f403a_407.o(i.system_core_clock_update) refers to at32f403a_407_crm.o(i.crm_sysclk_switch_status_get) for crm_sysclk_switch_status_get
==============================================================================

Removing Unused input sections from the image.

    Removing main.o(.rev16_text), (4 bytes).
    Removing main.o(.revsh_text), (4 bytes).
    Removing main.o(.rrx_text), (6 bytes).
    Removing at32f403a_407_clock.o(.rev16_text), (4 bytes).
    Removing at32f403a_407_clock.o(.revsh_text), (4 bytes).
    Removing at32f403a_407_clock.o(.rrx_text), (6 bytes).
    Removing at32f403a_407_int.o(.rev16_text), (4 bytes).
    Removing at32f403a_407_int.o(.revsh_text), (4 bytes).
    Removing at32f403a_407_int.o(.rrx_text), (6 bytes).
    Removing system_at32f403a_407.o(.rev16_text), (4 bytes).
    Removing system_at32f403a_407.o(.revsh_text), (4 bytes).
    Removing system_at32f403a_407.o(.rrx_text), (6 bytes).
    Removing at32f403a_407_gpio.o(.rev16_text), (4 bytes).
    Removing at32f403a_407_gpio.o(.revsh_text), (4 bytes).
    Removing at32f403a_407_gpio.o(.rrx_text), (6 bytes).
    Removing at32f403a_407_gpio.o(i.gpio_bits_write), (10 bytes).
    Removing at32f403a_407_gpio.o(i.gpio_event_output_config), (28 bytes).
    Removing at32f403a_407_gpio.o(i.gpio_event_output_enable), (20 bytes).
==============================================================================

Image Symbol Table

    Local Symbols

    Symbol Name                              Value     Ov Type        Size  Object(Section)

    ../clib/angel/boardlib.s                 0x00000000   Number         0  boardshut.o ABSOLUTE
    ../clib/angel/boardlib.s                 0x00000000   Number         0  boardinit1.o ABSOLUTE
    ../clib/angel/boardlib.s                 0x00000000   Number         0  boardinit2.o ABSOLUTE
    ../clib/angel/boardlib.s                 0x00000000   Number         0  boardinit3.o ABSOLUTE
    ../clib/angel/dczerorl2.s                0x00000000   Number         0  __dczerorl2.o ABSOLUTE
    ../clib/angel/handlers.s                 0x00000000   Number         0  __scatter_zi.o ABSOLUTE
    ../clib/angel/kernel.s                   0x00000000   Number         0  __rtentry.o ABSOLUTE
    ../clib/angel/kernel.s                   0x00000000   Number         0  __rtentry4.o ABSOLUTE
    ../clib/angel/kernel.s                   0x00000000   Number         0  __rtentry2.o ABSOLUTE
    ../clib/angel/kernel.s                   0x00000000   Number         0  rtexit2.o ABSOLUTE
    ../clib/angel/kernel.s                   0x00000000   Number         0  rtexit.o ABSOLUTE
    ../clib/angel/rt.s                       0x00000000   Number         0  rt_errno_addr_intlibspace.o ABSOLUTE
    ../clib/angel/rt.s                       0x00000000   Number         0  rt_errno_addr.o ABSOLUTE
    ../clib/angel/rt.s                       0x00000000   Number         0  rt_raise.o ABSOLUTE
    ../clib/angel/scatter.s                  0x00000000   Number         0  __scatter.o ABSOLUTE
    ../clib/angel/startup.s                  0x00000000   Number         0  __main.o ABSOLUTE
    ../clib/angel/sys.s                      0x00000000   Number         0  sys_stackheap_outer.o ABSOLUTE
    ../clib/angel/sys.s                      0x00000000   Number         0  indicate_semi.o ABSOLUTE
    ../clib/angel/sys.s                      0x00000000   Number         0  use_no_semi_2.o ABSOLUTE
    ../clib/angel/sys.s                      0x00000000   Number         0  libspace.o ABSOLUTE
    ../clib/angel/sys.s                      0x00000000   Number         0  use_no_semi.o ABSOLUTE
    ../clib/angel/sysapp.c                   0x00000000   Number         0  sys_wrch.o ABSOLUTE
    ../clib/angel/sysapp.c                   0x00000000   Number         0  sys_command.o ABSOLUTE
    ../clib/armsys.c                         0x00000000   Number         0  argv_veneer.o ABSOLUTE
    ../clib/armsys.c                         0x00000000   Number         0  argv_veneer.o ABSOLUTE
    ../clib/armsys.c                         0x00000000   Number         0  no_argv.o ABSOLUTE
    ../clib/armsys.c                         0x00000000   Number         0  _get_argv_nomalloc.o ABSOLUTE
    ../clib/fenv.c                           0x00000000   Number         0  _rserrno.o ABSOLUTE
    ../clib/heapalloc.c                      0x00000000   Number         0  hrguard.o ABSOLUTE
    ../clib/heapaux.c                        0x00000000   Number         0  heapauxi.o ABSOLUTE
    ../clib/libinit.s                        0x00000000   Number         0  libshutdown.o ABSOLUTE
    ../clib/libinit.s                        0x00000000   Number         0  libinit2.o ABSOLUTE
    ../clib/libinit.s                        0x00000000   Number         0  libshutdown2.o ABSOLUTE
    ../clib/libinit.s                        0x00000000   Number         0  libinit.o ABSOLUTE
    ../clib/memcpset.s                       0x00000000   Number         0  rt_memcpy_w.o ABSOLUTE
    ../clib/memcpset.s                       0x00000000   Number         0  rt_memclr.o ABSOLUTE
    ../clib/memcpset.s                       0x00000000   Number         0  rt_memclr_w.o ABSOLUTE
    ../clib/memcpset.s                       0x00000000   Number         0  rt_memcpy_v6.o ABSOLUTE
    ../clib/printf.c                         0x00000000   Number         0  noretval__2printf.o ABSOLUTE
    ../clib/printf.c                         0x00000000   Number         0  _printf_char_common.o ABSOLUTE
    ../clib/printf.c                         0x00000000   Number         0  __printf_nopercent.o ABSOLUTE
    ../clib/printf.c                         0x00000000   Number         0  _printf_char_file.o ABSOLUTE
    ../clib/printf.c                         0x00000000   Number         0  __2printf.o ABSOLUTE
    ../clib/signal.c                         0x00000000   Number         0  defsig_cppl_inner.o ABSOLUTE
    ../clib/signal.c                         0x00000000   Number         0  defsig_other.o ABSOLUTE
    ../clib/signal.c                         0x00000000   Number         0  defsig_exit.o ABSOLUTE
    ../clib/signal.c                         0x00000000   Number         0  defsig_rtmem_outer.o ABSOLUTE
    ../clib/signal.c                         0x00000000   Number         0  defsig_rtmem_formal.o ABSOLUTE
    ../clib/signal.c                         0x00000000   Number         0  defsig_rtmem_inner.o ABSOLUTE
    ../clib/signal.c                         0x00000000   Number         0  defsig_segv_inner.o ABSOLUTE
    ../clib/signal.c                         0x00000000   Number         0  defsig_rtred_inner.o ABSOLUTE
    ../clib/signal.c                         0x00000000   Number         0  defsig_pvfn_inner.o ABSOLUTE
    ../clib/signal.c                         0x00000000   Number         0  __raise.o ABSOLUTE
    ../clib/signal.c                         0x00000000   Number         0  defsig_general.o ABSOLUTE
    ../clib/signal.c                         0x00000000   Number         0  defsig_fpe_inner.o ABSOLUTE
    ../clib/signal.c                         0x00000000   Number         0  defsig_abrt_inner.o ABSOLUTE
    ../clib/signal.c                         0x00000000   Number         0  defsig_stak_inner.o ABSOLUTE
    ../clib/signal.s                         0x00000000   Number         0  defsig.o ABSOLUTE
    ../clib/stdio.c                          0x00000000   Number         0  ferror.o ABSOLUTE
    ../clib/stdio.c                          0x00000000   Number         0  ferror_locked.o ABSOLUTE
    ../clib/stdlib.c                         0x00000000   Number         0  exit.o ABSOLUTE
    ../fplib/dcmpi.s                         0x00000000   Number         0  dcmpi.o ABSOLUTE
    ../fplib/dleqf.s                         0x00000000   Number         0  dleqf.o ABSOLUTE
    ../fplib/dnaninf.s                       0x00000000   Number         0  dnaninf.o ABSOLUTE
    ../fplib/dretinf.s                       0x00000000   Number         0  dretinf.o ABSOLUTE
    ../fplib/f2d.s                           0x00000000   Number         0  f2d.o ABSOLUTE
    ../fplib/fnaninf.s                       0x00000000   Number         0  fnaninf.o ABSOLUTE
    ../fplib/fpinit.s                        0x00000000   Number         0  fpinit.o ABSOLUTE
    ../fplib/usenofp.s                       0x00000000   Number         0  usenofp.o ABSOLUTE
    ../mathlib/atan2f.c                      0x00000000   Number         0  atan2f.o ABSOLUTE
    ../mathlib/atan2f.c                      0x00000000   Number         0  atan2f_x.o ABSOLUTE
    ../mathlib/cosf.c                        0x00000000   Number         0  cosf.o ABSOLUTE
    ../mathlib/cosf.c                        0x00000000   Number         0  cosf_x.o ABSOLUTE
    ../mathlib/fabs.c                        0x00000000   Number         0  fabs.o ABSOLUTE
    ../mathlib/fpclassifyf.c                 0x00000000   Number         0  fpclassifyf.o ABSOLUTE
    ../mathlib/funder.c                      0x00000000   Number         0  funder.o ABSOLUTE
    ../mathlib/rredf.c                       0x00000000   Number         0  rredf.o ABSOLUTE
    ../mathlib/sinf.c                        0x00000000   Number         0  sinf.o ABSOLUTE
    ../mathlib/sinf.c                        0x00000000   Number         0  sinf_x.o ABSOLUTE
    ..\AT32F403A_StdPeriph_Driver\src\at32f403a_407_acc.c 0x00000000   Number         0  at32f403a_407_acc.o ABSOLUTE
    ..\AT32F403A_StdPeriph_Driver\src\at32f403a_407_adc.c 0x00000000   Number         0  at32f403a_407_adc.o ABSOLUTE
    ..\AT32F403A_StdPeriph_Driver\src\at32f403a_407_can.c 0x00000000   Number         0  at32f403a_407_can.o ABSOLUTE
    ..\AT32F403A_StdPeriph_Driver\src\at32f403a_407_crm.c 0x00000000   Number         0  at32f403a_407_crm.o ABSOLUTE
    ..\AT32F403A_StdPeriph_Driver\src\at32f403a_407_dma.c 0x00000000   Number         0  at32f403a_407_dma.o ABSOLUTE
    ..\AT32F403A_StdPeriph_Driver\src\at32f403a_407_flash.c 0x00000000   Number         0  at32f403a_407_flash.o ABSOLUTE
    ..\AT32F403A_StdPeriph_Driver\src\at32f403a_407_gpio.c 0x00000000   Number         0  at32f403a_407_gpio.o ABSOLUTE
    ..\AT32F403A_StdPeriph_Driver\src\at32f403a_407_i2c.c 0x00000000   Number         0  at32f403a_407_i2c.o ABSOLUTE
    ..\AT32F403A_StdPeriph_Driver\src\at32f403a_407_misc.c 0x00000000   Number         0  at32f403a_407_misc.o ABSOLUTE
    ..\AT32F403A_StdPeriph_Driver\src\at32f403a_407_spi.c 0x00000000   Number         0  at32f403a_407_spi.o ABSOLUTE
    ..\AT32F403A_StdPeriph_Driver\src\at32f403a_407_tmr.c 0x00000000   Number         0  at32f403a_407_tmr.o ABSOLUTE
    ..\AT32F403A_StdPeriph_Driver\src\at32f403a_407_usart.c 0x00000000   Number         0  at32f403a_407_usart.o ABSOLUTE
    ..\AT32F403A_StdPeriph_Driver\src\at32f403a_407_usb.c 0x00000000   Number         0  at32f403a_407_usb.o ABSOLUTE
    ..\UserFile\AHRS.c                       0x00000000   Number         0  ahrs.o ABSOLUTE
    ..\UserFile\Calibration.c                0x00000000   Number         0  calibration.o ABSOLUTE
    ..\UserFile\Control.c                    0x00000000   Number         0  control.o ABSOLUTE
    ..\UserFile\Debug.c                      0x00000000   Number         0  debug.o ABSOLUTE
    ..\UserFile\Encoder.c                    0x00000000   Number         0  encoder.o ABSOLUTE
    ..\UserFile\Gpio_Config.c                0x00000000   Number         0  gpio_config.o ABSOLUTE
    ..\UserFile\MPU6500.c                    0x00000000   Number         0  mpu6500.o ABSOLUTE
    ..\UserFile\RcData.c                     0x00000000   Number         0  rcdata.o ABSOLUTE
    ..\UserFile\W25Q64.c                     0x00000000   Number         0  w25q64.o ABSOLUTE
    ..\UserFile\WS2812.c                     0x00000000   Number         0  ws2812.o ABSOLUTE
    ..\UserFile\adc.c                        0x00000000   Number         0  adc.o ABSOLUTE
    ..\UserFile\app.c                        0x00000000   Number         0  app.o ABSOLUTE
    ..\UserFile\delay.c                      0x00000000   Number         0  delay.o ABSOLUTE
    ..\UserFile\key.c                        0x00000000   Number         0  key.o ABSOLUTE
    ..\UserFile\led.c                        0x00000000   Number         0  led.o ABSOLUTE
    ..\UserFile\timer.c                      0x00000000   Number         0  timer.o ABSOLUTE
    ..\UserFile\usart.c                      0x00000000   Number         0  usart.o ABSOLUTE
    ..\UserFile\usb.c                        0x00000000   Number         0  usb.o ABSOLUTE
    ..\\AT32F403A_StdPeriph_Driver\\src\\at32f403a_407_acc.c 0x00000000   Number         0  at32f403a_407_acc.o ABSOLUTE
    ..\\AT32F403A_StdPeriph_Driver\\src\\at32f403a_407_adc.c 0x00000000   Number         0  at32f403a_407_adc.o ABSOLUTE
    ..\\AT32F403A_StdPeriph_Driver\\src\\at32f403a_407_can.c 0x00000000   Number         0  at32f403a_407_can.o ABSOLUTE
    ..\\AT32F403A_StdPeriph_Driver\\src\\at32f403a_407_crm.c 0x00000000   Number         0  at32f403a_407_crm.o ABSOLUTE
    ..\\AT32F403A_StdPeriph_Driver\\src\\at32f403a_407_dma.c 0x00000000   Number         0  at32f403a_407_dma.o ABSOLUTE
    ..\\AT32F403A_StdPeriph_Driver\\src\\at32f403a_407_flash.c 0x00000000   Number         0  at32f403a_407_flash.o ABSOLUTE
    ..\\AT32F403A_StdPeriph_Driver\\src\\at32f403a_407_gpio.c 0x00000000   Number         0  at32f403a_407_gpio.o ABSOLUTE
    ..\\AT32F403A_StdPeriph_Driver\\src\\at32f403a_407_i2c.c 0x00000000   Number         0  at32f403a_407_i2c.o ABSOLUTE
    ..\\AT32F403A_StdPeriph_Driver\\src\\at32f403a_407_misc.c 0x00000000   Number         0  at32f403a_407_misc.o ABSOLUTE
    ..\\AT32F403A_StdPeriph_Driver\\src\\at32f403a_407_spi.c 0x00000000   Number         0  at32f403a_407_spi.o ABSOLUTE
    ..\\AT32F403A_StdPeriph_Driver\\src\\at32f403a_407_tmr.c 0x00000000   Number         0  at32f403a_407_tmr.o ABSOLUTE
    ..\\AT32F403A_StdPeriph_Driver\\src\\at32f403a_407_usart.c 0x00000000   Number         0  at32f403a_407_usart.o ABSOLUTE
    ..\\AT32F403A_StdPeriph_Driver\\src\\at32f403a_407_usb.c 0x00000000   Number         0  at32f403a_407_usb.o ABSOLUTE
    ..\\UserFile\\AHRS.c                     0x00000000   Number         0  ahrs.o ABSOLUTE
    ..\\UserFile\\Calibration.c              0x00000000   Number         0  calibration.o ABSOLUTE
    ..\\UserFile\\Control.c                  0x00000000   Number         0  control.o ABSOLUTE
    ..\\UserFile\\Debug.c                    0x00000000   Number         0  debug.o ABSOLUTE
    ..\\UserFile\\Encoder.c                  0x00000000   Number         0  encoder.o ABSOLUTE
    ..\\UserFile\\Gpio_Config.c              0x00000000   Number         0  gpio_config.o ABSOLUTE
    ..\\UserFile\\MPU6500.c                  0x00000000   Number         0  mpu6500.o ABSOLUTE
    ..\\UserFile\\RcData.c                   0x00000000   Number         0  rcdata.o ABSOLUTE
    ..\\UserFile\\W25Q64.c                   0x00000000   Number         0  w25q64.o ABSOLUTE
    ..\\UserFile\\WS2812.c                   0x00000000   Number         0  ws2812.o ABSOLUTE
    ..\\UserFile\\adc.c                      0x00000000   Number         0  adc.o ABSOLUTE
    ..\\UserFile\\app.c                      0x00000000   Number         0  app.o ABSOLUTE
    ..\\UserFile\\delay.c                    0x00000000   Number         0  delay.o ABSOLUTE
    ..\\UserFile\\key.c                      0x00000000   Number         0  key.o ABSOLUTE
    ..\\UserFile\\led.c                      0x00000000   Number         0  led.o ABSOLUTE
    ..\\UserFile\\timer.c                    0x00000000   Number         0  timer.o ABSOLUTE
    ..\\UserFile\\usart.c                    0x00000000   Number         0  usart.o ABSOLUTE
    ..\\UserFile\\usb.c                      0x00000000   Number         0  usb.o ABSOLUTE
    ..\\cmsis\\device_support\\system_at32f403a_407.c 0x00000000   Number         0  system_at32f403a_407.o ABSOLUTE
    ..\\usbd_class\\cdc\\cdc_class.c         0x00000000   Number         0  cdc_class.o ABSOLUTE
    ..\\usbd_class\\cdc\\cdc_desc.c          0x00000000   Number         0  cdc_desc.o ABSOLUTE
    ..\\usbd_drivers\\src\\usbd_core.c       0x00000000   Number         0  usbd_core.o ABSOLUTE
    ..\\usbd_drivers\\src\\usbd_int.c        0x00000000   Number         0  usbd_int.o ABSOLUTE
    ..\\usbd_drivers\\src\\usbd_sdr.c        0x00000000   Number         0  usbd_sdr.o ABSOLUTE
    ..\cmsis\device_support\startup\startup_at32f403a_407.s 0x00000000   Number         0  startup_at32f403a_407.o ABSOLUTE
    ..\cmsis\device_support\system_at32f403a_407.c 0x00000000   Number         0  system_at32f403a_407.o ABSOLUTE
    ..\usbd_class\cdc\cdc_class.c            0x00000000   Number         0  cdc_class.o ABSOLUTE
    ..\usbd_class\cdc\cdc_desc.c             0x00000000   Number         0  cdc_desc.o ABSOLUTE
    ..\usbd_drivers\src\usbd_core.c          0x00000000   Number         0  usbd_core.o ABSOLUTE
    ..\usbd_drivers\src\usbd_int.c           0x00000000   Number         0  usbd_int.o ABSOLUTE
    ..\usbd_drivers\src\usbd_sdr.c           0x00000000   Number         0  usbd_sdr.o ABSOLUTE
    AT32F403A_FOC_LIB.c                      0x00000000   Number         0  at32f403a_foc_lib.o ABSOLUTE
    AT32F403A_FOC_LIB.c                      0x00000000   Number         0  at32f403a_foc_lib.o ABSOLUTE
    at32f403a_407_clock.c                    0x00000000   Number         0  at32f403a_407_clock.o ABSOLUTE
    at32f403a_407_clock.c                    0x00000000   Number         0  at32f403a_407_clock.o ABSOLUTE
    at32f403a_407_int.c                      0x00000000   Number         0  at32f403a_407_int.o ABSOLUTE
    at32f403a_407_int.c                      0x00000000   Number         0  at32f403a_407_int.o ABSOLUTE
    dc.s                                     0x00000000   Number         0  dc.o ABSOLUTE
    main.c                                   0x00000000   Number         0  main.o ABSOLUTE
    main.c                                   0x00000000   Number         0  main.o ABSOLUTE
    RESET                                    0x08000000   Section      388  startup_at32f403a_407.o(RESET)
    !!!main                                  0x08000184   Section        8  __main.o(!!!main)
    !!!scatter                               0x0800018c   Section       52  __scatter.o(!!!scatter)
    !!dczerorl2                              0x080001c0   Section       90  __dczerorl2.o(!!dczerorl2)
    !!handler_zi                             0x0800021c   Section       28  __scatter_zi.o(!!handler_zi)
    .ARM.Collect$$libinit$$00000000          0x08000238   Section        2  libinit.o(.ARM.Collect$$libinit$$00000000)
    .ARM.Collect$$libinit$$00000001          0x0800023a   Section        4  libinit2.o(.ARM.Collect$$libinit$$00000001)
    .ARM.Collect$$libinit$$00000004          0x0800023e   Section        0  libinit2.o(.ARM.Collect$$libinit$$00000004)
    .ARM.Collect$$libinit$$0000000A          0x0800023e   Section        0  libinit2.o(.ARM.Collect$$libinit$$0000000A)
    .ARM.Collect$$libinit$$0000000C          0x0800023e   Section        0  libinit2.o(.ARM.Collect$$libinit$$0000000C)
    .ARM.Collect$$libinit$$0000000E          0x0800023e   Section        0  libinit2.o(.ARM.Collect$$libinit$$0000000E)
    .ARM.Collect$$libinit$$00000011          0x0800023e   Section        0  libinit2.o(.ARM.Collect$$libinit$$00000011)
    .ARM.Collect$$libinit$$00000013          0x0800023e   Section        0  libinit2.o(.ARM.Collect$$libinit$$00000013)
    .ARM.Collect$$libinit$$00000015          0x0800023e   Section        0  libinit2.o(.ARM.Collect$$libinit$$00000015)
    .ARM.Collect$$libinit$$00000017          0x0800023e   Section        0  libinit2.o(.ARM.Collect$$libinit$$00000017)
    .ARM.Collect$$libinit$$00000019          0x0800023e   Section        0  libinit2.o(.ARM.Collect$$libinit$$00000019)
    .ARM.Collect$$libinit$$0000001B          0x0800023e   Section        0  libinit2.o(.ARM.Collect$$libinit$$0000001B)
    .ARM.Collect$$libinit$$0000001D          0x0800023e   Section        0  libinit2.o(.ARM.Collect$$libinit$$0000001D)
    .ARM.Collect$$libinit$$0000001F          0x0800023e   Section        0  libinit2.o(.ARM.Collect$$libinit$$0000001F)
    .ARM.Collect$$libinit$$00000021          0x0800023e   Section        0  libinit2.o(.ARM.Collect$$libinit$$00000021)
    .ARM.Collect$$libinit$$00000023          0x0800023e   Section        0  libinit2.o(.ARM.Collect$$libinit$$00000023)
    .ARM.Collect$$libinit$$00000025          0x0800023e   Section        0  libinit2.o(.ARM.Collect$$libinit$$00000025)
    .ARM.Collect$$libinit$$0000002C          0x0800023e   Section        0  libinit2.o(.ARM.Collect$$libinit$$0000002C)
    .ARM.Collect$$libinit$$0000002E          0x0800023e   Section        0  libinit2.o(.ARM.Collect$$libinit$$0000002E)
    .ARM.Collect$$libinit$$00000030          0x0800023e   Section        0  libinit2.o(.ARM.Collect$$libinit$$00000030)
    .ARM.Collect$$libinit$$00000032          0x0800023e   Section        0  libinit2.o(.ARM.Collect$$libinit$$00000032)
    .ARM.Collect$$libinit$$00000033          0x0800023e   Section        2  libinit2.o(.ARM.Collect$$libinit$$00000033)
    .ARM.Collect$$libshutdown$$00000000      0x08000240   Section        2  libshutdown.o(.ARM.Collect$$libshutdown$$00000000)
    .ARM.Collect$$libshutdown$$00000002      0x08000242   Section        0  libshutdown2.o(.ARM.Collect$$libshutdown$$00000002)
    .ARM.Collect$$libshutdown$$00000004      0x08000242   Section        0  libshutdown2.o(.ARM.Collect$$libshutdown$$00000004)
    .ARM.Collect$$libshutdown$$00000007      0x08000242   Section        0  libshutdown2.o(.ARM.Collect$$libshutdown$$00000007)
    .ARM.Collect$$libshutdown$$0000000A      0x08000242   Section        0  libshutdown2.o(.ARM.Collect$$libshutdown$$0000000A)
    .ARM.Collect$$libshutdown$$0000000C      0x08000242   Section        0  libshutdown2.o(.ARM.Collect$$libshutdown$$0000000C)
    .ARM.Collect$$libshutdown$$0000000F      0x08000242   Section        0  libshutdown2.o(.ARM.Collect$$libshutdown$$0000000F)
    .ARM.Collect$$libshutdown$$00000010      0x08000242   Section        2  libshutdown2.o(.ARM.Collect$$libshutdown$$00000010)
    .ARM.Collect$$rtentry$$00000000          0x08000244   Section        0  __rtentry.o(.ARM.Collect$$rtentry$$00000000)
    .ARM.Collect$$rtentry$$00000002          0x08000244   Section        0  __rtentry2.o(.ARM.Collect$$rtentry$$00000002)
    .ARM.Collect$$rtentry$$00000004          0x08000244   Section        6  __rtentry4.o(.ARM.Collect$$rtentry$$00000004)
    .ARM.Collect$$rtentry$$00000009          0x0800024a   Section        0  __rtentry2.o(.ARM.Collect$$rtentry$$00000009)
    .ARM.Collect$$rtentry$$0000000A          0x0800024a   Section        4  __rtentry2.o(.ARM.Collect$$rtentry$$0000000A)
    .ARM.Collect$$rtentry$$0000000C          0x0800024e   Section        0  __rtentry2.o(.ARM.Collect$$rtentry$$0000000C)
    .ARM.Collect$$rtentry$$0000000D          0x0800024e   Section        8  __rtentry2.o(.ARM.Collect$$rtentry$$0000000D)
    .ARM.Collect$$rtexit$$00000000           0x08000256   Section        2  rtexit.o(.ARM.Collect$$rtexit$$00000000)
    .ARM.Collect$$rtexit$$00000002           0x08000258   Section        0  rtexit2.o(.ARM.Collect$$rtexit$$00000002)
    .ARM.Collect$$rtexit$$00000003           0x08000258   Section        4  rtexit2.o(.ARM.Collect$$rtexit$$00000003)
    .ARM.Collect$$rtexit$$00000004           0x0800025c   Section        6  rtexit2.o(.ARM.Collect$$rtexit$$00000004)
    .text                                    0x08000264   Section       64  startup_at32f403a_407.o(.text)
    $v0                                      0x08000264   Number         0  startup_at32f403a_407.o(.text)
    .text                                    0x080002a4   Section        2  use_no_semi_2.o(.text)
    .text                                    0x080002a8   Section        0  noretval__2printf.o(.text)
    .text                                    0x080002c0   Section      138  rt_memcpy_v6.o(.text)
    .text                                    0x0800034a   Section       68  rt_memclr.o(.text)
    .text                                    0x0800038e   Section       78  rt_memclr_w.o(.text)
    .text                                    0x080003dc   Section        0  heapauxi.o(.text)
    .text                                    0x080003e2   Section        2  use_no_semi.o(.text)
    .text                                    0x080003e4   Section        0  _rserrno.o(.text)
    .text                                    0x080003fc   Section        0  _printf_char_file.o(.text)
    .text                                    0x08000420   Section      100  rt_memcpy_w.o(.text)
    .text                                    0x08000484   Section        8  rt_errno_addr_intlibspace.o(.text)
    .text                                    0x0800048c   Section        0  _printf_char_common.o(.text)
    _printf_input_char                       0x0800048d   Thumb Code    10  _printf_char_common.o(.text)
    .text                                    0x080004bc   Section        0  ferror.o(.text)
    .text                                    0x080004c4   Section        8  libspace.o(.text)
    .text                                    0x080004cc   Section       74  sys_stackheap_outer.o(.text)
    .text                                    0x08000516   Section        0  __printf_nopercent.o(.text)
    .text                                    0x0800053e   Section        0  exit.o(.text)
    i.ADC1_2_IRQHandler                      0x08000550   Section        0  adc.o(i.ADC1_2_IRQHandler)
    i.ADC_Config                             0x08000594   Section        0  adc.o(i.ADC_Config)
    i.Auto_Cali                              0x080005a0   Section        0  calibration.o(i.Auto_Cali)
    i.Auto_Cali_End                          0x080007c8   Section        0  debug.o(i.Auto_Cali_End)
    i.B_LED                                  0x0800095c   Section        0  led.o(i.B_LED)
    i.BusFault_Handler                       0x08000b14   Section        0  at32f403a_407_int.o(i.BusFault_Handler)
    i.Car_Cali                               0x08000b18   Section        0  calibration.o(i.Car_Cali)
    i.Check_Encoder                          0x08000e04   Section        0  encoder.o(i.Check_Encoder)
    i.Clarke_Park_Ipark                      0x08000f58   Section        0  at32f403a_foc_lib.o(i.Clarke_Park_Ipark)
    i.ConventionalADC_Init                   0x0800105c   Section        0  adc.o(i.ConventionalADC_Init)
    i.DMA1_Channel3_IRQHandler               0x08001078   Section        0  ws2812.o(i.DMA1_Channel3_IRQHandler)
    i.DMA2_Channel2_IRQHandler               0x080010a4   Section        0  usart.o(i.DMA2_Channel2_IRQHandler)
    i.DMA2_Channel6_7_IRQHandler             0x080010c4   Section        0  usart.o(i.DMA2_Channel6_7_IRQHandler)
    i.DebugMon_Handler                       0x08001104   Section        0  at32f403a_407_int.o(i.DebugMon_Handler)
    i.Dma_rx1                                0x08001108   Section        0  usart.o(i.Dma_rx1)
    i.Dma_rx2                                0x08001188   Section        0  usart.o(i.Dma_rx2)
    i.Dma_rx3                                0x08001208   Section        0  usart.o(i.Dma_rx3)
    i.Dma_rx4                                0x08001288   Section        0  usart.o(i.Dma_rx4)
    i.Dma_tx1                                0x08001308   Section        0  usart.o(i.Dma_tx1)
    i.Dma_tx3                                0x08001398   Section        0  usart.o(i.Dma_tx3)
    i.Dma_tx4                                0x08001428   Section        0  usart.o(i.Dma_tx4)
    i.G_LED                                  0x080014b8   Section        0  led.o(i.G_LED)
    i.Get_InputVolt                          0x08001670   Section        0  adc.o(i.Get_InputVolt)
    i.Get_mpu6500                            0x08001724   Section        0  mpu6500.o(i.Get_mpu6500)
    i.Gpio_config                            0x0800175c   Section        0  gpio_config.o(i.Gpio_config)
    i.Gyro_Cali                              0x080017e0   Section        0  calibration.o(i.Gyro_Cali)
    i.HardFault_Handler                      0x08001808   Section        0  at32f403a_407_int.o(i.HardFault_Handler)
    i.Hardware_Tips                          0x0800180c   Section        0  debug.o(i.Hardware_Tips)
    i.IMU_Init                               0x08001a38   Section        0  mpu6500.o(i.IMU_Init)
    i.IMU_Read_Reg                           0x08001ae8   Section        0  mpu6500.o(i.IMU_Read_Reg)
    i.IMU_Write_Reg                          0x08001b18   Section        0  mpu6500.o(i.IMU_Write_Reg)
    i.IMU_handle                             0x08001b48   Section        0  ahrs.o(i.IMU_handle)
    i.Key_Init                               0x08002030   Section        0  key.o(i.Key_Init)
    i.Key_Scan                               0x08002078   Section        0  key.o(i.Key_Scan)
    i.LED_Init                               0x08002180   Section        0  led.o(i.LED_Init)
    i.M1Current_ClosedLoop                   0x080021cc   Section        0  control.o(i.M1Current_ClosedLoop)
    i.M1SpeedControl                         0x08002224   Section        0  control.o(i.M1SpeedControl)
    i.M1_Check                               0x08002270   Section        0  control.o(i.M1_Check)
    i.M1_Control                             0x080023b8   Section        0  control.o(i.M1_Control)
    i.M1_FOC_handle                          0x080024e8   Section        0  at32f403a_foc_lib.o(i.M1_FOC_handle)
    i.M2Current_ClosedLoop                   0x080029e0   Section        0  control.o(i.M2Current_ClosedLoop)
    i.M2SpeedControl                         0x08002a38   Section        0  control.o(i.M2SpeedControl)
    i.M2_Check                               0x08002a84   Section        0  control.o(i.M2_Check)
    i.M2_Control                             0x08002bcc   Section        0  control.o(i.M2_Control)
    i.M2_FOC_handle                          0x08002cf8   Section        0  at32f403a_foc_lib.o(i.M2_FOC_handle)
    i.MA732_Init                             0x080031e4   Section        0  encoder.o(i.MA732_Init)
    i.MA732_Read_Reg                         0x08003340   Section        0  encoder.o(i.MA732_Read_Reg)
    i.MA732_Write_Reg                        0x080033e4   Section        0  encoder.o(i.MA732_Write_Reg)
    i.MT6701_Init                            0x08003488   Section        0  encoder.o(i.MT6701_Init)
    i.MemManage_Handler                      0x0800352c   Section        0  at32f403a_407_int.o(i.MemManage_Handler)
    i.MotorControl                           0x08003530   Section        0  control.o(i.MotorControl)
    i.NMI_Handler                            0x080039b4   Section        0  at32f403a_407_int.o(i.NMI_Handler)
    i.PID_Adjust                             0x080039b6   Section        0  control.o(i.PID_Adjust)
    i.PID_Adjust_S                           0x08003a90   Section        0  at32f403a_foc_lib.o(i.PID_Adjust_S)
    i.PID_Adjust_T                           0x08003bd4   Section        0  control.o(i.PID_Adjust_T)
    i.PendSV_Handler                         0x08003cee   Section        0  at32f403a_407_int.o(i.PendSV_Handler)
    i.Peripherals_Init                       0x08003cf0   Section        0  app.o(i.Peripherals_Init)
    i.R_LED                                  0x08004200   Section        0  led.o(i.R_LED)
    i.RcData                                 0x080043b8   Section        0  rcdata.o(i.RcData)
    i.ReadW25Qxx_ID                          0x080050b0   Section        0  w25q64.o(i.ReadW25Qxx_ID)
    i.Read_Cali_Data                         0x080050f8   Section        0  calibration.o(i.Read_Cali_Data)
    i.Read_M1_Encoder                        0x08005208   Section        0  encoder.o(i.Read_M1_Encoder)
    i.Read_M2_Encoder                        0x080052d4   Section        0  encoder.o(i.Read_M2_Encoder)
    i.SPI1_ReadWriteByte                     0x080053a0   Section        0  encoder.o(i.SPI1_ReadWriteByte)
    i.SPI1_ReadWriteHalfword                 0x080053ec   Section        0  encoder.o(i.SPI1_ReadWriteHalfword)
    i.SPI3_Init                              0x08005438   Section        0  mpu6500.o(i.SPI3_Init)
    i.SPI3_ReadWriteByte                     0x08005528   Section        0  mpu6500.o(i.SPI3_ReadWriteByte)
    SPI3_ReadWriteByte                       0x08005529   Thumb Code    76  mpu6500.o(i.SPI3_ReadWriteByte)
    i.SPI4_ReadWriteByte                     0x08005578   Section        0  w25q64.o(i.SPI4_ReadWriteByte)
    SPI4_ReadWriteByte                       0x08005579   Thumb Code    80  w25q64.o(i.SPI4_ReadWriteByte)
    i.SVC_Handler                            0x080055c8   Section        0  at32f403a_407_int.o(i.SVC_Handler)
    i.SpeedCompute                           0x080055cc   Section        0  control.o(i.SpeedCompute)
    i.Start_Auto_Cali                        0x08005688   Section        0  debug.o(i.Start_Auto_Cali)
    i.Start_Check_Hardware                   0x080056f8   Section        0  debug.o(i.Start_Check_Hardware)
    i.Start_Music1                           0x0800576c   Section        0  at32f403a_foc_lib.o(i.Start_Music1)
    i.Start_Music8                           0x08005c7c   Section        0  at32f403a_foc_lib.o(i.Start_Music8)
    i.SysTick_Handler                        0x08006174   Section        0  at32f403a_407_int.o(i.SysTick_Handler)
    i.SystemInit                             0x08006178   Section        0  system_at32f403a_407.o(i.SystemInit)
    i.TIM10_Init                             0x080061e8   Section        0  timer.o(i.TIM10_Init)
    i.TIM1_Init                              0x080062ac   Section        0  timer.o(i.TIM1_Init)
    i.TIM7_Init                              0x080063f4   Section        0  timer.o(i.TIM7_Init)
    i.TIM8_Init                              0x08006458   Section        0  timer.o(i.TIM8_Init)
    i.TLE5012B_Init                          0x080065f8   Section        0  encoder.o(i.TLE5012B_Init)
    i.TMR1_TRG_HALL_TMR11_IRQHandler         0x080066f4   Section        0  timer.o(i.TMR1_TRG_HALL_TMR11_IRQHandler)
    i.TMR7_GLOBAL_IRQHandler                 0x08006704   Section        0  timer.o(i.TMR7_GLOBAL_IRQHandler)
    i.TriggerADC_Init                        0x08006728   Section        0  adc.o(i.TriggerADC_Init)
    i.UART1_SendDataDMA                      0x080068d8   Section        0  usart.o(i.UART1_SendDataDMA)
    i.UART3_SendDataDMA                      0x08006918   Section        0  usart.o(i.UART3_SendDataDMA)
    i.UART4_IRQHandler                       0x08006958   Section        0  usart.o(i.UART4_IRQHandler)
    i.USART1_IRQHandler                      0x080069bc   Section        0  usart.o(i.USART1_IRQHandler)
    i.USART1_init                            0x08006a20   Section        0  usart.o(i.USART1_init)
    i.USART2_IRQHandler                      0x08006aec   Section        0  usart.o(i.USART2_IRQHandler)
    i.USART2_init                            0x08006b50   Section        0  usart.o(i.USART2_init)
    i.USART3_IRQHandler                      0x08006bfc   Section        0  usart.o(i.USART3_IRQHandler)
    i.USART3_init                            0x08006c60   Section        0  usart.o(i.USART3_init)
    i.USART4_init                            0x08006d44   Section        0  usart.o(i.USART4_init)
    i.USBFS_L_CAN1_RX0_IRQHandler            0x08006e28   Section        0  usb.o(i.USBFS_L_CAN1_RX0_IRQHandler)
    i.UsageFault_Handler                     0x08006e38   Section        0  at32f403a_407_int.o(i.UsageFault_Handler)
    i.UsartPrint                             0x08006e3c   Section        0  debug.o(i.UsartPrint)
    i.W25Qxx_ErasePage                       0x08006f64   Section        0  w25q64.o(i.W25Qxx_ErasePage)
    i.W25Qxx_Init                            0x08006fb4   Section        0  w25q64.o(i.W25Qxx_Init)
    i.W25Qxx_Read                            0x080070b0   Section        0  w25q64.o(i.W25Qxx_Read)
    i.W25Qxx_ReadStatus                      0x0800710c   Section        0  w25q64.o(i.W25Qxx_ReadStatus)
    i.W25Qxx_WaitBusy                        0x08007138   Section        0  w25q64.o(i.W25Qxx_WaitBusy)
    i.W25Qxx_WriteEnable                     0x0800714c   Section        0  w25q64.o(i.W25Qxx_WriteEnable)
    i.W25Qxx_WritePage                       0x0800716c   Section        0  w25q64.o(i.W25Qxx_WritePage)
    i.WS2812_init                            0x080071d8   Section        0  ws2812.o(i.WS2812_init)
    i.Write_Cali_Data                        0x08007308   Section        0  calibration.o(i.Write_Cali_Data)
    i.__ARM_fpclassifyf                      0x08007370   Section        0  fpclassifyf.o(i.__ARM_fpclassifyf)
    i.__hardfp_atan2f                        0x08007398   Section        0  atan2f.o(i.__hardfp_atan2f)
    i.__hardfp_cosf                          0x080075e8   Section        0  cosf.o(i.__hardfp_cosf)
    i.__hardfp_fabs                          0x08007738   Section        0  fabs.o(i.__hardfp_fabs)
    i.__hardfp_sinf                          0x0800774c   Section        0  sinf.o(i.__hardfp_sinf)
    i.__mathlib_flt_infnan                   0x080078dc   Section        0  funder.o(i.__mathlib_flt_infnan)
    i.__mathlib_flt_infnan2                  0x080078e2   Section        0  funder.o(i.__mathlib_flt_infnan2)
    i.__mathlib_flt_invalid                  0x080078e8   Section        0  funder.o(i.__mathlib_flt_invalid)
    i.__mathlib_flt_underflow                0x080078f8   Section        0  funder.o(i.__mathlib_flt_underflow)
    i.__mathlib_rredf2                       0x08007908   Section        0  rredf.o(i.__mathlib_rredf2)
    i._sys_exit                              0x08007a5c   Section        0  debug.o(i._sys_exit)
    i.acc_calibration_mode_enable            0x08007a60   Section        0  at32f403a_407_acc.o(i.acc_calibration_mode_enable)
    i.acc_write_c1                           0x08007a90   Section        0  at32f403a_407_acc.o(i.acc_write_c1)
    i.acc_write_c2                           0x08007a9c   Section        0  at32f403a_407_acc.o(i.acc_write_c2)
    i.acc_write_c3                           0x08007aa8   Section        0  at32f403a_407_acc.o(i.acc_write_c3)
    i.adc_base_config                        0x08007ab4   Section        0  at32f403a_407_adc.o(i.adc_base_config)
    i.adc_base_default_para_init             0x08007ae0   Section        0  at32f403a_407_adc.o(i.adc_base_default_para_init)
    i.adc_calibration_init                   0x08007aee   Section        0  at32f403a_407_adc.o(i.adc_calibration_init)
    i.adc_calibration_init_status_get        0x08007afa   Section        0  at32f403a_407_adc.o(i.adc_calibration_init_status_get)
    i.adc_calibration_start                  0x08007b0c   Section        0  at32f403a_407_adc.o(i.adc_calibration_start)
    i.adc_calibration_status_get             0x08007b18   Section        0  at32f403a_407_adc.o(i.adc_calibration_status_get)
    i.adc_combine_mode_select                0x08007b2c   Section        0  at32f403a_407_adc.o(i.adc_combine_mode_select)
    i.adc_config                             0x08007b40   Section        0  adc.o(i.adc_config)
    adc_config                               0x08007b41   Thumb Code   166  adc.o(i.adc_config)
    i.adc_dma_mode_enable                    0x08007bf0   Section        0  at32f403a_407_adc.o(i.adc_dma_mode_enable)
    i.adc_enable                             0x08007bfa   Section        0  at32f403a_407_adc.o(i.adc_enable)
    i.adc_flag_clear                         0x08007c04   Section        0  at32f403a_407_adc.o(i.adc_flag_clear)
    i.adc_flag_get                           0x08007c0a   Section        0  at32f403a_407_adc.o(i.adc_flag_get)
    i.adc_interrupt_enable                   0x08007c1a   Section        0  at32f403a_407_adc.o(i.adc_interrupt_enable)
    i.adc_ordinary_channel_set               0x08007c30   Section        0  at32f403a_407_adc.o(i.adc_ordinary_channel_set)
    i.adc_ordinary_conversion_trigger_set    0x08007dc4   Section        0  at32f403a_407_adc.o(i.adc_ordinary_conversion_trigger_set)
    i.adc_ordinary_software_trigger_enable   0x08007df8   Section        0  at32f403a_407_adc.o(i.adc_ordinary_software_trigger_enable)
    i.adc_preempt_auto_mode_enable           0x08007e02   Section        0  at32f403a_407_adc.o(i.adc_preempt_auto_mode_enable)
    i.adc_preempt_channel_length_set         0x08007e0c   Section        0  at32f403a_407_adc.o(i.adc_preempt_channel_length_set)
    i.adc_preempt_channel_set                0x08007e18   Section        0  at32f403a_407_adc.o(i.adc_preempt_channel_set)
    i.adc_preempt_conversion_trigger_set     0x08007f3a   Section        0  at32f403a_407_adc.o(i.adc_preempt_conversion_trigger_set)
    i.cdc_struct_init                        0x08007f70   Section        0  cdc_class.o(i.cdc_struct_init)
    cdc_struct_init                          0x08007f71   Thumb Code    50  cdc_class.o(i.cdc_struct_init)
    i.class_clear_handler                    0x08007fa8   Section        0  cdc_class.o(i.class_clear_handler)
    class_clear_handler                      0x08007fa9   Thumb Code    36  cdc_class.o(i.class_clear_handler)
    i.class_ept0_rx_handler                  0x08007fcc   Section        0  cdc_class.o(i.class_ept0_rx_handler)
    class_ept0_rx_handler                    0x08007fcd   Thumb Code    56  cdc_class.o(i.class_ept0_rx_handler)
    i.class_ept0_tx_handler                  0x08008004   Section        0  cdc_class.o(i.class_ept0_tx_handler)
    class_ept0_tx_handler                    0x08008005   Thumb Code     6  cdc_class.o(i.class_ept0_tx_handler)
    i.class_event_handler                    0x0800800a   Section        0  cdc_class.o(i.class_event_handler)
    class_event_handler                      0x0800800b   Thumb Code    30  cdc_class.o(i.class_event_handler)
    i.class_in_handler                       0x08008028   Section        0  cdc_class.o(i.class_in_handler)
    class_in_handler                         0x08008029   Thumb Code    22  cdc_class.o(i.class_in_handler)
    i.class_init_handler                     0x0800803e   Section        0  cdc_class.o(i.class_init_handler)
    class_init_handler                       0x0800803f   Thumb Code   108  cdc_class.o(i.class_init_handler)
    i.class_out_handler                      0x080080aa   Section        0  cdc_class.o(i.class_out_handler)
    class_out_handler                        0x080080ab   Thumb Code    42  cdc_class.o(i.class_out_handler)
    i.class_setup_handler                    0x080080d4   Section        0  cdc_class.o(i.class_setup_handler)
    class_setup_handler                      0x080080d5   Thumb Code   182  cdc_class.o(i.class_setup_handler)
    i.class_sof_handler                      0x0800818a   Section        0  cdc_class.o(i.class_sof_handler)
    class_sof_handler                        0x0800818b   Thumb Code     6  cdc_class.o(i.class_sof_handler)
    i.crm_adc_clock_div_set                  0x08008190   Section        0  at32f403a_407_crm.o(i.crm_adc_clock_div_set)
    i.crm_ahb_div_set                        0x080081b0   Section        0  at32f403a_407_crm.o(i.crm_ahb_div_set)
    i.crm_apb1_div_set                       0x080081c4   Section        0  at32f403a_407_crm.o(i.crm_apb1_div_set)
    i.crm_apb2_div_set                       0x080081d8   Section        0  at32f403a_407_crm.o(i.crm_apb2_div_set)
    i.crm_auto_step_mode_enable              0x080081ec   Section        0  at32f403a_407_crm.o(i.crm_auto_step_mode_enable)
    i.crm_clock_source_enable                0x08008214   Section        0  at32f403a_407_crm.o(i.crm_clock_source_enable)
    i.crm_clocks_freq_get                    0x08008274   Section        0  at32f403a_407_crm.o(i.crm_clocks_freq_get)
    i.crm_flag_get                           0x080083a4   Section        0  at32f403a_407_crm.o(i.crm_flag_get)
    i.crm_hext_clock_div_set                 0x080083d4   Section        0  at32f403a_407_crm.o(i.crm_hext_clock_div_set)
    i.crm_hext_stable_wait                   0x080083e8   Section        0  at32f403a_407_crm.o(i.crm_hext_stable_wait)
    i.crm_hick_divider_select                0x08008418   Section        0  at32f403a_407_crm.o(i.crm_hick_divider_select)
    i.crm_hick_sclk_frequency_select         0x0800842c   Section        0  at32f403a_407_crm.o(i.crm_hick_sclk_frequency_select)
    i.crm_periph_clock_enable                0x08008448   Section        0  at32f403a_407_crm.o(i.crm_periph_clock_enable)
    i.crm_pll_config                         0x0800848c   Section        0  at32f403a_407_crm.o(i.crm_pll_config)
    i.crm_reset                              0x08008508   Section        0  at32f403a_407_crm.o(i.crm_reset)
    i.crm_sysclk_switch                      0x08008560   Section        0  at32f403a_407_crm.o(i.crm_sysclk_switch)
    i.crm_sysclk_switch_status_get           0x08008574   Section        0  at32f403a_407_crm.o(i.crm_sysclk_switch_status_get)
    i.crm_usb_clock_source_select            0x08008584   Section        0  at32f403a_407_crm.o(i.crm_usb_clock_source_select)
    i.delay_init                             0x080085a4   Section        0  delay.o(i.delay_init)
    i.delay_ms                               0x080085d4   Section        0  delay.o(i.delay_ms)
    i.dma_channel_enable                     0x08008610   Section        0  at32f403a_407_dma.o(i.dma_channel_enable)
    i.dma_config                             0x0800861c   Section        0  adc.o(i.dma_config)
    dma_config                               0x0800861d   Thumb Code   112  adc.o(i.dma_config)
    i.dma_data_number_get                    0x08008698   Section        0  at32f403a_407_dma.o(i.dma_data_number_get)
    i.dma_data_number_set                    0x080086a0   Section        0  at32f403a_407_dma.o(i.dma_data_number_set)
    i.dma_default_para_init                  0x080086a4   Section        0  at32f403a_407_dma.o(i.dma_default_para_init)
    i.dma_flag_clear                         0x080086bc   Section        0  at32f403a_407_dma.o(i.dma_flag_clear)
    i.dma_flag_get                           0x080086dc   Section        0  at32f403a_407_dma.o(i.dma_flag_get)
    i.dma_flexible_config                    0x08008708   Section        0  at32f403a_407_dma.o(i.dma_flexible_config)
    i.dma_init                               0x080087a0   Section        0  at32f403a_407_dma.o(i.dma_init)
    i.dma_interrupt_enable                   0x080087fc   Section        0  at32f403a_407_dma.o(i.dma_interrupt_enable)
    i.dma_reset                              0x08008810   Section        0  at32f403a_407_dma.o(i.dma_reset)
    i.fabsf                                  0x08008880   Section        0  control.o(i.fabsf)
    fabsf                                    0x08008881   Thumb Code    10  control.o(i.fabsf)
    i.fputc                                  0x0800888c   Section        0  debug.o(i.fputc)
    i.get_device_config_string               0x080088ac   Section        0  cdc_desc.o(i.get_device_config_string)
    get_device_config_string                 0x080088ad   Thumb Code    22  cdc_desc.o(i.get_device_config_string)
    i.get_device_configuration               0x080088e4   Section        0  cdc_desc.o(i.get_device_configuration)
    get_device_configuration                 0x080088e5   Thumb Code     4  cdc_desc.o(i.get_device_configuration)
    i.get_device_descriptor                  0x080088ec   Section        0  cdc_desc.o(i.get_device_descriptor)
    get_device_descriptor                    0x080088ed   Thumb Code     4  cdc_desc.o(i.get_device_descriptor)
    i.get_device_interface_string            0x080088f4   Section        0  cdc_desc.o(i.get_device_interface_string)
    get_device_interface_string              0x080088f5   Thumb Code    22  cdc_desc.o(i.get_device_interface_string)
    i.get_device_lang_id                     0x08008930   Section        0  cdc_desc.o(i.get_device_lang_id)
    get_device_lang_id                       0x08008931   Thumb Code     4  cdc_desc.o(i.get_device_lang_id)
    i.get_device_manufacturer_string         0x08008938   Section        0  cdc_desc.o(i.get_device_manufacturer_string)
    get_device_manufacturer_string           0x08008939   Thumb Code    22  cdc_desc.o(i.get_device_manufacturer_string)
    i.get_device_other_speed                 0x08008960   Section        0  cdc_desc.o(i.get_device_other_speed)
    get_device_other_speed                   0x08008961   Thumb Code     4  cdc_desc.o(i.get_device_other_speed)
    i.get_device_product_string              0x08008964   Section        0  cdc_desc.o(i.get_device_product_string)
    get_device_product_string                0x08008965   Thumb Code    22  cdc_desc.o(i.get_device_product_string)
    i.get_device_qualifier                   0x0800899c   Section        0  cdc_desc.o(i.get_device_qualifier)
    get_device_qualifier                     0x0800899d   Thumb Code     4  cdc_desc.o(i.get_device_qualifier)
    i.get_device_serial_string               0x080089a0   Section        0  cdc_desc.o(i.get_device_serial_string)
    get_device_serial_string                 0x080089a1   Thumb Code    10  cdc_desc.o(i.get_device_serial_string)
    i.get_serial_num                         0x080089b0   Section        0  cdc_desc.o(i.get_serial_num)
    get_serial_num                           0x080089b1   Thumb Code    36  cdc_desc.o(i.get_serial_num)
    i.gpio_bits_reset                        0x080089d8   Section        0  at32f403a_407_gpio.o(i.gpio_bits_reset)
    i.gpio_bits_set                          0x080089dc   Section        0  at32f403a_407_gpio.o(i.gpio_bits_set)
    i.gpio_config                            0x080089e0   Section        0  adc.o(i.gpio_config)
    gpio_config                              0x080089e1   Thumb Code    36  adc.o(i.gpio_config)
    i.gpio_default_para_init                 0x08008a0c   Section        0  at32f403a_407_gpio.o(i.gpio_default_para_init)
    i.gpio_init                              0x08008a22   Section        0  at32f403a_407_gpio.o(i.gpio_init)
    i.gpio_input_data_bit_read               0x08008aca   Section        0  at32f403a_407_gpio.o(i.gpio_input_data_bit_read)
    i.gpio_pin_remap_config                  0x08008adc   Section        0  at32f403a_407_gpio.o(i.gpio_pin_remap_config)
    i.main                                   0x08008b28   Section        0  main.o(i.main)
    i.nvic_irq_enable                        0x08008b40   Section        0  at32f403a_407_misc.o(i.nvic_irq_enable)
    i.nvic_priority_group_config             0x08008c08   Section        0  at32f403a_407_misc.o(i.nvic_priority_group_config)
    i.parameters_Init                        0x08008c30   Section        0  control.o(i.parameters_Init)
    i.send_Data                              0x080090bc   Section        0  ws2812.o(i.send_Data)
    i.spi_default_para_init                  0x080091a4   Section        0  at32f403a_407_spi.o(i.spi_default_para_init)
    i.spi_enable                             0x080091ba   Section        0  at32f403a_407_spi.o(i.spi_enable)
    i.spi_i2s_flag_get                       0x080091c4   Section        0  at32f403a_407_spi.o(i.spi_i2s_flag_get)
    i.spi_init                               0x080091d4   Section        0  at32f403a_407_spi.o(i.spi_init)
    i.svpwm                                  0x080092f8   Section        0  at32f403a_foc_lib.o(i.svpwm)
    i.system_clock_config                    0x080097b4   Section        0  at32f403a_407_clock.o(i.system_clock_config)
    i.system_core_clock_update               0x08009824   Section        0  system_at32f403a_407.o(i.system_core_clock_update)
    i.systick_clock_source_config            0x08009920   Section        0  at32f403a_407_misc.o(i.systick_clock_source_config)
    i.tmr_base_init                          0x08009948   Section        0  at32f403a_407_tmr.o(i.tmr_base_init)
    i.tmr_brkdt_config                       0x08009958   Section        0  at32f403a_407_tmr.o(i.tmr_brkdt_config)
    i.tmr_brkdt_default_para_init            0x080099a0   Section        0  at32f403a_407_tmr.o(i.tmr_brkdt_default_para_init)
    i.tmr_channel_value_set                  0x080099b2   Section        0  at32f403a_407_tmr.o(i.tmr_channel_value_set)
    i.tmr_clock_source_div_set               0x080099da   Section        0  at32f403a_407_tmr.o(i.tmr_clock_source_div_set)
    i.tmr_cnt_dir_set                        0x080099e4   Section        0  at32f403a_407_tmr.o(i.tmr_cnt_dir_set)
    i.tmr_counter_enable                     0x080099ee   Section        0  at32f403a_407_tmr.o(i.tmr_counter_enable)
    i.tmr_dma_request_enable                 0x080099f8   Section        0  at32f403a_407_tmr.o(i.tmr_dma_request_enable)
    i.tmr_flag_clear                         0x08009a0e   Section        0  at32f403a_407_tmr.o(i.tmr_flag_clear)
    i.tmr_flag_get                           0x08009a14   Section        0  at32f403a_407_tmr.o(i.tmr_flag_get)
    i.tmr_interrupt_enable                   0x08009a26   Section        0  at32f403a_407_tmr.o(i.tmr_interrupt_enable)
    i.tmr_output_channel_buffer_enable       0x08009a3c   Section        0  at32f403a_407_tmr.o(i.tmr_output_channel_buffer_enable)
    i.tmr_output_channel_config              0x08009a7e   Section        0  at32f403a_407_tmr.o(i.tmr_output_channel_config)
    i.tmr_output_default_para_init           0x08009c1e   Section        0  at32f403a_407_tmr.o(i.tmr_output_default_para_init)
    i.tmr_output_enable                      0x08009c30   Section        0  at32f403a_407_tmr.o(i.tmr_output_enable)
    i.tmr_period_buffer_enable               0x08009c3a   Section        0  at32f403a_407_tmr.o(i.tmr_period_buffer_enable)
    i.usart_dma_receiver_enable              0x08009c44   Section        0  at32f403a_407_usart.o(i.usart_dma_receiver_enable)
    i.usart_dma_transmitter_enable           0x08009c4e   Section        0  at32f403a_407_usart.o(i.usart_dma_transmitter_enable)
    i.usart_enable                           0x08009c58   Section        0  at32f403a_407_usart.o(i.usart_enable)
    i.usart_flag_clear                       0x08009c62   Section        0  at32f403a_407_usart.o(i.usart_flag_clear)
    i.usart_flag_get                         0x08009c74   Section        0  at32f403a_407_usart.o(i.usart_flag_get)
    i.usart_init                             0x08009c84   Section        0  at32f403a_407_usart.o(i.usart_init)
    i.usart_interrupt_enable                 0x08009d0c   Section        0  at32f403a_407_usart.o(i.usart_interrupt_enable)
    i.usart_receiver_enable                  0x08009d42   Section        0  at32f403a_407_usart.o(i.usart_receiver_enable)
    i.usart_transmitter_enable               0x08009d4c   Section        0  at32f403a_407_usart.o(i.usart_transmitter_enable)
    i.usb_ReadWrite                          0x08009d58   Section        0  usb.o(i.usb_ReadWrite)
    i.usb_buffer_free                        0x08009d80   Section        0  at32f403a_407_usb.o(i.usb_buffer_free)
    i.usb_clock48m_select                    0x08009d8c   Section        0  usb.o(i.usb_clock48m_select)
    i.usb_connect                            0x08009dc4   Section        0  at32f403a_407_usb.o(i.usb_connect)
    i.usb_dev_init                           0x08009dd6   Section        0  at32f403a_407_usb.o(i.usb_dev_init)
    i.usb_enter_suspend                      0x08009dfa   Section        0  at32f403a_407_usb.o(i.usb_enter_suspend)
    i.usb_ept_close                          0x08009e10   Section        0  at32f403a_407_usb.o(i.usb_ept_close)
    i.usb_ept_open                           0x0800a04c   Section        0  at32f403a_407_usb.o(i.usb_ept_open)
    i.usb_exit_suspend                       0x0800a564   Section        0  at32f403a_407_usb.o(i.usb_exit_suspend)
    i.usb_flag_clear                         0x0800a576   Section        0  at32f403a_407_usb.o(i.usb_flag_clear)
    i.usb_init                               0x0800a57c   Section        0  usb.o(i.usb_init)
    i.usb_interrupt_enable                   0x0800a5c0   Section        0  at32f403a_407_usb.o(i.usb_interrupt_enable)
    i.usb_read_packet                        0x0800a5d4   Section        0  at32f403a_407_usb.o(i.usb_read_packet)
    i.usb_set_address                        0x0800a600   Section        0  at32f403a_407_usb.o(i.usb_set_address)
    i.usb_vcp_cmd_process                    0x0800a614   Section        0  cdc_class.o(i.usb_vcp_cmd_process)
    usb_vcp_cmd_process                      0x0800a615   Thumb Code   116  cdc_class.o(i.usb_vcp_cmd_process)
    i.usb_vcp_get_rxdata                     0x0800a688   Section        0  cdc_class.o(i.usb_vcp_get_rxdata)
    i.usb_vcp_send_data                      0x0800a6d8   Section        0  cdc_class.o(i.usb_vcp_send_data)
    i.usb_write_packet                       0x0800a714   Section        0  at32f403a_407_usb.o(i.usb_write_packet)
    i.usbd_clear_feature                     0x0800a740   Section        0  usbd_sdr.o(i.usbd_clear_feature)
    usbd_clear_feature                       0x0800a741   Thumb Code    84  usbd_sdr.o(i.usbd_clear_feature)
    i.usbd_clear_stall                       0x0800a794   Section        0  usbd_core.o(i.usbd_clear_stall)
    i.usbd_connect                           0x0800a824   Section        0  usbd_core.o(i.usbd_connect)
    i.usbd_core_in_handler                   0x0800a830   Section        0  usbd_core.o(i.usbd_core_in_handler)
    i.usbd_core_init                         0x0800a8ea   Section        0  usbd_core.o(i.usbd_core_init)
    i.usbd_core_out_handler                  0x0800a916   Section        0  usbd_core.o(i.usbd_core_out_handler)
    i.usbd_core_setup_handler                0x0800a98e   Section        0  usbd_core.o(i.usbd_core_setup_handler)
    i.usbd_ctrl_recv                         0x0800a9e2   Section        0  usbd_core.o(i.usbd_ctrl_recv)
    i.usbd_ctrl_recv_status                  0x0800aa06   Section        0  usbd_core.o(i.usbd_ctrl_recv_status)
    i.usbd_ctrl_send                         0x0800aa1e   Section        0  usbd_core.o(i.usbd_ctrl_send)
    i.usbd_ctrl_send_status                  0x0800aa46   Section        0  usbd_core.o(i.usbd_ctrl_send_status)
    i.usbd_ctrl_unsupport                    0x0800aa5e   Section        0  usbd_core.o(i.usbd_ctrl_unsupport)
    i.usbd_device_request                    0x0800aa74   Section        0  usbd_sdr.o(i.usbd_device_request)
    i.usbd_endpoint_request                  0x0800aaf4   Section        0  usbd_sdr.o(i.usbd_endpoint_request)
    i.usbd_enter_suspend                     0x0800ac72   Section        0  usbd_core.o(i.usbd_enter_suspend)
    i.usbd_ept_buf_custom_define             0x0800ac7e   Section        0  usbd_core.o(i.usbd_ept_buf_custom_define)
    i.usbd_ept_close                         0x0800acc2   Section        0  usbd_core.o(i.usbd_ept_close)
    i.usbd_ept_defaut_init                   0x0800acf2   Section        0  usbd_core.o(i.usbd_ept_defaut_init)
    i.usbd_ept_loop_handler                  0x0800adb6   Section        0  usbd_int.o(i.usbd_ept_loop_handler)
    i.usbd_ept_open                          0x0800addc   Section        0  usbd_core.o(i.usbd_ept_open)
    i.usbd_ept_recv                          0x0800ae30   Section        0  usbd_core.o(i.usbd_ept_recv)
    i.usbd_ept_send                          0x0800aea4   Section        0  usbd_core.o(i.usbd_ept_send)
    i.usbd_eptn_handler                      0x0800afc4   Section        0  usbd_int.o(i.usbd_eptn_handler)
    i.usbd_get_configuration                 0x0800b1a0   Section        0  usbd_sdr.o(i.usbd_get_configuration)
    usbd_get_configuration                   0x0800b1a1   Thumb Code    86  usbd_sdr.o(i.usbd_get_configuration)
    i.usbd_get_descriptor                    0x0800b1f6   Section        0  usbd_sdr.o(i.usbd_get_descriptor)
    usbd_get_descriptor                      0x0800b1f7   Thumb Code   242  usbd_sdr.o(i.usbd_get_descriptor)
    i.usbd_get_recv_len                      0x0800b2e8   Section        0  usbd_core.o(i.usbd_get_recv_len)
    i.usbd_get_status                        0x0800b2fc   Section        0  usbd_sdr.o(i.usbd_get_status)
    usbd_get_status                          0x0800b2fd   Thumb Code    68  usbd_sdr.o(i.usbd_get_status)
    i.usbd_int_to_unicode                    0x0800b340   Section        0  cdc_desc.o(i.usbd_int_to_unicode)
    usbd_int_to_unicode                      0x0800b341   Thumb Code    62  cdc_desc.o(i.usbd_int_to_unicode)
    i.usbd_interface_request                 0x0800b37e   Section        0  usbd_sdr.o(i.usbd_interface_request)
    i.usbd_irq_handler                       0x0800b3c8   Section        0  usbd_int.o(i.usbd_irq_handler)
    i.usbd_reset_handler                     0x0800b464   Section        0  usbd_int.o(i.usbd_reset_handler)
    i.usbd_set_address                       0x0800b4be   Section        0  usbd_sdr.o(i.usbd_set_address)
    usbd_set_address                         0x0800b4bf   Thumb Code    82  usbd_sdr.o(i.usbd_set_address)
    i.usbd_set_configuration                 0x0800b510   Section        0  usbd_sdr.o(i.usbd_set_configuration)
    usbd_set_configuration                   0x0800b511   Thumb Code   194  usbd_sdr.o(i.usbd_set_configuration)
    i.usbd_set_feature                       0x0800b5d8   Section        0  usbd_sdr.o(i.usbd_set_feature)
    usbd_set_feature                         0x0800b5d9   Thumb Code    42  usbd_sdr.o(i.usbd_set_feature)
    i.usbd_set_stall                         0x0800b604   Section        0  usbd_core.o(i.usbd_set_stall)
    i.usbd_setup_request_parse               0x0800b68c   Section        0  usbd_sdr.o(i.usbd_setup_request_parse)
    i.usbd_sof_handler                       0x0800b6b4   Section        0  usbd_int.o(i.usbd_sof_handler)
    i.usbd_suspend_handler                   0x0800b6c8   Section        0  usbd_int.o(i.usbd_suspend_handler)
    i.usbd_unicode_convert                   0x0800b6f2   Section        0  cdc_desc.o(i.usbd_unicode_convert)
    usbd_unicode_convert                     0x0800b6f3   Thumb Code    60  cdc_desc.o(i.usbd_unicode_convert)
    i.usbd_wakeup_handler                    0x0800b72e   Section        0  usbd_int.o(i.usbd_wakeup_handler)
    x$fpl$dcmpinf                            0x0800b752   Section       24  dcmpi.o(x$fpl$dcmpinf)
    $v0                                      0x0800b752   Number         0  dcmpi.o(x$fpl$dcmpinf)
    x$fpl$dleqf                              0x0800b76c   Section      120  dleqf.o(x$fpl$dleqf)
    $v0                                      0x0800b76c   Number         0  dleqf.o(x$fpl$dleqf)
    x$fpl$dnaninf                            0x0800b7e4   Section      156  dnaninf.o(x$fpl$dnaninf)
    $v0                                      0x0800b7e4   Number         0  dnaninf.o(x$fpl$dnaninf)
    x$fpl$dretinf                            0x0800b880   Section       12  dretinf.o(x$fpl$dretinf)
    $v0                                      0x0800b880   Number         0  dretinf.o(x$fpl$dretinf)
    x$fpl$f2d                                0x0800b88c   Section       86  f2d.o(x$fpl$f2d)
    $v0                                      0x0800b88c   Number         0  f2d.o(x$fpl$f2d)
    x$fpl$fnaninf                            0x0800b8e2   Section      140  fnaninf.o(x$fpl$fnaninf)
    $v0                                      0x0800b8e2   Number         0  fnaninf.o(x$fpl$fnaninf)
    x$fpl$fpinit                             0x0800b96e   Section       10  fpinit.o(x$fpl$fpinit)
    $v0                                      0x0800b96e   Number         0  fpinit.o(x$fpl$fpinit)
    .constdata                               0x0800b978   Section       16  system_at32f403a_407.o(.constdata)
    x$fpl$usenofp                            0x0800b978   Section        0  usenofp.o(x$fpl$usenofp)
    sys_ahb_div_table                        0x0800b978   Data          16  system_at32f403a_407.o(.constdata)
    .constdata                               0x0800b988   Section       40  at32f403a_407_crm.o(.constdata)
    sclk_ahb_div_table                       0x0800b988   Data          16  at32f403a_407_crm.o(.constdata)
    ahb_apb1_div_table                       0x0800b998   Data           8  at32f403a_407_crm.o(.constdata)
    ahb_apb2_div_table                       0x0800b9a0   Data           8  at32f403a_407_crm.o(.constdata)
    adc_div_table                            0x0800b9a8   Data           8  at32f403a_407_crm.o(.constdata)
    .constdata                               0x0800b9b0   Section       32  rredf.o(.constdata)
    twooverpi                                0x0800b9b0   Data          32  rredf.o(.constdata)
    .conststring                             0x0800b9d0   Section     1280  debug.o(.conststring)
    .data                                    0x20000000   Section        4  system_at32f403a_407.o(.data)
    .data                                    0x20000004   Section        6  at32f403a_407_usb.o(.data)
    g_usb_offset_addr                        0x20000008   Data           2  at32f403a_407_usb.o(.data)
    .data                                    0x2000000a   Section        6  led.o(.data)
    .data                                    0x20000010   Section        8  usart.o(.data)
    .data                                    0x20000018   Section       12  debug.o(.data)
    .data                                    0x20000024   Section        1  timer.o(.data)
    .data                                    0x20000026   Section        6  adc.o(.data)
    .data                                    0x2000002c   Section       26  encoder.o(.data)
    .data                                    0x20000046   Section        1  mpu6500.o(.data)
    .data                                    0x20000047   Section        1  ahrs.o(.data)
    .data                                    0x20000048   Section        8  key.o(.data)
    .data                                    0x20000050   Section        7  calibration.o(.data)
    .data                                    0x20000058   Section       23  app.o(.data)
    .data                                    0x2000006f   Section        1  ws2812.o(.data)
    .data                                    0x20000070   Section       38  control.o(.data)
    .data                                    0x20000096   Section       11  rcdata.o(.data)
    .data                                    0x200000a2   Section        4  delay.o(.data)
    fac_us                                   0x200000a2   Data           1  delay.o(.data)
    fac_ms                                   0x200000a4   Data           2  delay.o(.data)
    .data                                    0x200000a6   Section        1  usbd_sdr.o(.data)
    config_value                             0x200000a6   Data           1  usbd_sdr.o(.data)
    .data                                    0x200000a8   Section       48  cdc_class.o(.data)
    .data                                    0x200000d8   Section      200  cdc_desc.o(.data)
    g_usbd_descriptor                        0x20000100   Data          18  cdc_desc.o(.data)
    g_usbd_configuration                     0x20000114   Data          67  cdc_desc.o(.data)
    g_string_lang_id                         0x20000158   Data           4  cdc_desc.o(.data)
    g_string_serial                          0x2000015c   Data          26  cdc_desc.o(.data)
    device_descriptor                        0x20000178   Data           8  cdc_desc.o(.data)
    config_descriptor                        0x20000180   Data           8  cdc_desc.o(.data)
    langid_descriptor                        0x20000188   Data           8  cdc_desc.o(.data)
    serial_descriptor                        0x20000190   Data           8  cdc_desc.o(.data)
    vp_desc                                  0x20000198   Data           8  cdc_desc.o(.data)
    .data                                    0x200001a0   Section       92  at32f403a_foc_lib.o(.data)
    .bss                                     0x200001fc   Section     2432  usart.o(.bss)
    .bss                                     0x20000b7c   Section     1160  debug.o(.bss)
    .bss                                     0x20001004   Section       20  timer.o(.bss)
    .bss                                     0x20001018   Section      174  ahrs.o(.bss)
    .bss                                     0x200010c6   Section      302  calibration.o(.bss)
    .bss                                     0x200011f4   Section      732  ws2812.o(.bss)
    .bss                                     0x200014d0   Section      626  control.o(.bss)
    .bss                                     0x20001744   Section       84  rcdata.o(.bss)
    .bss                                     0x20001798   Section     1068  usb.o(.bss)
    .bss                                     0x20001bc4   Section       92  cdc_class.o(.bss)
    .bss                                     0x20001c20   Section      256  cdc_desc.o(.bss)
    g_usbd_desc_buffer                       0x20001c20   Data         256  cdc_desc.o(.bss)
    .bss                                     0x20001d20   Section      288  at32f403a_foc_lib.o(.bss)
    .bss                                     0x20001e40   Section       96  libspace.o(.bss)
    HEAP                                     0x20001ea0   Section      512  startup_at32f403a_407.o(HEAP)
    Heap_Mem                                 0x20001ea0   Data         512  startup_at32f403a_407.o(HEAP)
    STACK                                    0x200020a0   Section     1024  startup_at32f403a_407.o(STACK)
    Stack_Mem                                0x200020a0   Data        1024  startup_at32f403a_407.o(STACK)
    __initial_sp                             0x200024a0   Data           0  startup_at32f403a_407.o(STACK)

    Global Symbols

    Symbol Name                              Value     Ov Type        Size  Object(Section)

    BuildAttributes$$THM_ISAv4$E$P$D$K$B$S$7EM$VFPi3$EXTD16$VFPS$VFMA$PE$A:L22UL41UL21$X:L11$S22US41US21$IEEE1$IW$USESV6$~STKCKD$USESV7$~SHL$OTIME$ROPI$IEEEX$EBA8$UX$STANDARDLIB$REQ8$PRES8$EABIv2 0x00000000   Number         0  anon$$obj.o ABSOLUTE
    __ARM_use_no_argv                        0x00000000   Number         0  main.o ABSOLUTE
    __ARM_exceptions_init                     - Undefined Weak Reference
    __alloca_initialize                       - Undefined Weak Reference
    __arm_preinit_                            - Undefined Weak Reference
    __cpp_initialize__aeabi_                  - Undefined Weak Reference
    __cxa_finalize                            - Undefined Weak Reference
    __rt_locale                               - Undefined Weak Reference
    __sigvec_lookup                           - Undefined Weak Reference
    _atexit_init                              - Undefined Weak Reference
    _call_atexit_fns                          - Undefined Weak Reference
    _clock_init                               - Undefined Weak Reference
    _fp_trap_init                             - Undefined Weak Reference
    _fp_trap_shutdown                         - Undefined Weak Reference
    _get_lc_collate                           - Undefined Weak Reference
    _get_lc_ctype                             - Undefined Weak Reference
    _get_lc_monetary                          - Undefined Weak Reference
    _get_lc_numeric                           - Undefined Weak Reference
    _get_lc_time                              - Undefined Weak Reference
    _getenv_init                              - Undefined Weak Reference
    _handle_redirection                       - Undefined Weak Reference
    _init_alloc                               - Undefined Weak Reference
    _init_user_alloc                          - Undefined Weak Reference
    _initio                                   - Undefined Weak Reference
    _mutex_acquire                            - Undefined Weak Reference
    _mutex_release                            - Undefined Weak Reference
    _rand_init                                - Undefined Weak Reference
    _signal_finish                            - Undefined Weak Reference
    _signal_init                              - Undefined Weak Reference
    _terminate_alloc                          - Undefined Weak Reference
    _terminate_user_alloc                     - Undefined Weak Reference
    _terminateio                              - Undefined Weak Reference
    __Vectors_Size                           0x00000184   Number         0  startup_at32f403a_407.o ABSOLUTE
    __Vectors                                0x08000000   Data           4  startup_at32f403a_407.o(RESET)
    __Vectors_End                            0x08000184   Data           0  startup_at32f403a_407.o(RESET)
    __main                                   0x08000185   Thumb Code     8  __main.o(!!!main)
    __scatterload                            0x0800018d   Thumb Code     0  __scatter.o(!!!scatter)
    __scatterload_rt2                        0x0800018d   Thumb Code    44  __scatter.o(!!!scatter)
    __scatterload_rt2_thumb_only             0x0800018d   Thumb Code     0  __scatter.o(!!!scatter)
    __scatterload_null                       0x0800019b   Thumb Code     0  __scatter.o(!!!scatter)
    __decompress                             0x080001c1   Thumb Code    90  __dczerorl2.o(!!dczerorl2)
    __decompress1                            0x080001c1   Thumb Code     0  __dczerorl2.o(!!dczerorl2)
    __scatterload_zeroinit                   0x0800021d   Thumb Code    28  __scatter_zi.o(!!handler_zi)
    __rt_lib_init                            0x08000239   Thumb Code     0  libinit.o(.ARM.Collect$$libinit$$00000000)
    __rt_lib_init_fp_1                       0x0800023b   Thumb Code     0  libinit2.o(.ARM.Collect$$libinit$$00000001)
    __rt_lib_init_alloca_1                   0x0800023f   Thumb Code     0  libinit2.o(.ARM.Collect$$libinit$$0000002E)
    __rt_lib_init_argv_1                     0x0800023f   Thumb Code     0  libinit2.o(.ARM.Collect$$libinit$$0000002C)
    __rt_lib_init_atexit_1                   0x0800023f   Thumb Code     0  libinit2.o(.ARM.Collect$$libinit$$0000001B)
    __rt_lib_init_clock_1                    0x0800023f   Thumb Code     0  libinit2.o(.ARM.Collect$$libinit$$00000021)
    __rt_lib_init_cpp_1                      0x0800023f   Thumb Code     0  libinit2.o(.ARM.Collect$$libinit$$00000032)
    __rt_lib_init_exceptions_1               0x0800023f   Thumb Code     0  libinit2.o(.ARM.Collect$$libinit$$00000030)
    __rt_lib_init_fp_trap_1                  0x0800023f   Thumb Code     0  libinit2.o(.ARM.Collect$$libinit$$0000001F)
    __rt_lib_init_getenv_1                   0x0800023f   Thumb Code     0  libinit2.o(.ARM.Collect$$libinit$$00000023)
    __rt_lib_init_heap_1                     0x0800023f   Thumb Code     0  libinit2.o(.ARM.Collect$$libinit$$0000000A)
    __rt_lib_init_lc_collate_1               0x0800023f   Thumb Code     0  libinit2.o(.ARM.Collect$$libinit$$00000011)
    __rt_lib_init_lc_ctype_1                 0x0800023f   Thumb Code     0  libinit2.o(.ARM.Collect$$libinit$$00000013)
    __rt_lib_init_lc_monetary_1              0x0800023f   Thumb Code     0  libinit2.o(.ARM.Collect$$libinit$$00000015)
    __rt_lib_init_lc_numeric_1               0x0800023f   Thumb Code     0  libinit2.o(.ARM.Collect$$libinit$$00000017)
    __rt_lib_init_lc_time_1                  0x0800023f   Thumb Code     0  libinit2.o(.ARM.Collect$$libinit$$00000019)
    __rt_lib_init_preinit_1                  0x0800023f   Thumb Code     0  libinit2.o(.ARM.Collect$$libinit$$00000004)
    __rt_lib_init_rand_1                     0x0800023f   Thumb Code     0  libinit2.o(.ARM.Collect$$libinit$$0000000E)
    __rt_lib_init_return                     0x0800023f   Thumb Code     0  libinit2.o(.ARM.Collect$$libinit$$00000033)
    __rt_lib_init_signal_1                   0x0800023f   Thumb Code     0  libinit2.o(.ARM.Collect$$libinit$$0000001D)
    __rt_lib_init_stdio_1                    0x0800023f   Thumb Code     0  libinit2.o(.ARM.Collect$$libinit$$00000025)
    __rt_lib_init_user_alloc_1               0x0800023f   Thumb Code     0  libinit2.o(.ARM.Collect$$libinit$$0000000C)
    __rt_lib_shutdown                        0x08000241   Thumb Code     0  libshutdown.o(.ARM.Collect$$libshutdown$$00000000)
    __rt_lib_shutdown_cpp_1                  0x08000243   Thumb Code     0  libshutdown2.o(.ARM.Collect$$libshutdown$$00000002)
    __rt_lib_shutdown_fp_trap_1              0x08000243   Thumb Code     0  libshutdown2.o(.ARM.Collect$$libshutdown$$00000007)
    __rt_lib_shutdown_heap_1                 0x08000243   Thumb Code     0  libshutdown2.o(.ARM.Collect$$libshutdown$$0000000F)
    __rt_lib_shutdown_return                 0x08000243   Thumb Code     0  libshutdown2.o(.ARM.Collect$$libshutdown$$00000010)
    __rt_lib_shutdown_signal_1               0x08000243   Thumb Code     0  libshutdown2.o(.ARM.Collect$$libshutdown$$0000000A)
    __rt_lib_shutdown_stdio_1                0x08000243   Thumb Code     0  libshutdown2.o(.ARM.Collect$$libshutdown$$00000004)
    __rt_lib_shutdown_user_alloc_1           0x08000243   Thumb Code     0  libshutdown2.o(.ARM.Collect$$libshutdown$$0000000C)
    __rt_entry                               0x08000245   Thumb Code     0  __rtentry.o(.ARM.Collect$$rtentry$$00000000)
    __rt_entry_presh_1                       0x08000245   Thumb Code     0  __rtentry2.o(.ARM.Collect$$rtentry$$00000002)
    __rt_entry_sh                            0x08000245   Thumb Code     0  __rtentry4.o(.ARM.Collect$$rtentry$$00000004)
    __rt_entry_li                            0x0800024b   Thumb Code     0  __rtentry2.o(.ARM.Collect$$rtentry$$0000000A)
    __rt_entry_postsh_1                      0x0800024b   Thumb Code     0  __rtentry2.o(.ARM.Collect$$rtentry$$00000009)
    __rt_entry_main                          0x0800024f   Thumb Code     0  __rtentry2.o(.ARM.Collect$$rtentry$$0000000D)
    __rt_entry_postli_1                      0x0800024f   Thumb Code     0  __rtentry2.o(.ARM.Collect$$rtentry$$0000000C)
    __rt_exit                                0x08000257   Thumb Code     0  rtexit.o(.ARM.Collect$$rtexit$$00000000)
    __rt_exit_ls                             0x08000259   Thumb Code     0  rtexit2.o(.ARM.Collect$$rtexit$$00000003)
    __rt_exit_prels_1                        0x08000259   Thumb Code     0  rtexit2.o(.ARM.Collect$$rtexit$$00000002)
    __rt_exit_exit                           0x0800025d   Thumb Code     0  rtexit2.o(.ARM.Collect$$rtexit$$00000004)
    Reset_Handler                            0x08000265   Thumb Code     8  startup_at32f403a_407.o(.text)
    ACC_IRQHandler                           0x0800027f   Thumb Code     0  startup_at32f403a_407.o(.text)
    ADC3_IRQHandler                          0x0800027f   Thumb Code     0  startup_at32f403a_407.o(.text)
    CAN1_RX1_IRQHandler                      0x0800027f   Thumb Code     0  startup_at32f403a_407.o(.text)
    CAN1_SE_IRQHandler                       0x0800027f   Thumb Code     0  startup_at32f403a_407.o(.text)
    CAN2_RX0_IRQHandler                      0x0800027f   Thumb Code     0  startup_at32f403a_407.o(.text)
    CAN2_RX1_IRQHandler                      0x0800027f   Thumb Code     0  startup_at32f403a_407.o(.text)
    CAN2_SE_IRQHandler                       0x0800027f   Thumb Code     0  startup_at32f403a_407.o(.text)
    CAN2_TX_IRQHandler                       0x0800027f   Thumb Code     0  startup_at32f403a_407.o(.text)
    CRM_IRQHandler                           0x0800027f   Thumb Code     0  startup_at32f403a_407.o(.text)
    DMA1_Channel1_IRQHandler                 0x0800027f   Thumb Code     0  startup_at32f403a_407.o(.text)
    DMA1_Channel2_IRQHandler                 0x0800027f   Thumb Code     0  startup_at32f403a_407.o(.text)
    DMA1_Channel4_IRQHandler                 0x0800027f   Thumb Code     0  startup_at32f403a_407.o(.text)
    DMA1_Channel5_IRQHandler                 0x0800027f   Thumb Code     0  startup_at32f403a_407.o(.text)
    DMA1_Channel6_IRQHandler                 0x0800027f   Thumb Code     0  startup_at32f403a_407.o(.text)
    DMA1_Channel7_IRQHandler                 0x0800027f   Thumb Code     0  startup_at32f403a_407.o(.text)
    DMA2_Channel1_IRQHandler                 0x0800027f   Thumb Code     0  startup_at32f403a_407.o(.text)
    DMA2_Channel3_IRQHandler                 0x0800027f   Thumb Code     0  startup_at32f403a_407.o(.text)
    DMA2_Channel4_5_IRQHandler               0x0800027f   Thumb Code     0  startup_at32f403a_407.o(.text)
    EMAC_IRQHandler                          0x0800027f   Thumb Code     0  startup_at32f403a_407.o(.text)
    EMAC_WKUP_IRQHandler                     0x0800027f   Thumb Code     0  startup_at32f403a_407.o(.text)
    EXINT0_IRQHandler                        0x0800027f   Thumb Code     0  startup_at32f403a_407.o(.text)
    EXINT15_10_IRQHandler                    0x0800027f   Thumb Code     0  startup_at32f403a_407.o(.text)
    EXINT1_IRQHandler                        0x0800027f   Thumb Code     0  startup_at32f403a_407.o(.text)
    EXINT2_IRQHandler                        0x0800027f   Thumb Code     0  startup_at32f403a_407.o(.text)
    EXINT3_IRQHandler                        0x0800027f   Thumb Code     0  startup_at32f403a_407.o(.text)
    EXINT4_IRQHandler                        0x0800027f   Thumb Code     0  startup_at32f403a_407.o(.text)
    EXINT9_5_IRQHandler                      0x0800027f   Thumb Code     0  startup_at32f403a_407.o(.text)
    FLASH_IRQHandler                         0x0800027f   Thumb Code     0  startup_at32f403a_407.o(.text)
    I2C1_ERR_IRQHandler                      0x0800027f   Thumb Code     0  startup_at32f403a_407.o(.text)
    I2C1_EVT_IRQHandler                      0x0800027f   Thumb Code     0  startup_at32f403a_407.o(.text)
    I2C2_ERR_IRQHandler                      0x0800027f   Thumb Code     0  startup_at32f403a_407.o(.text)
    I2C2_EVT_IRQHandler                      0x0800027f   Thumb Code     0  startup_at32f403a_407.o(.text)
    I2C3_ERR_IRQHandler                      0x0800027f   Thumb Code     0  startup_at32f403a_407.o(.text)
    I2C3_EVT_IRQHandler                      0x0800027f   Thumb Code     0  startup_at32f403a_407.o(.text)
    PVM_IRQHandler                           0x0800027f   Thumb Code     0  startup_at32f403a_407.o(.text)
    RTCAlarm_IRQHandler                      0x0800027f   Thumb Code     0  startup_at32f403a_407.o(.text)
    RTC_IRQHandler                           0x0800027f   Thumb Code     0  startup_at32f403a_407.o(.text)
    SDIO1_IRQHandler                         0x0800027f   Thumb Code     0  startup_at32f403a_407.o(.text)
    SDIO2_IRQHandler                         0x0800027f   Thumb Code     0  startup_at32f403a_407.o(.text)
    SPI1_IRQHandler                          0x0800027f   Thumb Code     0  startup_at32f403a_407.o(.text)
    SPI2_I2S2EXT_IRQHandler                  0x0800027f   Thumb Code     0  startup_at32f403a_407.o(.text)
    SPI3_I2S3EXT_IRQHandler                  0x0800027f   Thumb Code     0  startup_at32f403a_407.o(.text)
    SPI4_IRQHandler                          0x0800027f   Thumb Code     0  startup_at32f403a_407.o(.text)
    TAMPER_IRQHandler                        0x0800027f   Thumb Code     0  startup_at32f403a_407.o(.text)
    TMR1_BRK_TMR9_IRQHandler                 0x0800027f   Thumb Code     0  startup_at32f403a_407.o(.text)
    TMR1_CH_IRQHandler                       0x0800027f   Thumb Code     0  startup_at32f403a_407.o(.text)
    TMR1_OVF_TMR10_IRQHandler                0x0800027f   Thumb Code     0  startup_at32f403a_407.o(.text)
    TMR2_GLOBAL_IRQHandler                   0x0800027f   Thumb Code     0  startup_at32f403a_407.o(.text)
    TMR3_GLOBAL_IRQHandler                   0x0800027f   Thumb Code     0  startup_at32f403a_407.o(.text)
    TMR4_GLOBAL_IRQHandler                   0x0800027f   Thumb Code     0  startup_at32f403a_407.o(.text)
    TMR5_GLOBAL_IRQHandler                   0x0800027f   Thumb Code     0  startup_at32f403a_407.o(.text)
    TMR6_GLOBAL_IRQHandler                   0x0800027f   Thumb Code     0  startup_at32f403a_407.o(.text)
    TMR8_BRK_TMR12_IRQHandler                0x0800027f   Thumb Code     0  startup_at32f403a_407.o(.text)
    TMR8_CH_IRQHandler                       0x0800027f   Thumb Code     0  startup_at32f403a_407.o(.text)
    TMR8_OVF_TMR13_IRQHandler                0x0800027f   Thumb Code     0  startup_at32f403a_407.o(.text)
    TMR8_TRG_HALL_TMR14_IRQHandler           0x0800027f   Thumb Code     0  startup_at32f403a_407.o(.text)
    UART5_IRQHandler                         0x0800027f   Thumb Code     0  startup_at32f403a_407.o(.text)
    UART7_IRQHandler                         0x0800027f   Thumb Code     0  startup_at32f403a_407.o(.text)
    UART8_IRQHandler                         0x0800027f   Thumb Code     0  startup_at32f403a_407.o(.text)
    USART6_IRQHandler                        0x0800027f   Thumb Code     0  startup_at32f403a_407.o(.text)
    USBFSWakeUp_IRQHandler                   0x0800027f   Thumb Code     0  startup_at32f403a_407.o(.text)
    USBFS_H_CAN1_TX_IRQHandler               0x0800027f   Thumb Code     0  startup_at32f403a_407.o(.text)
    USBFS_MAPH_IRQHandler                    0x0800027f   Thumb Code     0  startup_at32f403a_407.o(.text)
    USBFS_MAPL_IRQHandler                    0x0800027f   Thumb Code     0  startup_at32f403a_407.o(.text)
    WWDT_IRQHandler                          0x0800027f   Thumb Code     0  startup_at32f403a_407.o(.text)
    XMC_IRQHandler                           0x0800027f   Thumb Code     0  startup_at32f403a_407.o(.text)
    __user_initial_stackheap                 0x08000281   Thumb Code     0  startup_at32f403a_407.o(.text)
    __use_no_semihosting                     0x080002a5   Thumb Code     2  use_no_semi_2.o(.text)
    __2printf                                0x080002a9   Thumb Code    20  noretval__2printf.o(.text)
    __aeabi_memcpy                           0x080002c1   Thumb Code     0  rt_memcpy_v6.o(.text)
    __rt_memcpy                              0x080002c1   Thumb Code   138  rt_memcpy_v6.o(.text)
    _memcpy_lastbytes                        0x08000327   Thumb Code     0  rt_memcpy_v6.o(.text)
    __aeabi_memclr                           0x0800034b   Thumb Code     0  rt_memclr.o(.text)
    __rt_memclr                              0x0800034b   Thumb Code    68  rt_memclr.o(.text)
    _memset                                  0x0800034f   Thumb Code     0  rt_memclr.o(.text)
    __aeabi_memclr4                          0x0800038f   Thumb Code     0  rt_memclr_w.o(.text)
    __aeabi_memclr8                          0x0800038f   Thumb Code     0  rt_memclr_w.o(.text)
    __rt_memclr_w                            0x0800038f   Thumb Code    78  rt_memclr_w.o(.text)
    _memset_w                                0x08000393   Thumb Code     0  rt_memclr_w.o(.text)
    __use_two_region_memory                  0x080003dd   Thumb Code     2  heapauxi.o(.text)
    __rt_heap_escrow$2region                 0x080003df   Thumb Code     2  heapauxi.o(.text)
    __rt_heap_expand$2region                 0x080003e1   Thumb Code     2  heapauxi.o(.text)
    __I$use$semihosting                      0x080003e3   Thumb Code     0  use_no_semi.o(.text)
    __use_no_semihosting_swi                 0x080003e3   Thumb Code     2  use_no_semi.o(.text)
    __read_errno                             0x080003e5   Thumb Code    10  _rserrno.o(.text)
    __set_errno                              0x080003ef   Thumb Code    12  _rserrno.o(.text)
    _printf_char_file                        0x080003fd   Thumb Code    32  _printf_char_file.o(.text)
    __aeabi_memcpy4                          0x08000421   Thumb Code     0  rt_memcpy_w.o(.text)
    __aeabi_memcpy8                          0x08000421   Thumb Code     0  rt_memcpy_w.o(.text)
    __rt_memcpy_w                            0x08000421   Thumb Code   100  rt_memcpy_w.o(.text)
    _memcpy_lastbytes_aligned                0x08000469   Thumb Code     0  rt_memcpy_w.o(.text)
    __aeabi_errno_addr                       0x08000485   Thumb Code     8  rt_errno_addr_intlibspace.o(.text)
    __errno$intlibspace                      0x08000485   Thumb Code     0  rt_errno_addr_intlibspace.o(.text)
    __rt_errno_addr$intlibspace              0x08000485   Thumb Code     0  rt_errno_addr_intlibspace.o(.text)
    _printf_char_common                      0x08000497   Thumb Code    32  _printf_char_common.o(.text)
    ferror                                   0x080004bd   Thumb Code     8  ferror.o(.text)
    __user_libspace                          0x080004c5   Thumb Code     8  libspace.o(.text)
    __user_perproc_libspace                  0x080004c5   Thumb Code     0  libspace.o(.text)
    __user_perthread_libspace                0x080004c5   Thumb Code     0  libspace.o(.text)
    __user_setup_stackheap                   0x080004cd   Thumb Code    74  sys_stackheap_outer.o(.text)
    __printf                                 0x08000517   Thumb Code    40  __printf_nopercent.o(.text)
    exit                                     0x0800053f   Thumb Code    18  exit.o(.text)
    ADC1_2_IRQHandler                        0x08000551   Thumb Code    60  adc.o(i.ADC1_2_IRQHandler)
    ADC_Config                               0x08000595   Thumb Code    12  adc.o(i.ADC_Config)
    Auto_Cali                                0x080005a1   Thumb Code   496  calibration.o(i.Auto_Cali)
    Auto_Cali_End                            0x080007c9   Thumb Code   162  debug.o(i.Auto_Cali_End)
    B_LED                                    0x0800095d   Thumb Code   430  led.o(i.B_LED)
    BusFault_Handler                         0x08000b15   Thumb Code     4  at32f403a_407_int.o(i.BusFault_Handler)
    Car_Cali                                 0x08000b19   Thumb Code   674  calibration.o(i.Car_Cali)
    Check_Encoder                            0x08000e05   Thumb Code   306  encoder.o(i.Check_Encoder)
    Clarke_Park_Ipark                        0x08000f59   Thumb Code   246  at32f403a_foc_lib.o(i.Clarke_Park_Ipark)
    ConventionalADC_Init                     0x0800105d   Thumb Code    24  adc.o(i.ConventionalADC_Init)
    DMA1_Channel3_IRQHandler                 0x08001079   Thumb Code    36  ws2812.o(i.DMA1_Channel3_IRQHandler)
    DMA2_Channel2_IRQHandler                 0x080010a5   Thumb Code    24  usart.o(i.DMA2_Channel2_IRQHandler)
    DMA2_Channel6_7_IRQHandler               0x080010c5   Thumb Code    54  usart.o(i.DMA2_Channel6_7_IRQHandler)
    DebugMon_Handler                         0x08001105   Thumb Code     2  at32f403a_407_int.o(i.DebugMon_Handler)
    Dma_rx1                                  0x08001109   Thumb Code   110  usart.o(i.Dma_rx1)
    Dma_rx2                                  0x08001189   Thumb Code   110  usart.o(i.Dma_rx2)
    Dma_rx3                                  0x08001209   Thumb Code   110  usart.o(i.Dma_rx3)
    Dma_rx4                                  0x08001289   Thumb Code   110  usart.o(i.Dma_rx4)
    Dma_tx1                                  0x08001309   Thumb Code   128  usart.o(i.Dma_tx1)
    Dma_tx3                                  0x08001399   Thumb Code   128  usart.o(i.Dma_tx3)
    Dma_tx4                                  0x08001429   Thumb Code   128  usart.o(i.Dma_tx4)
    G_LED                                    0x080014b9   Thumb Code   430  led.o(i.G_LED)
    Get_InputVolt                            0x08001671   Thumb Code   152  adc.o(i.Get_InputVolt)
    Get_mpu6500                              0x08001725   Thumb Code    52  mpu6500.o(i.Get_mpu6500)
    Gpio_config                              0x0800175d   Thumb Code   118  gpio_config.o(i.Gpio_config)
    Gyro_Cali                                0x080017e1   Thumb Code    36  calibration.o(i.Gyro_Cali)
    HardFault_Handler                        0x08001809   Thumb Code     4  at32f403a_407_int.o(i.HardFault_Handler)
    Hardware_Tips                            0x0800180d   Thumb Code   410  debug.o(i.Hardware_Tips)
    IMU_Init                                 0x08001a39   Thumb Code   168  mpu6500.o(i.IMU_Init)
    IMU_Read_Reg                             0x08001ae9   Thumb Code    44  mpu6500.o(i.IMU_Read_Reg)
    IMU_Write_Reg                            0x08001b19   Thumb Code    44  mpu6500.o(i.IMU_Write_Reg)
    IMU_handle                               0x08001b49   Thumb Code  1228  ahrs.o(i.IMU_handle)
    Key_Init                                 0x08002031   Thumb Code    64  key.o(i.Key_Init)
    Key_Scan                                 0x08002079   Thumb Code   228  key.o(i.Key_Scan)
    LED_Init                                 0x08002181   Thumb Code    66  led.o(i.LED_Init)
    M1Current_ClosedLoop                     0x080021cd   Thumb Code    70  control.o(i.M1Current_ClosedLoop)
    M1SpeedControl                           0x08002225   Thumb Code    58  control.o(i.M1SpeedControl)
    M1_Check                                 0x08002271   Thumb Code   294  control.o(i.M1_Check)
    M1_Control                               0x080023b9   Thumb Code   256  control.o(i.M1_Control)
    M1_FOC_handle                            0x080024e9   Thumb Code  1252  at32f403a_foc_lib.o(i.M1_FOC_handle)
    M2Current_ClosedLoop                     0x080029e1   Thumb Code    70  control.o(i.M2Current_ClosedLoop)
    M2SpeedControl                           0x08002a39   Thumb Code    58  control.o(i.M2SpeedControl)
    M2_Check                                 0x08002a85   Thumb Code   296  control.o(i.M2_Check)
    M2_Control                               0x08002bcd   Thumb Code   252  control.o(i.M2_Control)
    M2_FOC_handle                            0x08002cf9   Thumb Code  1240  at32f403a_foc_lib.o(i.M2_FOC_handle)
    MA732_Init                               0x080031e5   Thumb Code   314  encoder.o(i.MA732_Init)
    MA732_Read_Reg                           0x08003341   Thumb Code   158  encoder.o(i.MA732_Read_Reg)
    MA732_Write_Reg                          0x080033e5   Thumb Code   158  encoder.o(i.MA732_Write_Reg)
    MT6701_Init                              0x08003489   Thumb Code   150  encoder.o(i.MT6701_Init)
    MemManage_Handler                        0x0800352d   Thumb Code     4  at32f403a_407_int.o(i.MemManage_Handler)
    MotorControl                             0x08003531   Thumb Code  1142  control.o(i.MotorControl)
    NMI_Handler                              0x080039b5   Thumb Code     2  at32f403a_407_int.o(i.NMI_Handler)
    PID_Adjust                               0x080039b7   Thumb Code   216  control.o(i.PID_Adjust)
    PID_Adjust_S                             0x08003a91   Thumb Code   310  at32f403a_foc_lib.o(i.PID_Adjust_S)
    PID_Adjust_T                             0x08003bd5   Thumb Code   282  control.o(i.PID_Adjust_T)
    PendSV_Handler                           0x08003cef   Thumb Code     2  at32f403a_407_int.o(i.PendSV_Handler)
    Peripherals_Init                         0x08003cf1   Thumb Code  1284  app.o(i.Peripherals_Init)
    R_LED                                    0x08004201   Thumb Code   430  led.o(i.R_LED)
    RcData                                   0x080043b9   Thumb Code  3310  rcdata.o(i.RcData)
    ReadW25Qxx_ID                            0x080050b1   Thumb Code    68  w25q64.o(i.ReadW25Qxx_ID)
    Read_Cali_Data                           0x080050f9   Thumb Code   244  calibration.o(i.Read_Cali_Data)
    Read_M1_Encoder                          0x08005209   Thumb Code   192  encoder.o(i.Read_M1_Encoder)
    Read_M2_Encoder                          0x080052d5   Thumb Code   192  encoder.o(i.Read_M2_Encoder)
    SPI1_ReadWriteByte                       0x080053a1   Thumb Code    72  encoder.o(i.SPI1_ReadWriteByte)
    SPI1_ReadWriteHalfword                   0x080053ed   Thumb Code    72  encoder.o(i.SPI1_ReadWriteHalfword)
    SPI3_Init                                0x08005439   Thumb Code   212  mpu6500.o(i.SPI3_Init)
    SVC_Handler                              0x080055c9   Thumb Code     2  at32f403a_407_int.o(i.SVC_Handler)
    SpeedCompute                             0x080055cd   Thumb Code   174  control.o(i.SpeedCompute)
    Start_Auto_Cali                          0x08005689   Thumb Code    48  debug.o(i.Start_Auto_Cali)
    Start_Check_Hardware                     0x080056f9   Thumb Code    48  debug.o(i.Start_Check_Hardware)
    Start_Music1                             0x0800576d   Thumb Code  1256  at32f403a_foc_lib.o(i.Start_Music1)
    Start_Music8                             0x08005c7d   Thumb Code  1240  at32f403a_foc_lib.o(i.Start_Music8)
    SysTick_Handler                          0x08006175   Thumb Code     2  at32f403a_407_int.o(i.SysTick_Handler)
    SystemInit                               0x08006179   Thumb Code   100  system_at32f403a_407.o(i.SystemInit)
    TIM10_Init                               0x080061e9   Thumb Code   176  timer.o(i.TIM10_Init)
    TIM1_Init                                0x080062ad   Thumb Code   308  timer.o(i.TIM1_Init)
    TIM7_Init                                0x080063f5   Thumb Code    84  timer.o(i.TIM7_Init)
    TIM8_Init                                0x08006459   Thumb Code   392  timer.o(i.TIM8_Init)
    TLE5012B_Init                            0x080065f9   Thumb Code   226  encoder.o(i.TLE5012B_Init)
    TMR1_TRG_HALL_TMR11_IRQHandler           0x080066f5   Thumb Code    12  timer.o(i.TMR1_TRG_HALL_TMR11_IRQHandler)
    TMR7_GLOBAL_IRQHandler                   0x08006705   Thumb Code    28  timer.o(i.TMR7_GLOBAL_IRQHandler)
    TriggerADC_Init                          0x08006729   Thumb Code   408  adc.o(i.TriggerADC_Init)
    UART1_SendDataDMA                        0x080068d9   Thumb Code    52  usart.o(i.UART1_SendDataDMA)
    UART3_SendDataDMA                        0x08006919   Thumb Code    52  usart.o(i.UART3_SendDataDMA)
    UART4_IRQHandler                         0x08006959   Thumb Code    80  usart.o(i.UART4_IRQHandler)
    USART1_IRQHandler                        0x080069bd   Thumb Code    80  usart.o(i.USART1_IRQHandler)
    USART1_init                              0x08006a21   Thumb Code   188  usart.o(i.USART1_init)
    USART2_IRQHandler                        0x08006aed   Thumb Code    80  usart.o(i.USART2_IRQHandler)
    USART2_init                              0x08006b51   Thumb Code   146  usart.o(i.USART2_init)
    USART3_IRQHandler                        0x08006bfd   Thumb Code    80  usart.o(i.USART3_IRQHandler)
    USART3_init                              0x08006c61   Thumb Code   204  usart.o(i.USART3_init)
    USART4_init                              0x08006d45   Thumb Code   202  usart.o(i.USART4_init)
    USBFS_L_CAN1_RX0_IRQHandler              0x08006e29   Thumb Code    10  usb.o(i.USBFS_L_CAN1_RX0_IRQHandler)
    UsageFault_Handler                       0x08006e39   Thumb Code     4  at32f403a_407_int.o(i.UsageFault_Handler)
    UsartPrint                               0x08006e3d   Thumb Code   276  debug.o(i.UsartPrint)
    W25Qxx_ErasePage                         0x08006f65   Thumb Code    74  w25q64.o(i.W25Qxx_ErasePage)
    W25Qxx_Init                              0x08006fb5   Thumb Code   234  w25q64.o(i.W25Qxx_Init)
    W25Qxx_Read                              0x080070b1   Thumb Code    86  w25q64.o(i.W25Qxx_Read)
    W25Qxx_ReadStatus                        0x0800710d   Thumb Code    38  w25q64.o(i.W25Qxx_ReadStatus)
    W25Qxx_WaitBusy                          0x08007139   Thumb Code    18  w25q64.o(i.W25Qxx_WaitBusy)
    W25Qxx_WriteEnable                       0x0800714d   Thumb Code    26  w25q64.o(i.W25Qxx_WriteEnable)
    W25Qxx_WritePage                         0x0800716d   Thumb Code   102  w25q64.o(i.W25Qxx_WritePage)
    WS2812_init                              0x080071d9   Thumb Code   280  ws2812.o(i.WS2812_init)
    Write_Cali_Data                          0x08007309   Thumb Code    94  calibration.o(i.Write_Cali_Data)
    __ARM_fpclassifyf                        0x08007371   Thumb Code    38  fpclassifyf.o(i.__ARM_fpclassifyf)
    __hardfp_atan2f                          0x08007399   Thumb Code   502  atan2f.o(i.__hardfp_atan2f)
    __hardfp_cosf                            0x080075e9   Thumb Code   280  cosf.o(i.__hardfp_cosf)
    __hardfp_fabs                            0x08007739   Thumb Code    20  fabs.o(i.__hardfp_fabs)
    __hardfp_sinf                            0x0800774d   Thumb Code   344  sinf.o(i.__hardfp_sinf)
    __mathlib_flt_infnan                     0x080078dd   Thumb Code     6  funder.o(i.__mathlib_flt_infnan)
    __mathlib_flt_infnan2                    0x080078e3   Thumb Code     6  funder.o(i.__mathlib_flt_infnan2)
    __mathlib_flt_invalid                    0x080078e9   Thumb Code    10  funder.o(i.__mathlib_flt_invalid)
    __mathlib_flt_underflow                  0x080078f9   Thumb Code    10  funder.o(i.__mathlib_flt_underflow)
    __mathlib_rredf2                         0x08007909   Thumb Code   316  rredf.o(i.__mathlib_rredf2)
    _sys_exit                                0x08007a5d   Thumb Code     4  debug.o(i._sys_exit)
    acc_calibration_mode_enable              0x08007a61   Thumb Code    44  at32f403a_407_acc.o(i.acc_calibration_mode_enable)
    acc_write_c1                             0x08007a91   Thumb Code     6  at32f403a_407_acc.o(i.acc_write_c1)
    acc_write_c2                             0x08007a9d   Thumb Code     6  at32f403a_407_acc.o(i.acc_write_c2)
    acc_write_c3                             0x08007aa9   Thumb Code     6  at32f403a_407_acc.o(i.acc_write_c3)
    adc_base_config                          0x08007ab5   Thumb Code    44  at32f403a_407_adc.o(i.adc_base_config)
    adc_base_default_para_init               0x08007ae1   Thumb Code    14  at32f403a_407_adc.o(i.adc_base_default_para_init)
    adc_calibration_init                     0x08007aef   Thumb Code    12  at32f403a_407_adc.o(i.adc_calibration_init)
    adc_calibration_init_status_get          0x08007afb   Thumb Code    18  at32f403a_407_adc.o(i.adc_calibration_init_status_get)
    adc_calibration_start                    0x08007b0d   Thumb Code    12  at32f403a_407_adc.o(i.adc_calibration_start)
    adc_calibration_status_get               0x08007b19   Thumb Code    18  at32f403a_407_adc.o(i.adc_calibration_status_get)
    adc_combine_mode_select                  0x08007b2d   Thumb Code    14  at32f403a_407_adc.o(i.adc_combine_mode_select)
    adc_dma_mode_enable                      0x08007bf1   Thumb Code    10  at32f403a_407_adc.o(i.adc_dma_mode_enable)
    adc_enable                               0x08007bfb   Thumb Code    10  at32f403a_407_adc.o(i.adc_enable)
    adc_flag_clear                           0x08007c05   Thumb Code     6  at32f403a_407_adc.o(i.adc_flag_clear)
    adc_flag_get                             0x08007c0b   Thumb Code    16  at32f403a_407_adc.o(i.adc_flag_get)
    adc_interrupt_enable                     0x08007c1b   Thumb Code    22  at32f403a_407_adc.o(i.adc_interrupt_enable)
    adc_ordinary_channel_set                 0x08007c31   Thumb Code   404  at32f403a_407_adc.o(i.adc_ordinary_channel_set)
    adc_ordinary_conversion_trigger_set      0x08007dc5   Thumb Code    52  at32f403a_407_adc.o(i.adc_ordinary_conversion_trigger_set)
    adc_ordinary_software_trigger_enable     0x08007df9   Thumb Code    10  at32f403a_407_adc.o(i.adc_ordinary_software_trigger_enable)
    adc_preempt_auto_mode_enable             0x08007e03   Thumb Code    10  at32f403a_407_adc.o(i.adc_preempt_auto_mode_enable)
    adc_preempt_channel_length_set           0x08007e0d   Thumb Code    12  at32f403a_407_adc.o(i.adc_preempt_channel_length_set)
    adc_preempt_channel_set                  0x08007e19   Thumb Code   290  at32f403a_407_adc.o(i.adc_preempt_channel_set)
    adc_preempt_conversion_trigger_set       0x08007f3b   Thumb Code    52  at32f403a_407_adc.o(i.adc_preempt_conversion_trigger_set)
    crm_adc_clock_div_set                    0x08008191   Thumb Code    28  at32f403a_407_crm.o(i.crm_adc_clock_div_set)
    crm_ahb_div_set                          0x080081b1   Thumb Code    14  at32f403a_407_crm.o(i.crm_ahb_div_set)
    crm_apb1_div_set                         0x080081c5   Thumb Code    14  at32f403a_407_crm.o(i.crm_apb1_div_set)
    crm_apb2_div_set                         0x080081d9   Thumb Code    14  at32f403a_407_crm.o(i.crm_apb2_div_set)
    crm_auto_step_mode_enable                0x080081ed   Thumb Code    34  at32f403a_407_crm.o(i.crm_auto_step_mode_enable)
    crm_clock_source_enable                  0x08008215   Thumb Code    90  at32f403a_407_crm.o(i.crm_clock_source_enable)
    crm_clocks_freq_get                      0x08008275   Thumb Code   268  at32f403a_407_crm.o(i.crm_clocks_freq_get)
    crm_flag_get                             0x080083a5   Thumb Code    42  at32f403a_407_crm.o(i.crm_flag_get)
    crm_hext_clock_div_set                   0x080083d5   Thumb Code    14  at32f403a_407_crm.o(i.crm_hext_clock_div_set)
    crm_hext_stable_wait                     0x080083e9   Thumb Code    46  at32f403a_407_crm.o(i.crm_hext_stable_wait)
    crm_hick_divider_select                  0x08008419   Thumb Code    14  at32f403a_407_crm.o(i.crm_hick_divider_select)
    crm_hick_sclk_frequency_select           0x0800842d   Thumb Code    24  at32f403a_407_crm.o(i.crm_hick_sclk_frequency_select)
    crm_periph_clock_enable                  0x08008449   Thumb Code    62  at32f403a_407_crm.o(i.crm_periph_clock_enable)
    crm_pll_config                           0x0800848d   Thumb Code   118  at32f403a_407_crm.o(i.crm_pll_config)
    crm_reset                                0x08008509   Thumb Code    80  at32f403a_407_crm.o(i.crm_reset)
    crm_sysclk_switch                        0x08008561   Thumb Code    14  at32f403a_407_crm.o(i.crm_sysclk_switch)
    crm_sysclk_switch_status_get             0x08008575   Thumb Code    10  at32f403a_407_crm.o(i.crm_sysclk_switch_status_get)
    crm_usb_clock_source_select              0x08008585   Thumb Code    26  at32f403a_407_crm.o(i.crm_usb_clock_source_select)
    delay_init                               0x080085a5   Thumb Code    40  delay.o(i.delay_init)
    delay_ms                                 0x080085d5   Thumb Code    56  delay.o(i.delay_ms)
    dma_channel_enable                       0x08008611   Thumb Code    10  at32f403a_407_dma.o(i.dma_channel_enable)
    dma_data_number_get                      0x08008699   Thumb Code     8  at32f403a_407_dma.o(i.dma_data_number_get)
    dma_data_number_set                      0x080086a1   Thumb Code     4  at32f403a_407_dma.o(i.dma_data_number_set)
    dma_default_para_init                    0x080086a5   Thumb Code    24  at32f403a_407_dma.o(i.dma_default_para_init)
    dma_flag_clear                           0x080086bd   Thumb Code    22  at32f403a_407_dma.o(i.dma_flag_clear)
    dma_flag_get                             0x080086dd   Thumb Code    36  at32f403a_407_dma.o(i.dma_flag_get)
    dma_flexible_config                      0x08008709   Thumb Code   152  at32f403a_407_dma.o(i.dma_flexible_config)
    dma_init                                 0x080087a1   Thumb Code    92  at32f403a_407_dma.o(i.dma_init)
    dma_interrupt_enable                     0x080087fd   Thumb Code    18  at32f403a_407_dma.o(i.dma_interrupt_enable)
    dma_reset                                0x08008811   Thumb Code   102  at32f403a_407_dma.o(i.dma_reset)
    fputc                                    0x0800888d   Thumb Code    22  debug.o(i.fputc)
    gpio_bits_reset                          0x080089d9   Thumb Code     4  at32f403a_407_gpio.o(i.gpio_bits_reset)
    gpio_bits_set                            0x080089dd   Thumb Code     4  at32f403a_407_gpio.o(i.gpio_bits_set)
    gpio_default_para_init                   0x08008a0d   Thumb Code    22  at32f403a_407_gpio.o(i.gpio_default_para_init)
    gpio_init                                0x08008a23   Thumb Code   168  at32f403a_407_gpio.o(i.gpio_init)
    gpio_input_data_bit_read                 0x08008acb   Thumb Code    18  at32f403a_407_gpio.o(i.gpio_input_data_bit_read)
    gpio_pin_remap_config                    0x08008add   Thumb Code    70  at32f403a_407_gpio.o(i.gpio_pin_remap_config)
    main                                     0x08008b29   Thumb Code    22  main.o(i.main)
    nvic_irq_enable                          0x08008b41   Thumb Code   190  at32f403a_407_misc.o(i.nvic_irq_enable)
    nvic_priority_group_config               0x08008c09   Thumb Code    32  at32f403a_407_misc.o(i.nvic_priority_group_config)
    parameters_Init                          0x08008c31   Thumb Code  1156  control.o(i.parameters_Init)
    send_Data                                0x080090bd   Thumb Code   222  ws2812.o(i.send_Data)
    spi_default_para_init                    0x080091a5   Thumb Code    22  at32f403a_407_spi.o(i.spi_default_para_init)
    spi_enable                               0x080091bb   Thumb Code    10  at32f403a_407_spi.o(i.spi_enable)
    spi_i2s_flag_get                         0x080091c5   Thumb Code    16  at32f403a_407_spi.o(i.spi_i2s_flag_get)
    spi_init                                 0x080091d5   Thumb Code   292  at32f403a_407_spi.o(i.spi_init)
    svpwm                                    0x080092f9   Thumb Code  1204  at32f403a_foc_lib.o(i.svpwm)
    system_clock_config                      0x080097b5   Thumb Code   112  at32f403a_407_clock.o(i.system_clock_config)
    system_core_clock_update                 0x08009825   Thumb Code   222  system_at32f403a_407.o(i.system_core_clock_update)
    systick_clock_source_config              0x08009921   Thumb Code    40  at32f403a_407_misc.o(i.systick_clock_source_config)
    tmr_base_init                            0x08009949   Thumb Code    16  at32f403a_407_tmr.o(i.tmr_base_init)
    tmr_brkdt_config                         0x08009959   Thumb Code    72  at32f403a_407_tmr.o(i.tmr_brkdt_config)
    tmr_brkdt_default_para_init              0x080099a1   Thumb Code    18  at32f403a_407_tmr.o(i.tmr_brkdt_default_para_init)
    tmr_channel_value_set                    0x080099b3   Thumb Code    40  at32f403a_407_tmr.o(i.tmr_channel_value_set)
    tmr_clock_source_div_set                 0x080099db   Thumb Code    10  at32f403a_407_tmr.o(i.tmr_clock_source_div_set)
    tmr_cnt_dir_set                          0x080099e5   Thumb Code    10  at32f403a_407_tmr.o(i.tmr_cnt_dir_set)
    tmr_counter_enable                       0x080099ef   Thumb Code    10  at32f403a_407_tmr.o(i.tmr_counter_enable)
    tmr_dma_request_enable                   0x080099f9   Thumb Code    22  at32f403a_407_tmr.o(i.tmr_dma_request_enable)
    tmr_flag_clear                           0x08009a0f   Thumb Code     6  at32f403a_407_tmr.o(i.tmr_flag_clear)
    tmr_flag_get                             0x08009a15   Thumb Code    18  at32f403a_407_tmr.o(i.tmr_flag_get)
    tmr_interrupt_enable                     0x08009a27   Thumb Code    22  at32f403a_407_tmr.o(i.tmr_interrupt_enable)
    tmr_output_channel_buffer_enable         0x08009a3d   Thumb Code    66  at32f403a_407_tmr.o(i.tmr_output_channel_buffer_enable)
    tmr_output_channel_config                0x08009a7f   Thumb Code   416  at32f403a_407_tmr.o(i.tmr_output_channel_config)
    tmr_output_default_para_init             0x08009c1f   Thumb Code    18  at32f403a_407_tmr.o(i.tmr_output_default_para_init)
    tmr_output_enable                        0x08009c31   Thumb Code    10  at32f403a_407_tmr.o(i.tmr_output_enable)
    tmr_period_buffer_enable                 0x08009c3b   Thumb Code    10  at32f403a_407_tmr.o(i.tmr_period_buffer_enable)
    usart_dma_receiver_enable                0x08009c45   Thumb Code    10  at32f403a_407_usart.o(i.usart_dma_receiver_enable)
    usart_dma_transmitter_enable             0x08009c4f   Thumb Code    10  at32f403a_407_usart.o(i.usart_dma_transmitter_enable)
    usart_enable                             0x08009c59   Thumb Code    10  at32f403a_407_usart.o(i.usart_enable)
    usart_flag_clear                         0x08009c63   Thumb Code    18  at32f403a_407_usart.o(i.usart_flag_clear)
    usart_flag_get                           0x08009c75   Thumb Code    16  at32f403a_407_usart.o(i.usart_flag_get)
    usart_init                               0x08009c85   Thumb Code   120  at32f403a_407_usart.o(i.usart_init)
    usart_interrupt_enable                   0x08009d0d   Thumb Code    54  at32f403a_407_usart.o(i.usart_interrupt_enable)
    usart_receiver_enable                    0x08009d43   Thumb Code    10  at32f403a_407_usart.o(i.usart_receiver_enable)
    usart_transmitter_enable                 0x08009d4d   Thumb Code    10  at32f403a_407_usart.o(i.usart_transmitter_enable)
    usb_ReadWrite                            0x08009d59   Thumb Code    26  usb.o(i.usb_ReadWrite)
    usb_buffer_free                          0x08009d81   Thumb Code     8  at32f403a_407_usb.o(i.usb_buffer_free)
    usb_clock48m_select                      0x08009d8d   Thumb Code    50  usb.o(i.usb_clock48m_select)
    usb_connect                              0x08009dc5   Thumb Code    18  at32f403a_407_usb.o(i.usb_connect)
    usb_dev_init                             0x08009dd7   Thumb Code    36  at32f403a_407_usb.o(i.usb_dev_init)
    usb_enter_suspend                        0x08009dfb   Thumb Code    22  at32f403a_407_usb.o(i.usb_enter_suspend)
    usb_ept_close                            0x08009e11   Thumb Code   568  at32f403a_407_usb.o(i.usb_ept_close)
    usb_ept_open                             0x0800a04d   Thumb Code  1300  at32f403a_407_usb.o(i.usb_ept_open)
    usb_exit_suspend                         0x0800a565   Thumb Code    18  at32f403a_407_usb.o(i.usb_exit_suspend)
    usb_flag_clear                           0x0800a577   Thumb Code     6  at32f403a_407_usb.o(i.usb_flag_clear)
    usb_init                                 0x0800a57d   Thumb Code    48  usb.o(i.usb_init)
    usb_interrupt_enable                     0x0800a5c1   Thumb Code    20  at32f403a_407_usb.o(i.usb_interrupt_enable)
    usb_read_packet                          0x0800a5d5   Thumb Code    40  at32f403a_407_usb.o(i.usb_read_packet)
    usb_set_address                          0x0800a601   Thumb Code    20  at32f403a_407_usb.o(i.usb_set_address)
    usb_vcp_get_rxdata                       0x0800a689   Thumb Code    80  cdc_class.o(i.usb_vcp_get_rxdata)
    usb_vcp_send_data                        0x0800a6d9   Thumb Code    58  cdc_class.o(i.usb_vcp_send_data)
    usb_write_packet                         0x0800a715   Thumb Code    40  at32f403a_407_usb.o(i.usb_write_packet)
    usbd_clear_stall                         0x0800a795   Thumb Code   140  usbd_core.o(i.usbd_clear_stall)
    usbd_connect                             0x0800a825   Thumb Code    12  usbd_core.o(i.usbd_connect)
    usbd_core_in_handler                     0x0800a831   Thumb Code   186  usbd_core.o(i.usbd_core_in_handler)
    usbd_core_init                           0x0800a8eb   Thumb Code    44  usbd_core.o(i.usbd_core_init)
    usbd_core_out_handler                    0x0800a917   Thumb Code   120  usbd_core.o(i.usbd_core_out_handler)
    usbd_core_setup_handler                  0x0800a98f   Thumb Code    84  usbd_core.o(i.usbd_core_setup_handler)
    usbd_ctrl_recv                           0x0800a9e3   Thumb Code    36  usbd_core.o(i.usbd_ctrl_recv)
    usbd_ctrl_recv_status                    0x0800aa07   Thumb Code    24  usbd_core.o(i.usbd_ctrl_recv_status)
    usbd_ctrl_send                           0x0800aa1f   Thumb Code    40  usbd_core.o(i.usbd_ctrl_send)
    usbd_ctrl_send_status                    0x0800aa47   Thumb Code    24  usbd_core.o(i.usbd_ctrl_send_status)
    usbd_ctrl_unsupport                      0x0800aa5f   Thumb Code    22  usbd_core.o(i.usbd_ctrl_unsupport)
    usbd_device_request                      0x0800aa75   Thumb Code   128  usbd_sdr.o(i.usbd_device_request)
    usbd_endpoint_request                    0x0800aaf5   Thumb Code   382  usbd_sdr.o(i.usbd_endpoint_request)
    usbd_enter_suspend                       0x0800ac73   Thumb Code    12  usbd_core.o(i.usbd_enter_suspend)
    usbd_ept_buf_custom_define               0x0800ac7f   Thumb Code    68  usbd_core.o(i.usbd_ept_buf_custom_define)
    usbd_ept_close                           0x0800acc3   Thumb Code    48  usbd_core.o(i.usbd_ept_close)
    usbd_ept_defaut_init                     0x0800acf3   Thumb Code   196  usbd_core.o(i.usbd_ept_defaut_init)
    usbd_ept_loop_handler                    0x0800adb7   Thumb Code    38  usbd_int.o(i.usbd_ept_loop_handler)
    usbd_ept_open                            0x0800addd   Thumb Code    82  usbd_core.o(i.usbd_ept_open)
    usbd_ept_recv                            0x0800ae31   Thumb Code   112  usbd_core.o(i.usbd_ept_recv)
    usbd_ept_send                            0x0800aea5   Thumb Code   276  usbd_core.o(i.usbd_ept_send)
    usbd_eptn_handler                        0x0800afc5   Thumb Code   462  usbd_int.o(i.usbd_eptn_handler)
    usbd_get_recv_len                        0x0800b2e9   Thumb Code    20  usbd_core.o(i.usbd_get_recv_len)
    usbd_interface_request                   0x0800b37f   Thumb Code    74  usbd_sdr.o(i.usbd_interface_request)
    usbd_irq_handler                         0x0800b3c9   Thumb Code   156  usbd_int.o(i.usbd_irq_handler)
    usbd_reset_handler                       0x0800b465   Thumb Code    90  usbd_int.o(i.usbd_reset_handler)
    usbd_set_stall                           0x0800b605   Thumb Code   132  usbd_core.o(i.usbd_set_stall)
    usbd_setup_request_parse                 0x0800b68d   Thumb Code    40  usbd_sdr.o(i.usbd_setup_request_parse)
    usbd_sof_handler                         0x0800b6b5   Thumb Code    20  usbd_int.o(i.usbd_sof_handler)
    usbd_suspend_handler                     0x0800b6c9   Thumb Code    42  usbd_int.o(i.usbd_suspend_handler)
    usbd_wakeup_handler                      0x0800b72f   Thumb Code    36  usbd_int.o(i.usbd_wakeup_handler)
    __fpl_dcmp_Inf                           0x0800b753   Thumb Code    24  dcmpi.o(x$fpl$dcmpinf)
    __aeabi_cdcmple                          0x0800b76d   Thumb Code     0  dleqf.o(x$fpl$dleqf)
    _dcmple                                  0x0800b76d   Thumb Code   120  dleqf.o(x$fpl$dleqf)
    __fpl_dcmple_InfNaN                      0x0800b7cf   Thumb Code     0  dleqf.o(x$fpl$dleqf)
    __fpl_dnaninf                            0x0800b7e5   Thumb Code   156  dnaninf.o(x$fpl$dnaninf)
    __fpl_dretinf                            0x0800b881   Thumb Code    12  dretinf.o(x$fpl$dretinf)
    __aeabi_f2d                              0x0800b88d   Thumb Code     0  f2d.o(x$fpl$f2d)
    _f2d                                     0x0800b88d   Thumb Code    86  f2d.o(x$fpl$f2d)
    __fpl_fnaninf                            0x0800b8e3   Thumb Code   140  fnaninf.o(x$fpl$fnaninf)
    _fp_init                                 0x0800b96f   Thumb Code    10  fpinit.o(x$fpl$fpinit)
    __fplib_config_fpu_vfp                   0x0800b977   Thumb Code     0  fpinit.o(x$fpl$fpinit)
    __fplib_config_pureend_doubles           0x0800b977   Thumb Code     0  fpinit.o(x$fpl$fpinit)
    __I$use$fp                               0x0800b978   Number         0  usenofp.o(x$fpl$usenofp)
    Region$$Table$$Base                      0x0800bed0   Number         0  anon$$obj.o(Region$$Table)
    Region$$Table$$Limit                     0x0800bef0   Number         0  anon$$obj.o(Region$$Table)
    system_core_clock                        0x20000000   Data           4  system_at32f403a_407.o(.data)
    g_usb_packet_address                     0x20000004   Data           4  at32f403a_407_usb.o(.data)
    R_cnt                                    0x2000000a   Data           2  led.o(.data)
    G_cnt                                    0x2000000c   Data           2  led.o(.data)
    B_cnt                                    0x2000000e   Data           2  led.o(.data)
    U1_IDLE_Flag                             0x20000010   Data           1  usart.o(.data)
    U2_IDLE_Flag                             0x20000011   Data           1  usart.o(.data)
    U3_IDLE_Flag                             0x20000012   Data           1  usart.o(.data)
    U4_IDLE_Flag                             0x20000013   Data           1  usart.o(.data)
    Tx1_Flag                                 0x20000014   Data           1  usart.o(.data)
    Tx2_Flag                                 0x20000015   Data           1  usart.o(.data)
    Tx3_Flag                                 0x20000016   Data           1  usart.o(.data)
    Tx4_Flag                                 0x20000017   Data           1  usart.o(.data)
    Tips_cnt                                 0x20000018   Data           2  debug.o(.data)
    __stdout                                 0x2000001c   Data           4  debug.o(.data)
    Hardware_Status                          0x20000020   Data           1  debug.o(.data)
    test_cnt                                 0x20000022   Data           2  debug.o(.data)
    TIM_Flag                                 0x20000024   Data           1  timer.o(.data)
    ADC_ConvertedValue                       0x20000026   Data           6  adc.o(.data)
    Encoder_Type                             0x2000002c   Data           1  encoder.o(.data)
    Encoder_Model_0                          0x2000002d   Data           1  encoder.o(.data)
    Encoder_Model_1                          0x2000002e   Data           1  encoder.o(.data)
    Encoder_Model_2                          0x2000002f   Data           1  encoder.o(.data)
    MA732_Map_addr                           0x20000030   Data          11  encoder.o(.data)
    MA732_Map_data                           0x2000003b   Data          11  encoder.o(.data)
    Who_Am_I                                 0x20000046   Data           1  mpu6500.o(.data)
    IMU_flag                                 0x20000047   Data           1  ahrs.o(.data)
    Key1_Count                               0x20000048   Data           2  key.o(.data)
    KeyFlag                                  0x2000004a   Data           1  key.o(.data)
    KeyCnt                                   0x2000004c   Data           2  key.o(.data)
    CarCaliCnt                               0x2000004e   Data           2  key.o(.data)
    Protection                               0x20000050   Data           1  calibration.o(.data)
    Auto_Cali_cnt                            0x20000052   Data           2  calibration.o(.data)
    Auto_Cali_count                          0x20000054   Data           2  calibration.o(.data)
    Auto_Cali_Flag                           0x20000056   Data           1  calibration.o(.data)
    seconds                                  0x20000058   Data           1  app.o(.data)
    RGB_Cnt                                  0x2000005a   Data           2  app.o(.data)
    RGB_Flag                                 0x2000005c   Data           1  app.o(.data)
    LowBattery                               0x2000005d   Data           1  app.o(.data)
    BatteryFlag                              0x2000005e   Data           1  app.o(.data)
    LD1                                      0x2000005f   Data           1  app.o(.data)
    LD2                                      0x20000060   Data           1  app.o(.data)
    LD3                                      0x20000061   Data           1  app.o(.data)
    RGB_LD                                   0x20000064   Data           4  app.o(.data)
    txdata                                   0x20000068   Data           4  app.o(.data)
    Volt16                                   0x2000006c   Data           2  app.o(.data)
    task100ms                                0x2000006e   Data           1  app.o(.data)
    WS2812_SendFlag                          0x2000006f   Data           1  ws2812.o(.data)
    ControlOut_L                             0x20000070   Data           4  control.o(.data)
    ControlOut_R                             0x20000074   Data           4  control.o(.data)
    CarSpeedCnt                              0x20000078   Data           1  control.o(.data)
    testfloat                                0x2000007c   Data           4  control.o(.data)
    M1SpeedCnt                               0x20000080   Data           1  control.o(.data)
    M2SpeedCnt                               0x20000081   Data           1  control.o(.data)
    Set_Speed1                               0x20000084   Data           4  control.o(.data)
    Set_Speed2                               0x20000088   Data           4  control.o(.data)
    M1_Id_cnt                                0x2000008c   Data           1  control.o(.data)
    M2_Id_cnt                                0x2000008d   Data           1  control.o(.data)
    M1_Check_cnt                             0x2000008e   Data           1  control.o(.data)
    M1_Check_flag                            0x2000008f   Data           1  control.o(.data)
    M1_Check_Timeout                         0x20000090   Data           2  control.o(.data)
    M2_Check_cnt                             0x20000092   Data           1  control.o(.data)
    M2_Check_flag                            0x20000093   Data           1  control.o(.data)
    M2_Check_Timeout                         0x20000094   Data           2  control.o(.data)
    CH0                                      0x20000096   Data           2  rcdata.o(.data)
    CH1                                      0x20000098   Data           2  rcdata.o(.data)
    CH2                                      0x2000009a   Data           2  rcdata.o(.data)
    CH3                                      0x2000009c   Data           2  rcdata.o(.data)
    BLE_Cnt                                  0x2000009e   Data           2  rcdata.o(.data)
    Rc_flag                                  0x200000a0   Data           1  rcdata.o(.data)
    linecoding                               0x200000a8   Data           8  cdc_class.o(.data)
    cdc_class_handler                        0x200000b0   Data          40  cdc_class.o(.data)
    cdc_desc_handler                         0x200000d8   Data          40  cdc_desc.o(.data)
    Cubli_Cali_Status                        0x200001a0   Data           1  at32f403a_foc_lib.o(.data)
    M1_CurrOffset                            0x200001a4   Data           8  at32f403a_foc_lib.o(.data)
    M2_CurrOffset                            0x200001ac   Data           8  at32f403a_foc_lib.o(.data)
    M1_ADC_Ib                                0x200001b4   Data           4  at32f403a_foc_lib.o(.data)
    M1_ADC_Ic                                0x200001b8   Data           4  at32f403a_foc_lib.o(.data)
    M2_ADC_Ib                                0x200001bc   Data           4  at32f403a_foc_lib.o(.data)
    M2_ADC_Ic                                0x200001c0   Data           4  at32f403a_foc_lib.o(.data)
    M1_OffsetCnt                             0x200001c4   Data           2  at32f403a_foc_lib.o(.data)
    M2_OffsetCnt                             0x200001c6   Data           2  at32f403a_foc_lib.o(.data)
    M1_IQR_Cnt                               0x200001c8   Data           1  at32f403a_foc_lib.o(.data)
    M2_IQR_Cnt                               0x200001c9   Data           1  at32f403a_foc_lib.o(.data)
    M1_Cali_Cnt                              0x200001ca   Data           2  at32f403a_foc_lib.o(.data)
    M2_Cali_Cnt                              0x200001cc   Data           2  at32f403a_foc_lib.o(.data)
    t1_midi_pr                               0x200001ce   Data           2  at32f403a_foc_lib.o(.data)
    t1_midi_cnt                              0x200001d0   Data           2  at32f403a_foc_lib.o(.data)
    t1_midi_bit                              0x200001d2   Data           2  at32f403a_foc_lib.o(.data)
    t1_midi_flag                             0x200001d4   Data           2  at32f403a_foc_lib.o(.data)
    t8_midi_pr                               0x200001d6   Data           2  at32f403a_foc_lib.o(.data)
    t8_midi_cnt                              0x200001d8   Data           2  at32f403a_foc_lib.o(.data)
    t8_midi_bit                              0x200001da   Data           2  at32f403a_foc_lib.o(.data)
    t8_midi_flag                             0x200001dc   Data           2  at32f403a_foc_lib.o(.data)
    delay1                                   0x200001de   Data           2  at32f403a_foc_lib.o(.data)
    delay2                                   0x200001e0   Data           2  at32f403a_foc_lib.o(.data)
    delay_t                                  0x200001e2   Data           2  at32f403a_foc_lib.o(.data)
    hz1                                      0x200001e4   Data           1  at32f403a_foc_lib.o(.data)
    hz2                                      0x200001e5   Data           1  at32f403a_foc_lib.o(.data)
    hz3                                      0x200001e6   Data           1  at32f403a_foc_lib.o(.data)
    jiange_a                                 0x200001e8   Data           2  at32f403a_foc_lib.o(.data)
    jiange_b                                 0x200001ea   Data           2  at32f403a_foc_lib.o(.data)
    fpq_hz1                                  0x200001ec   Data           4  at32f403a_foc_lib.o(.data)
    fpq_hz2                                  0x200001f0   Data           4  at32f403a_foc_lib.o(.data)
    fpq_dc                                   0x200001f4   Data           4  at32f403a_foc_lib.o(.data)
    Music_flag                               0x200001f8   Data           1  at32f403a_foc_lib.o(.data)
    RC_Speed_flag                            0x200001f9   Data           1  at32f403a_foc_lib.o(.data)
    RC_Speed_cnt                             0x200001fa   Data           2  at32f403a_foc_lib.o(.data)
    Tx1_buffer                               0x200001fc   Data         128  usart.o(.bss)
    Rx1_buffer                               0x2000027c   Data         128  usart.o(.bss)
    Tx2_buffer                               0x200002fc   Data         128  usart.o(.bss)
    Rx2_buffer                               0x2000037c   Data         128  usart.o(.bss)
    Tx3_buffer                               0x200003fc   Data        1024  usart.o(.bss)
    Rx3_buffer                               0x200007fc   Data         128  usart.o(.bss)
    Tx4_buffer                               0x2000087c   Data         128  usart.o(.bss)
    Rx4_buffer                               0x200008fc   Data         128  usart.o(.bss)
    Get_usart1_data                          0x2000097c   Data         128  usart.o(.bss)
    Get_usart2_data                          0x200009fc   Data         128  usart.o(.bss)
    Get_usart3_data                          0x20000a7c   Data         128  usart.o(.bss)
    Get_usart4_data                          0x20000afc   Data         128  usart.o(.bss)
    Print_data                               0x20000b7c   Data          64  debug.o(.bss)
    debug_buff                               0x20000bbc   Data          72  debug.o(.bss)
    Tips_buff                                0x20000c04   Data        1024  debug.o(.bss)
    crm_clocks_freq_struct                   0x20001004   Data          20  timer.o(.bss)
    mpu6500                                  0x20001018   Data         160  ahrs.o(.bss)
    IMU_data                                 0x200010b8   Data          14  ahrs.o(.bss)
    CaliData                                 0x200010c6   Data          46  calibration.o(.bss)
    u8_Cali_Data                             0x200010f4   Data         256  calibration.o(.bss)
    WS2812_Buffer                            0x200011f4   Data         674  ws2812.o(.bss)
    RGB_Data                                 0x20001498   Data          56  ws2812.o(.bss)
    SpeedPID                                 0x200014d0   Data          56  control.o(.bss)
    TurnPID                                  0x20001508   Data          52  control.o(.bss)
    UprightPID                               0x2000153c   Data          52  control.o(.bss)
    GyroAnglePID                             0x20001570   Data          52  control.o(.bss)
    M1SpeedPID                               0x200015a4   Data          52  control.o(.bss)
    M2SpeedPID                               0x200015d8   Data          52  control.o(.bss)
    M1CurrentIdPID                           0x2000160c   Data          52  control.o(.bss)
    M1CurrentIqPID                           0x20001640   Data          52  control.o(.bss)
    M2CurrentIdPID                           0x20001674   Data          52  control.o(.bss)
    M2CurrentIqPID                           0x200016a8   Data          52  control.o(.bss)
    M1_Encoder                               0x200016dc   Data          28  control.o(.bss)
    M2_Encoder                               0x200016f8   Data          28  control.o(.bss)
    Car                                      0x20001714   Data          36  control.o(.bss)
    FaultBit                                 0x20001738   Data          10  control.o(.bss)
    Sbus_values                              0x20001744   Data          24  rcdata.o(.bss)
    Sbus_Data                                0x2000175c   Data          32  rcdata.o(.bss)
    Rc                                       0x2000177c   Data          28  rcdata.o(.bss)
    usb_core_dev                             0x20001798   Data         556  usb.o(.bss)
    usb_rx_buffer                            0x200019c4   Data         256  usb.o(.bss)
    usb_tx_buffer                            0x20001ac4   Data         256  usb.o(.bss)
    cdc_struct                               0x20001bc4   Data          92  cdc_class.o(.bss)
    M1_Foc                                   0x20001d20   Data          72  at32f403a_foc_lib.o(.bss)
    M2_Foc                                   0x20001d68   Data          72  at32f403a_foc_lib.o(.bss)
    A1_Foc                                   0x20001db0   Data          72  at32f403a_foc_lib.o(.bss)
    A2_Foc                                   0x20001df8   Data          72  at32f403a_foc_lib.o(.bss)
    __libspace_start                         0x20001e40   Data          96  libspace.o(.bss)
    __temporary_stack_top$libspace           0x20001ea0   Data           0  libspace.o(.bss)



==============================================================================

Memory Map of the image

  Image Entry point : 0x08000185

  Load Region LR_IROM1 (Base: 0x08000000, Size: 0x0000c0ec, Max: 0x00100000, ABSOLUTE, COMPRESSED[0x0000bfec])

    Execution Region ER_IROM1 (Exec base: 0x08000000, Load base: 0x08000000, Size: 0x0000bef0, Max: 0x00100000, ABSOLUTE)

    Exec Addr    Load Addr    Size         Type   Attr      Idx    E Section Name        Object

    0x08000000   0x08000000   0x00000184   Data   RO          399    RESET               startup_at32f403a_407.o
    0x08000184   0x08000184   0x00000008   Code   RO         4562  * !!!main             c_w.l(__main.o)
    0x0800018c   0x0800018c   0x00000034   Code   RO         4812    !!!scatter          c_w.l(__scatter.o)
    0x080001c0   0x080001c0   0x0000005a   Code   RO         4810    !!dczerorl2         c_w.l(__dczerorl2.o)
    0x0800021a   0x0800021a   0x00000002   PAD
    0x0800021c   0x0800021c   0x0000001c   Code   RO         4814    !!handler_zi        c_w.l(__scatter_zi.o)
    0x08000238   0x08000238   0x00000002   Code   RO         4687    .ARM.Collect$$libinit$$00000000  c_w.l(libinit.o)
    0x0800023a   0x0800023a   0x00000004   Code   RO         4690    .ARM.Collect$$libinit$$00000001  c_w.l(libinit2.o)
    0x0800023e   0x0800023e   0x00000000   Code   RO         4693    .ARM.Collect$$libinit$$00000004  c_w.l(libinit2.o)
    0x0800023e   0x0800023e   0x00000000   Code   RO         4696    .ARM.Collect$$libinit$$0000000A  c_w.l(libinit2.o)
    0x0800023e   0x0800023e   0x00000000   Code   RO         4698    .ARM.Collect$$libinit$$0000000C  c_w.l(libinit2.o)
    0x0800023e   0x0800023e   0x00000000   Code   RO         4700    .ARM.Collect$$libinit$$0000000E  c_w.l(libinit2.o)
    0x0800023e   0x0800023e   0x00000000   Code   RO         4703    .ARM.Collect$$libinit$$00000011  c_w.l(libinit2.o)
    0x0800023e   0x0800023e   0x00000000   Code   RO         4705    .ARM.Collect$$libinit$$00000013  c_w.l(libinit2.o)
    0x0800023e   0x0800023e   0x00000000   Code   RO         4707    .ARM.Collect$$libinit$$00000015  c_w.l(libinit2.o)
    0x0800023e   0x0800023e   0x00000000   Code   RO         4709    .ARM.Collect$$libinit$$00000017  c_w.l(libinit2.o)
    0x0800023e   0x0800023e   0x00000000   Code   RO         4711    .ARM.Collect$$libinit$$00000019  c_w.l(libinit2.o)
    0x0800023e   0x0800023e   0x00000000   Code   RO         4713    .ARM.Collect$$libinit$$0000001B  c_w.l(libinit2.o)
    0x0800023e   0x0800023e   0x00000000   Code   RO         4715    .ARM.Collect$$libinit$$0000001D  c_w.l(libinit2.o)
    0x0800023e   0x0800023e   0x00000000   Code   RO         4717    .ARM.Collect$$libinit$$0000001F  c_w.l(libinit2.o)
    0x0800023e   0x0800023e   0x00000000   Code   RO         4719    .ARM.Collect$$libinit$$00000021  c_w.l(libinit2.o)
    0x0800023e   0x0800023e   0x00000000   Code   RO         4721    .ARM.Collect$$libinit$$00000023  c_w.l(libinit2.o)
    0x0800023e   0x0800023e   0x00000000   Code   RO         4723    .ARM.Collect$$libinit$$00000025  c_w.l(libinit2.o)
    0x0800023e   0x0800023e   0x00000000   Code   RO         4727    .ARM.Collect$$libinit$$0000002C  c_w.l(libinit2.o)
    0x0800023e   0x0800023e   0x00000000   Code   RO         4729    .ARM.Collect$$libinit$$0000002E  c_w.l(libinit2.o)
    0x0800023e   0x0800023e   0x00000000   Code   RO         4731    .ARM.Collect$$libinit$$00000030  c_w.l(libinit2.o)
    0x0800023e   0x0800023e   0x00000000   Code   RO         4733    .ARM.Collect$$libinit$$00000032  c_w.l(libinit2.o)
    0x0800023e   0x0800023e   0x00000002   Code   RO         4734    .ARM.Collect$$libinit$$00000033  c_w.l(libinit2.o)
    0x08000240   0x08000240   0x00000002   Code   RO         4752    .ARM.Collect$$libshutdown$$00000000  c_w.l(libshutdown.o)
    0x08000242   0x08000242   0x00000000   Code   RO         4762    .ARM.Collect$$libshutdown$$00000002  c_w.l(libshutdown2.o)
    0x08000242   0x08000242   0x00000000   Code   RO         4764    .ARM.Collect$$libshutdown$$00000004  c_w.l(libshutdown2.o)
    0x08000242   0x08000242   0x00000000   Code   RO         4767    .ARM.Collect$$libshutdown$$00000007  c_w.l(libshutdown2.o)
    0x08000242   0x08000242   0x00000000   Code   RO         4770    .ARM.Collect$$libshutdown$$0000000A  c_w.l(libshutdown2.o)
    0x08000242   0x08000242   0x00000000   Code   RO         4772    .ARM.Collect$$libshutdown$$0000000C  c_w.l(libshutdown2.o)
    0x08000242   0x08000242   0x00000000   Code   RO         4775    .ARM.Collect$$libshutdown$$0000000F  c_w.l(libshutdown2.o)
    0x08000242   0x08000242   0x00000002   Code   RO         4776    .ARM.Collect$$libshutdown$$00000010  c_w.l(libshutdown2.o)
    0x08000244   0x08000244   0x00000000   Code   RO         4612    .ARM.Collect$$rtentry$$00000000  c_w.l(__rtentry.o)
    0x08000244   0x08000244   0x00000000   Code   RO         4648    .ARM.Collect$$rtentry$$00000002  c_w.l(__rtentry2.o)
    0x08000244   0x08000244   0x00000006   Code   RO         4660    .ARM.Collect$$rtentry$$00000004  c_w.l(__rtentry4.o)
    0x0800024a   0x0800024a   0x00000000   Code   RO         4650    .ARM.Collect$$rtentry$$00000009  c_w.l(__rtentry2.o)
    0x0800024a   0x0800024a   0x00000004   Code   RO         4651    .ARM.Collect$$rtentry$$0000000A  c_w.l(__rtentry2.o)
    0x0800024e   0x0800024e   0x00000000   Code   RO         4653    .ARM.Collect$$rtentry$$0000000C  c_w.l(__rtentry2.o)
    0x0800024e   0x0800024e   0x00000008   Code   RO         4654    .ARM.Collect$$rtentry$$0000000D  c_w.l(__rtentry2.o)
    0x08000256   0x08000256   0x00000002   Code   RO         4688    .ARM.Collect$$rtexit$$00000000  c_w.l(rtexit.o)
    0x08000258   0x08000258   0x00000000   Code   RO         4736    .ARM.Collect$$rtexit$$00000002  c_w.l(rtexit2.o)
    0x08000258   0x08000258   0x00000004   Code   RO         4737    .ARM.Collect$$rtexit$$00000003  c_w.l(rtexit2.o)
    0x0800025c   0x0800025c   0x00000006   Code   RO         4738    .ARM.Collect$$rtexit$$00000004  c_w.l(rtexit2.o)
    0x08000262   0x08000262   0x00000002   PAD
    0x08000264   0x08000264   0x00000040   Code   RO          400    .text               startup_at32f403a_407.o
    0x080002a4   0x080002a4   0x00000002   Code   RO         4548    .text               c_w.l(use_no_semi_2.o)
    0x080002a6   0x080002a6   0x00000002   PAD
    0x080002a8   0x080002a8   0x00000018   Code   RO         4552    .text               c_w.l(noretval__2printf.o)
    0x080002c0   0x080002c0   0x0000008a   Code   RO         4554    .text               c_w.l(rt_memcpy_v6.o)
    0x0800034a   0x0800034a   0x00000044   Code   RO         4556    .text               c_w.l(rt_memclr.o)
    0x0800038e   0x0800038e   0x0000004e   Code   RO         4558    .text               c_w.l(rt_memclr_w.o)
    0x080003dc   0x080003dc   0x00000006   Code   RO         4560    .text               c_w.l(heapauxi.o)
    0x080003e2   0x080003e2   0x00000002   Code   RO         4610    .text               c_w.l(use_no_semi.o)
    0x080003e4   0x080003e4   0x00000016   Code   RO         4613    .text               c_w.l(_rserrno.o)
    0x080003fa   0x080003fa   0x00000002   PAD
    0x080003fc   0x080003fc   0x00000024   Code   RO         4615    .text               c_w.l(_printf_char_file.o)
    0x08000420   0x08000420   0x00000064   Code   RO         4617    .text               c_w.l(rt_memcpy_w.o)
    0x08000484   0x08000484   0x00000008   Code   RO         4665    .text               c_w.l(rt_errno_addr_intlibspace.o)
    0x0800048c   0x0800048c   0x00000030   Code   RO         4667    .text               c_w.l(_printf_char_common.o)
    0x080004bc   0x080004bc   0x00000008   Code   RO         4669    .text               c_w.l(ferror.o)
    0x080004c4   0x080004c4   0x00000008   Code   RO         4673    .text               c_w.l(libspace.o)
    0x080004cc   0x080004cc   0x0000004a   Code   RO         4676    .text               c_w.l(sys_stackheap_outer.o)
    0x08000516   0x08000516   0x00000028   Code   RO         4678    .text               c_w.l(__printf_nopercent.o)
    0x0800053e   0x0800053e   0x00000012   Code   RO         4680    .text               c_w.l(exit.o)
    0x08000550   0x08000550   0x00000044   Code   RO         3058    i.ADC1_2_IRQHandler  adc.o
    0x08000594   0x08000594   0x0000000c   Code   RO         3059    i.ADC_Config        adc.o
    0x080005a0   0x080005a0   0x00000228   Code   RO         3366    i.Auto_Cali         calibration.o
    0x080007c8   0x080007c8   0x00000194   Code   RO         2909    i.Auto_Cali_End     debug.o
    0x0800095c   0x0800095c   0x000001b8   Code   RO         2705    i.B_LED             led.o
    0x08000b14   0x08000b14   0x00000004   Code   RO          288    i.BusFault_Handler  at32f403a_407_int.o
    0x08000b18   0x08000b18   0x000002ec   Code   RO         3367    i.Car_Cali          calibration.o
    0x08000e04   0x08000e04   0x00000154   Code   RO         3137    i.Check_Encoder     encoder.o
    0x08000f58   0x08000f58   0x00000104   Code   RO         4369    i.Clarke_Park_Ipark  AT32F403A_FOC_LIB.lib(at32f403a_foc_lib.o)
    0x0800105c   0x0800105c   0x0000001c   Code   RO         3060    i.ConventionalADC_Init  adc.o
    0x08001078   0x08001078   0x0000002c   Code   RO         3490    i.DMA1_Channel3_IRQHandler  ws2812.o
    0x080010a4   0x080010a4   0x00000020   Code   RO         2754    i.DMA2_Channel2_IRQHandler  usart.o
    0x080010c4   0x080010c4   0x00000040   Code   RO         2755    i.DMA2_Channel6_7_IRQHandler  usart.o
    0x08001104   0x08001104   0x00000002   Code   RO          289    i.DebugMon_Handler  at32f403a_407_int.o
    0x08001106   0x08001106   0x00000002   PAD
    0x08001108   0x08001108   0x00000080   Code   RO         2756    i.Dma_rx1           usart.o
    0x08001188   0x08001188   0x00000080   Code   RO         2757    i.Dma_rx2           usart.o
    0x08001208   0x08001208   0x00000080   Code   RO         2758    i.Dma_rx3           usart.o
    0x08001288   0x08001288   0x00000080   Code   RO         2759    i.Dma_rx4           usart.o
    0x08001308   0x08001308   0x00000090   Code   RO         2760    i.Dma_tx1           usart.o
    0x08001398   0x08001398   0x00000090   Code   RO         2761    i.Dma_tx3           usart.o
    0x08001428   0x08001428   0x00000090   Code   RO         2762    i.Dma_tx4           usart.o
    0x080014b8   0x080014b8   0x000001b8   Code   RO         2706    i.G_LED             led.o
    0x08001670   0x08001670   0x000000b4   Code   RO         3062    i.Get_InputVolt     adc.o
    0x08001724   0x08001724   0x00000038   Code   RO         3226    i.Get_mpu6500       mpu6500.o
    0x0800175c   0x0800175c   0x00000084   Code   RO         3457    i.Gpio_config       gpio_config.o
    0x080017e0   0x080017e0   0x00000028   Code   RO         3368    i.Gyro_Cali         calibration.o
    0x08001808   0x08001808   0x00000004   Code   RO          290    i.HardFault_Handler  at32f403a_407_int.o
    0x0800180c   0x0800180c   0x0000022c   Code   RO         2910    i.Hardware_Tips     debug.o
    0x08001a38   0x08001a38   0x000000b0   Code   RO         3227    i.IMU_Init          mpu6500.o
    0x08001ae8   0x08001ae8   0x00000030   Code   RO         3228    i.IMU_Read_Reg      mpu6500.o
    0x08001b18   0x08001b18   0x00000030   Code   RO         3229    i.IMU_Write_Reg     mpu6500.o
    0x08001b48   0x08001b48   0x000004e8   Code   RO         3287    i.IMU_handle        ahrs.o
    0x08002030   0x08002030   0x00000048   Code   RO         3326    i.Key_Init          key.o
    0x08002078   0x08002078   0x00000108   Code   RO         3327    i.Key_Scan          key.o
    0x08002180   0x08002180   0x0000004c   Code   RO         2707    i.LED_Init          led.o
    0x080021cc   0x080021cc   0x00000058   Code   RO         3612    i.M1Current_ClosedLoop  control.o
    0x08002224   0x08002224   0x0000004c   Code   RO         3613    i.M1SpeedControl    control.o
    0x08002270   0x08002270   0x00000148   Code   RO         3614    i.M1_Check          control.o
    0x080023b8   0x080023b8   0x00000130   Code   RO         3615    i.M1_Control        control.o
    0x080024e8   0x080024e8   0x000004f8   Code   RO         4370    i.M1_FOC_handle     AT32F403A_FOC_LIB.lib(at32f403a_foc_lib.o)
    0x080029e0   0x080029e0   0x00000058   Code   RO         3616    i.M2Current_ClosedLoop  control.o
    0x08002a38   0x08002a38   0x0000004c   Code   RO         3617    i.M2SpeedControl    control.o
    0x08002a84   0x08002a84   0x00000148   Code   RO         3618    i.M2_Check          control.o
    0x08002bcc   0x08002bcc   0x0000012c   Code   RO         3619    i.M2_Control        control.o
    0x08002cf8   0x08002cf8   0x000004ec   Code   RO         4371    i.M2_FOC_handle     AT32F403A_FOC_LIB.lib(at32f403a_foc_lib.o)
    0x080031e4   0x080031e4   0x0000015c   Code   RO         3138    i.MA732_Init        encoder.o
    0x08003340   0x08003340   0x000000a4   Code   RO         3139    i.MA732_Read_Reg    encoder.o
    0x080033e4   0x080033e4   0x000000a4   Code   RO         3140    i.MA732_Write_Reg   encoder.o
    0x08003488   0x08003488   0x000000a4   Code   RO         3141    i.MT6701_Init       encoder.o
    0x0800352c   0x0800352c   0x00000004   Code   RO          291    i.MemManage_Handler  at32f403a_407_int.o
    0x08003530   0x08003530   0x00000484   Code   RO         3620    i.MotorControl      control.o
    0x080039b4   0x080039b4   0x00000002   Code   RO          292    i.NMI_Handler       at32f403a_407_int.o
    0x080039b6   0x080039b6   0x000000d8   Code   RO         3621    i.PID_Adjust        control.o
    0x08003a8e   0x08003a8e   0x00000002   PAD
    0x08003a90   0x08003a90   0x00000144   Code   RO         4372    i.PID_Adjust_S      AT32F403A_FOC_LIB.lib(at32f403a_foc_lib.o)
    0x08003bd4   0x08003bd4   0x0000011a   Code   RO         3622    i.PID_Adjust_T      control.o
    0x08003cee   0x08003cee   0x00000002   Code   RO          293    i.PendSV_Handler    at32f403a_407_int.o
    0x08003cf0   0x08003cf0   0x00000510   Code   RO         3425    i.Peripherals_Init  app.o
    0x08004200   0x08004200   0x000001b8   Code   RO         2708    i.R_LED             led.o
    0x080043b8   0x080043b8   0x00000cf8   Code   RO         3729    i.RcData            rcdata.o
    0x080050b0   0x080050b0   0x00000048   Code   RO         3537    i.ReadW25Qxx_ID     w25q64.o
    0x080050f8   0x080050f8   0x00000110   Code   RO         3369    i.Read_Cali_Data    calibration.o
    0x08005208   0x08005208   0x000000cc   Code   RO         3142    i.Read_M1_Encoder   encoder.o
    0x080052d4   0x080052d4   0x000000cc   Code   RO         3143    i.Read_M2_Encoder   encoder.o
    0x080053a0   0x080053a0   0x0000004c   Code   RO         3144    i.SPI1_ReadWriteByte  encoder.o
    0x080053ec   0x080053ec   0x0000004c   Code   RO         3145    i.SPI1_ReadWriteHalfword  encoder.o
    0x08005438   0x08005438   0x000000f0   Code   RO         3230    i.SPI3_Init         mpu6500.o
    0x08005528   0x08005528   0x00000050   Code   RO         3231    i.SPI3_ReadWriteByte  mpu6500.o
    0x08005578   0x08005578   0x00000050   Code   RO         3538    i.SPI4_ReadWriteByte  w25q64.o
    0x080055c8   0x080055c8   0x00000002   Code   RO          294    i.SVC_Handler       at32f403a_407_int.o
    0x080055ca   0x080055ca   0x00000002   PAD
    0x080055cc   0x080055cc   0x000000bc   Code   RO         3623    i.SpeedCompute      control.o
    0x08005688   0x08005688   0x00000070   Code   RO         2911    i.Start_Auto_Cali   debug.o
    0x080056f8   0x080056f8   0x00000074   Code   RO         2912    i.Start_Check_Hardware  debug.o
    0x0800576c   0x0800576c   0x00000510   Code   RO         4373    i.Start_Music1      AT32F403A_FOC_LIB.lib(at32f403a_foc_lib.o)
    0x08005c7c   0x08005c7c   0x000004f8   Code   RO         4374    i.Start_Music8      AT32F403A_FOC_LIB.lib(at32f403a_foc_lib.o)
    0x08006174   0x08006174   0x00000002   Code   RO          295    i.SysTick_Handler   at32f403a_407_int.o
    0x08006176   0x08006176   0x00000002   PAD
    0x08006178   0x08006178   0x00000070   Code   RO          363    i.SystemInit        system_at32f403a_407.o
    0x080061e8   0x080061e8   0x000000c4   Code   RO         2981    i.TIM10_Init        timer.o
    0x080062ac   0x080062ac   0x00000148   Code   RO         2983    i.TIM1_Init         timer.o
    0x080063f4   0x080063f4   0x00000064   Code   RO         2984    i.TIM7_Init         timer.o
    0x08006458   0x08006458   0x000001a0   Code   RO         2985    i.TIM8_Init         timer.o
    0x080065f8   0x080065f8   0x000000fc   Code   RO         3146    i.TLE5012B_Init     encoder.o
    0x080066f4   0x080066f4   0x00000010   Code   RO         2986    i.TMR1_TRG_HALL_TMR11_IRQHandler  timer.o
    0x08006704   0x08006704   0x00000024   Code   RO         2987    i.TMR7_GLOBAL_IRQHandler  timer.o
    0x08006728   0x08006728   0x000001b0   Code   RO         3063    i.TriggerADC_Init   adc.o
    0x080068d8   0x080068d8   0x00000040   Code   RO         2763    i.UART1_SendDataDMA  usart.o
    0x08006918   0x08006918   0x00000040   Code   RO         2765    i.UART3_SendDataDMA  usart.o
    0x08006958   0x08006958   0x00000064   Code   RO         2766    i.UART4_IRQHandler  usart.o
    0x080069bc   0x080069bc   0x00000064   Code   RO         2768    i.USART1_IRQHandler  usart.o
    0x08006a20   0x08006a20   0x000000cc   Code   RO         2769    i.USART1_init       usart.o
    0x08006aec   0x08006aec   0x00000064   Code   RO         2770    i.USART2_IRQHandler  usart.o
    0x08006b50   0x08006b50   0x000000ac   Code   RO         2771    i.USART2_init       usart.o
    0x08006bfc   0x08006bfc   0x00000064   Code   RO         2772    i.USART3_IRQHandler  usart.o
    0x08006c60   0x08006c60   0x000000e4   Code   RO         2773    i.USART3_init       usart.o
    0x08006d44   0x08006d44   0x000000e4   Code   RO         2774    i.USART4_init       usart.o
    0x08006e28   0x08006e28   0x00000010   Code   RO         3803    i.USBFS_L_CAN1_RX0_IRQHandler  usb.o
    0x08006e38   0x08006e38   0x00000004   Code   RO          296    i.UsageFault_Handler  at32f403a_407_int.o
    0x08006e3c   0x08006e3c   0x00000128   Code   RO         2913    i.UsartPrint        debug.o
    0x08006f64   0x08006f64   0x00000050   Code   RO         3539    i.W25Qxx_ErasePage  w25q64.o
    0x08006fb4   0x08006fb4   0x000000fc   Code   RO         3540    i.W25Qxx_Init       w25q64.o
    0x080070b0   0x080070b0   0x0000005c   Code   RO         3541    i.W25Qxx_Read       w25q64.o
    0x0800710c   0x0800710c   0x0000002c   Code   RO         3542    i.W25Qxx_ReadStatus  w25q64.o
    0x08007138   0x08007138   0x00000012   Code   RO         3543    i.W25Qxx_WaitBusy   w25q64.o
    0x0800714a   0x0800714a   0x00000002   PAD
    0x0800714c   0x0800714c   0x00000020   Code   RO         3544    i.W25Qxx_WriteEnable  w25q64.o
    0x0800716c   0x0800716c   0x0000006c   Code   RO         3545    i.W25Qxx_WritePage  w25q64.o
    0x080071d8   0x080071d8   0x00000130   Code   RO         3491    i.WS2812_init       ws2812.o
    0x08007308   0x08007308   0x00000068   Code   RO         3370    i.Write_Cali_Data   calibration.o
    0x08007370   0x08007370   0x00000026   Code   RO         4628    i.__ARM_fpclassifyf  m_wm.l(fpclassifyf.o)
    0x08007396   0x08007396   0x00000002   PAD
    0x08007398   0x08007398   0x00000250   Code   RO         4568    i.__hardfp_atan2f   m_wm.l(atan2f.o)
    0x080075e8   0x080075e8   0x00000150   Code   RO         4580    i.__hardfp_cosf     m_wm.l(cosf.o)
    0x08007738   0x08007738   0x00000014   Code   RO         4592    i.__hardfp_fabs     m_wm.l(fabs.o)
    0x0800774c   0x0800774c   0x00000190   Code   RO         4598    i.__hardfp_sinf     m_wm.l(sinf.o)
    0x080078dc   0x080078dc   0x00000006   Code   RO         4631    i.__mathlib_flt_infnan  m_wm.l(funder.o)
    0x080078e2   0x080078e2   0x00000006   Code   RO         4632    i.__mathlib_flt_infnan2  m_wm.l(funder.o)
    0x080078e8   0x080078e8   0x00000010   Code   RO         4633    i.__mathlib_flt_invalid  m_wm.l(funder.o)
    0x080078f8   0x080078f8   0x00000010   Code   RO         4636    i.__mathlib_flt_underflow  m_wm.l(funder.o)
    0x08007908   0x08007908   0x00000154   Code   RO         4644    i.__mathlib_rredf2  m_wm.l(rredf.o)
    0x08007a5c   0x08007a5c   0x00000004   Code   RO         2914    i._sys_exit         debug.o
    0x08007a60   0x08007a60   0x00000030   Code   RO         2609    i.acc_calibration_mode_enable  at32f403a_407_acc.o
    0x08007a90   0x08007a90   0x0000000c   Code   RO         2619    i.acc_write_c1      at32f403a_407_acc.o
    0x08007a9c   0x08007a9c   0x0000000c   Code   RO         2620    i.acc_write_c2      at32f403a_407_acc.o
    0x08007aa8   0x08007aa8   0x0000000c   Code   RO         2621    i.acc_write_c3      at32f403a_407_acc.o
    0x08007ab4   0x08007ab4   0x0000002c   Code   RO         1889    i.adc_base_config   at32f403a_407_adc.o
    0x08007ae0   0x08007ae0   0x0000000e   Code   RO         1890    i.adc_base_default_para_init  at32f403a_407_adc.o
    0x08007aee   0x08007aee   0x0000000c   Code   RO         1891    i.adc_calibration_init  at32f403a_407_adc.o
    0x08007afa   0x08007afa   0x00000012   Code   RO         1892    i.adc_calibration_init_status_get  at32f403a_407_adc.o
    0x08007b0c   0x08007b0c   0x0000000c   Code   RO         1893    i.adc_calibration_start  at32f403a_407_adc.o
    0x08007b18   0x08007b18   0x00000012   Code   RO         1894    i.adc_calibration_status_get  at32f403a_407_adc.o
    0x08007b2a   0x08007b2a   0x00000002   PAD
    0x08007b2c   0x08007b2c   0x00000014   Code   RO         1895    i.adc_combine_mode_select  at32f403a_407_adc.o
    0x08007b40   0x08007b40   0x000000b0   Code   RO         3064    i.adc_config        adc.o
    0x08007bf0   0x08007bf0   0x0000000a   Code   RO         1897    i.adc_dma_mode_enable  at32f403a_407_adc.o
    0x08007bfa   0x08007bfa   0x0000000a   Code   RO         1898    i.adc_enable        at32f403a_407_adc.o
    0x08007c04   0x08007c04   0x00000006   Code   RO         1899    i.adc_flag_clear    at32f403a_407_adc.o
    0x08007c0a   0x08007c0a   0x00000010   Code   RO         1900    i.adc_flag_get      at32f403a_407_adc.o
    0x08007c1a   0x08007c1a   0x00000016   Code   RO         1901    i.adc_interrupt_enable  at32f403a_407_adc.o
    0x08007c30   0x08007c30   0x00000194   Code   RO         1902    i.adc_ordinary_channel_set  at32f403a_407_adc.o
    0x08007dc4   0x08007dc4   0x00000034   Code   RO         1904    i.adc_ordinary_conversion_trigger_set  at32f403a_407_adc.o
    0x08007df8   0x08007df8   0x0000000a   Code   RO         1907    i.adc_ordinary_software_trigger_enable  at32f403a_407_adc.o
    0x08007e02   0x08007e02   0x0000000a   Code   RO         1909    i.adc_preempt_auto_mode_enable  at32f403a_407_adc.o
    0x08007e0c   0x08007e0c   0x0000000c   Code   RO         1910    i.adc_preempt_channel_length_set  at32f403a_407_adc.o
    0x08007e18   0x08007e18   0x00000122   Code   RO         1911    i.adc_preempt_channel_set  at32f403a_407_adc.o
    0x08007f3a   0x08007f3a   0x00000034   Code   RO         1913    i.adc_preempt_conversion_trigger_set  at32f403a_407_adc.o
    0x08007f6e   0x08007f6e   0x00000002   PAD
    0x08007f70   0x08007f70   0x00000038   Code   RO         4179    i.cdc_struct_init   cdc_class.o
    0x08007fa8   0x08007fa8   0x00000024   Code   RO         4180    i.class_clear_handler  cdc_class.o
    0x08007fcc   0x08007fcc   0x00000038   Code   RO         4181    i.class_ept0_rx_handler  cdc_class.o
    0x08008004   0x08008004   0x00000006   Code   RO         4182    i.class_ept0_tx_handler  cdc_class.o
    0x0800800a   0x0800800a   0x0000001e   Code   RO         4183    i.class_event_handler  cdc_class.o
    0x08008028   0x08008028   0x00000016   Code   RO         4184    i.class_in_handler  cdc_class.o
    0x0800803e   0x0800803e   0x0000006c   Code   RO         4185    i.class_init_handler  cdc_class.o
    0x080080aa   0x080080aa   0x0000002a   Code   RO         4186    i.class_out_handler  cdc_class.o
    0x080080d4   0x080080d4   0x000000b6   Code   RO         4187    i.class_setup_handler  cdc_class.o
    0x0800818a   0x0800818a   0x00000006   Code   RO         4188    i.class_sof_handler  cdc_class.o
    0x08008190   0x08008190   0x00000020   Code   RO          533    i.crm_adc_clock_div_set  at32f403a_407_crm.o
    0x080081b0   0x080081b0   0x00000014   Code   RO          534    i.crm_ahb_div_set   at32f403a_407_crm.o
    0x080081c4   0x080081c4   0x00000014   Code   RO          535    i.crm_apb1_div_set  at32f403a_407_crm.o
    0x080081d8   0x080081d8   0x00000014   Code   RO          536    i.crm_apb2_div_set  at32f403a_407_crm.o
    0x080081ec   0x080081ec   0x00000028   Code   RO          537    i.crm_auto_step_mode_enable  at32f403a_407_crm.o
    0x08008214   0x08008214   0x00000060   Code   RO          543    i.crm_clock_source_enable  at32f403a_407_crm.o
    0x08008274   0x08008274   0x00000130   Code   RO          544    i.crm_clocks_freq_get  at32f403a_407_crm.o
    0x080083a4   0x080083a4   0x00000030   Code   RO          546    i.crm_flag_get      at32f403a_407_crm.o
    0x080083d4   0x080083d4   0x00000014   Code   RO          548    i.crm_hext_clock_div_set  at32f403a_407_crm.o
    0x080083e8   0x080083e8   0x0000002e   Code   RO          549    i.crm_hext_stable_wait  at32f403a_407_crm.o
    0x08008416   0x08008416   0x00000002   PAD
    0x08008418   0x08008418   0x00000014   Code   RO          552    i.crm_hick_divider_select  at32f403a_407_crm.o
    0x0800842c   0x0800842c   0x0000001c   Code   RO          553    i.crm_hick_sclk_frequency_select  at32f403a_407_crm.o
    0x08008448   0x08008448   0x00000044   Code   RO          556    i.crm_periph_clock_enable  at32f403a_407_crm.o
    0x0800848c   0x0800848c   0x0000007c   Code   RO          559    i.crm_pll_config    at32f403a_407_crm.o
    0x08008508   0x08008508   0x00000058   Code   RO          560    i.crm_reset         at32f403a_407_crm.o
    0x08008560   0x08008560   0x00000014   Code   RO          563    i.crm_sysclk_switch  at32f403a_407_crm.o
    0x08008574   0x08008574   0x00000010   Code   RO          564    i.crm_sysclk_switch_status_get  at32f403a_407_crm.o
    0x08008584   0x08008584   0x00000020   Code   RO          566    i.crm_usb_clock_source_select  at32f403a_407_crm.o
    0x080085a4   0x080085a4   0x00000030   Code   RO         3765    i.delay_init        delay.o
    0x080085d4   0x080085d4   0x0000003c   Code   RO         3766    i.delay_ms          delay.o
    0x08008610   0x08008610   0x0000000a   Code   RO         1522    i.dma_channel_enable  at32f403a_407_dma.o
    0x0800861a   0x0800861a   0x00000002   PAD
    0x0800861c   0x0800861c   0x0000007c   Code   RO         3065    i.dma_config        adc.o
    0x08008698   0x08008698   0x00000008   Code   RO         1523    i.dma_data_number_get  at32f403a_407_dma.o
    0x080086a0   0x080086a0   0x00000004   Code   RO         1524    i.dma_data_number_set  at32f403a_407_dma.o
    0x080086a4   0x080086a4   0x00000018   Code   RO         1525    i.dma_default_para_init  at32f403a_407_dma.o
    0x080086bc   0x080086bc   0x00000020   Code   RO         1526    i.dma_flag_clear    at32f403a_407_dma.o
    0x080086dc   0x080086dc   0x0000002c   Code   RO         1527    i.dma_flag_get      at32f403a_407_dma.o
    0x08008708   0x08008708   0x00000098   Code   RO         1528    i.dma_flexible_config  at32f403a_407_dma.o
    0x080087a0   0x080087a0   0x0000005c   Code   RO         1529    i.dma_init          at32f403a_407_dma.o
    0x080087fc   0x080087fc   0x00000012   Code   RO         1530    i.dma_interrupt_enable  at32f403a_407_dma.o
    0x0800880e   0x0800880e   0x00000002   PAD
    0x08008810   0x08008810   0x00000070   Code   RO         1531    i.dma_reset         at32f403a_407_dma.o
    0x08008880   0x08008880   0x0000000a   Code   RO         3624    i.fabsf             control.o
    0x0800888a   0x0800888a   0x00000002   PAD
    0x0800888c   0x0800888c   0x00000020   Code   RO         2915    i.fputc             debug.o
    0x080088ac   0x080088ac   0x00000038   Code   RO         4275    i.get_device_config_string  cdc_desc.o
    0x080088e4   0x080088e4   0x00000008   Code   RO         4276    i.get_device_configuration  cdc_desc.o
    0x080088ec   0x080088ec   0x00000008   Code   RO         4277    i.get_device_descriptor  cdc_desc.o
    0x080088f4   0x080088f4   0x0000003c   Code   RO         4278    i.get_device_interface_string  cdc_desc.o
    0x08008930   0x08008930   0x00000008   Code   RO         4279    i.get_device_lang_id  cdc_desc.o
    0x08008938   0x08008938   0x00000028   Code   RO         4280    i.get_device_manufacturer_string  cdc_desc.o
    0x08008960   0x08008960   0x00000004   Code   RO         4281    i.get_device_other_speed  cdc_desc.o
    0x08008964   0x08008964   0x00000038   Code   RO         4282    i.get_device_product_string  cdc_desc.o
    0x0800899c   0x0800899c   0x00000004   Code   RO         4283    i.get_device_qualifier  cdc_desc.o
    0x080089a0   0x080089a0   0x00000010   Code   RO         4284    i.get_device_serial_string  cdc_desc.o
    0x080089b0   0x080089b0   0x00000028   Code   RO         4285    i.get_serial_num    cdc_desc.o
    0x080089d8   0x080089d8   0x00000004   Code   RO          407    i.gpio_bits_reset   at32f403a_407_gpio.o
    0x080089dc   0x080089dc   0x00000004   Code   RO          408    i.gpio_bits_set     at32f403a_407_gpio.o
    0x080089e0   0x080089e0   0x0000002c   Code   RO         3066    i.gpio_config       adc.o
    0x08008a0c   0x08008a0c   0x00000016   Code   RO          410    i.gpio_default_para_init  at32f403a_407_gpio.o
    0x08008a22   0x08008a22   0x000000a8   Code   RO          414    i.gpio_init         at32f403a_407_gpio.o
    0x08008aca   0x08008aca   0x00000012   Code   RO          415    i.gpio_input_data_bit_read  at32f403a_407_gpio.o
    0x08008adc   0x08008adc   0x0000004c   Code   RO          420    i.gpio_pin_remap_config  at32f403a_407_gpio.o
    0x08008b28   0x08008b28   0x00000016   Code   RO            4    i.main              main.o
    0x08008b3e   0x08008b3e   0x00000002   PAD
    0x08008b40   0x08008b40   0x000000c8   Code   RO          763    i.nvic_irq_enable   at32f403a_407_misc.o
    0x08008c08   0x08008c08   0x00000028   Code   RO          765    i.nvic_priority_group_config  at32f403a_407_misc.o
    0x08008c30   0x08008c30   0x0000048c   Code   RO         3625    i.parameters_Init   control.o
    0x080090bc   0x080090bc   0x000000e8   Code   RO         3492    i.send_Data         ws2812.o
    0x080091a4   0x080091a4   0x00000016   Code   RO         1182    i.spi_default_para_init  at32f403a_407_spi.o
    0x080091ba   0x080091ba   0x0000000a   Code   RO         1183    i.spi_enable        at32f403a_407_spi.o
    0x080091c4   0x080091c4   0x00000010   Code   RO         1192    i.spi_i2s_flag_get  at32f403a_407_spi.o
    0x080091d4   0x080091d4   0x00000124   Code   RO         1195    i.spi_init          at32f403a_407_spi.o
    0x080092f8   0x080092f8   0x000004bc   Code   RO         4375    i.svpwm             AT32F403A_FOC_LIB.lib(at32f403a_foc_lib.o)
    0x080097b4   0x080097b4   0x00000070   Code   RO          261    i.system_clock_config  at32f403a_407_clock.o
    0x08009824   0x08009824   0x000000fc   Code   RO          364    i.system_core_clock_update  system_at32f403a_407.o
    0x08009920   0x08009920   0x00000028   Code   RO          768    i.systick_clock_source_config  at32f403a_407_misc.o
    0x08009948   0x08009948   0x00000010   Code   RO          827    i.tmr_base_init     at32f403a_407_tmr.o
    0x08009958   0x08009958   0x00000048   Code   RO          828    i.tmr_brkdt_config  at32f403a_407_tmr.o
    0x080099a0   0x080099a0   0x00000012   Code   RO          829    i.tmr_brkdt_default_para_init  at32f403a_407_tmr.o
    0x080099b2   0x080099b2   0x00000028   Code   RO          835    i.tmr_channel_value_set  at32f403a_407_tmr.o
    0x080099da   0x080099da   0x0000000a   Code   RO          836    i.tmr_clock_source_div_set  at32f403a_407_tmr.o
    0x080099e4   0x080099e4   0x0000000a   Code   RO          837    i.tmr_cnt_dir_set   at32f403a_407_tmr.o
    0x080099ee   0x080099ee   0x0000000a   Code   RO          838    i.tmr_counter_enable  at32f403a_407_tmr.o
    0x080099f8   0x080099f8   0x00000016   Code   RO          844    i.tmr_dma_request_enable  at32f403a_407_tmr.o
    0x08009a0e   0x08009a0e   0x00000006   Code   RO          850    i.tmr_flag_clear    at32f403a_407_tmr.o
    0x08009a14   0x08009a14   0x00000012   Code   RO          851    i.tmr_flag_get      at32f403a_407_tmr.o
    0x08009a26   0x08009a26   0x00000016   Code   RO          859    i.tmr_interrupt_enable  at32f403a_407_tmr.o
    0x08009a3c   0x08009a3c   0x00000042   Code   RO          861    i.tmr_output_channel_buffer_enable  at32f403a_407_tmr.o
    0x08009a7e   0x08009a7e   0x000001a0   Code   RO          862    i.tmr_output_channel_config  at32f403a_407_tmr.o
    0x08009c1e   0x08009c1e   0x00000012   Code   RO          867    i.tmr_output_default_para_init  at32f403a_407_tmr.o
    0x08009c30   0x08009c30   0x0000000a   Code   RO          868    i.tmr_output_enable  at32f403a_407_tmr.o
    0x08009c3a   0x08009c3a   0x0000000a   Code   RO          871    i.tmr_period_buffer_enable  at32f403a_407_tmr.o
    0x08009c44   0x08009c44   0x0000000a   Code   RO         1336    i.usart_dma_receiver_enable  at32f403a_407_usart.o
    0x08009c4e   0x08009c4e   0x0000000a   Code   RO         1337    i.usart_dma_transmitter_enable  at32f403a_407_usart.o
    0x08009c58   0x08009c58   0x0000000a   Code   RO         1338    i.usart_enable      at32f403a_407_usart.o
    0x08009c62   0x08009c62   0x00000012   Code   RO         1339    i.usart_flag_clear  at32f403a_407_usart.o
    0x08009c74   0x08009c74   0x00000010   Code   RO         1340    i.usart_flag_get    at32f403a_407_usart.o
    0x08009c84   0x08009c84   0x00000088   Code   RO         1342    i.usart_init        at32f403a_407_usart.o
    0x08009d0c   0x08009d0c   0x00000036   Code   RO         1343    i.usart_interrupt_enable  at32f403a_407_usart.o
    0x08009d42   0x08009d42   0x0000000a   Code   RO         1349    i.usart_receiver_enable  at32f403a_407_usart.o
    0x08009d4c   0x08009d4c   0x0000000a   Code   RO         1356    i.usart_transmitter_enable  at32f403a_407_usart.o
    0x08009d56   0x08009d56   0x00000002   PAD
    0x08009d58   0x08009d58   0x00000028   Code   RO         3804    i.usb_ReadWrite     usb.o
    0x08009d80   0x08009d80   0x0000000c   Code   RO         2471    i.usb_buffer_free   at32f403a_407_usb.o
    0x08009d8c   0x08009d8c   0x00000038   Code   RO         3805    i.usb_clock48m_select  usb.o
    0x08009dc4   0x08009dc4   0x00000012   Code   RO         2473    i.usb_connect       at32f403a_407_usb.o
    0x08009dd6   0x08009dd6   0x00000024   Code   RO         2474    i.usb_dev_init      at32f403a_407_usb.o
    0x08009dfa   0x08009dfa   0x00000016   Code   RO         2476    i.usb_enter_suspend  at32f403a_407_usb.o
    0x08009e10   0x08009e10   0x0000023c   Code   RO         2477    i.usb_ept_close     at32f403a_407_usb.o
    0x0800a04c   0x0800a04c   0x00000518   Code   RO         2478    i.usb_ept_open      at32f403a_407_usb.o
    0x0800a564   0x0800a564   0x00000012   Code   RO         2480    i.usb_exit_suspend  at32f403a_407_usb.o
    0x0800a576   0x0800a576   0x00000006   Code   RO         2481    i.usb_flag_clear    at32f403a_407_usb.o
    0x0800a57c   0x0800a57c   0x00000044   Code   RO         3806    i.usb_init          usb.o
    0x0800a5c0   0x0800a5c0   0x00000014   Code   RO         2483    i.usb_interrupt_enable  at32f403a_407_usb.o
    0x0800a5d4   0x0800a5d4   0x0000002c   Code   RO         2484    i.usb_read_packet   at32f403a_407_usb.o
    0x0800a600   0x0800a600   0x00000014   Code   RO         2487    i.usb_set_address   at32f403a_407_usb.o
    0x0800a614   0x0800a614   0x00000074   Code   RO         4189    i.usb_vcp_cmd_process  cdc_class.o
    0x0800a688   0x0800a688   0x00000050   Code   RO         4190    i.usb_vcp_get_rxdata  cdc_class.o
    0x0800a6d8   0x0800a6d8   0x0000003a   Code   RO         4191    i.usb_vcp_send_data  cdc_class.o
    0x0800a712   0x0800a712   0x00000002   PAD
    0x0800a714   0x0800a714   0x0000002c   Code   RO         2489    i.usb_write_packet  at32f403a_407_usb.o
    0x0800a740   0x0800a740   0x00000054   Code   RO         4097    i.usbd_clear_feature  usbd_sdr.o
    0x0800a794   0x0800a794   0x00000090   Code   RO         3855    i.usbd_clear_stall  usbd_core.o
    0x0800a824   0x0800a824   0x0000000c   Code   RO         3856    i.usbd_connect      usbd_core.o
    0x0800a830   0x0800a830   0x000000ba   Code   RO         3858    i.usbd_core_in_handler  usbd_core.o
    0x0800a8ea   0x0800a8ea   0x0000002c   Code   RO         3859    i.usbd_core_init    usbd_core.o
    0x0800a916   0x0800a916   0x00000078   Code   RO         3860    i.usbd_core_out_handler  usbd_core.o
    0x0800a98e   0x0800a98e   0x00000054   Code   RO         3861    i.usbd_core_setup_handler  usbd_core.o
    0x0800a9e2   0x0800a9e2   0x00000024   Code   RO         3862    i.usbd_ctrl_recv    usbd_core.o
    0x0800aa06   0x0800aa06   0x00000018   Code   RO         3863    i.usbd_ctrl_recv_status  usbd_core.o
    0x0800aa1e   0x0800aa1e   0x00000028   Code   RO         3864    i.usbd_ctrl_send    usbd_core.o
    0x0800aa46   0x0800aa46   0x00000018   Code   RO         3865    i.usbd_ctrl_send_status  usbd_core.o
    0x0800aa5e   0x0800aa5e   0x00000016   Code   RO         3866    i.usbd_ctrl_unsupport  usbd_core.o
    0x0800aa74   0x0800aa74   0x00000080   Code   RO         4098    i.usbd_device_request  usbd_sdr.o
    0x0800aaf4   0x0800aaf4   0x0000017e   Code   RO         4099    i.usbd_endpoint_request  usbd_sdr.o
    0x0800ac72   0x0800ac72   0x0000000c   Code   RO         3868    i.usbd_enter_suspend  usbd_core.o
    0x0800ac7e   0x0800ac7e   0x00000044   Code   RO         3870    i.usbd_ept_buf_custom_define  usbd_core.o
    0x0800acc2   0x0800acc2   0x00000030   Code   RO         3871    i.usbd_ept_close    usbd_core.o
    0x0800acf2   0x0800acf2   0x000000c4   Code   RO         3873    i.usbd_ept_defaut_init  usbd_core.o
    0x0800adb6   0x0800adb6   0x00000026   Code   RO         4033    i.usbd_ept_loop_handler  usbd_int.o
    0x0800addc   0x0800addc   0x00000052   Code   RO         3874    i.usbd_ept_open     usbd_core.o
    0x0800ae2e   0x0800ae2e   0x00000002   PAD
    0x0800ae30   0x0800ae30   0x00000074   Code   RO         3875    i.usbd_ept_recv     usbd_core.o
    0x0800aea4   0x0800aea4   0x00000120   Code   RO         3876    i.usbd_ept_send     usbd_core.o
    0x0800afc4   0x0800afc4   0x000001dc   Code   RO         4034    i.usbd_eptn_handler  usbd_int.o
    0x0800b1a0   0x0800b1a0   0x00000056   Code   RO         4100    i.usbd_get_configuration  usbd_sdr.o
    0x0800b1f6   0x0800b1f6   0x000000f2   Code   RO         4101    i.usbd_get_descriptor  usbd_sdr.o
    0x0800b2e8   0x0800b2e8   0x00000014   Code   RO         3877    i.usbd_get_recv_len  usbd_core.o
    0x0800b2fc   0x0800b2fc   0x00000044   Code   RO         4102    i.usbd_get_status   usbd_sdr.o
    0x0800b340   0x0800b340   0x0000003e   Code   RO         4286    i.usbd_int_to_unicode  cdc_desc.o
    0x0800b37e   0x0800b37e   0x0000004a   Code   RO         4103    i.usbd_interface_request  usbd_sdr.o
    0x0800b3c8   0x0800b3c8   0x0000009c   Code   RO         4035    i.usbd_irq_handler  usbd_int.o
    0x0800b464   0x0800b464   0x0000005a   Code   RO         4036    i.usbd_reset_handler  usbd_int.o
    0x0800b4be   0x0800b4be   0x00000052   Code   RO         4104    i.usbd_set_address  usbd_sdr.o
    0x0800b510   0x0800b510   0x000000c8   Code   RO         4105    i.usbd_set_configuration  usbd_sdr.o
    0x0800b5d8   0x0800b5d8   0x0000002a   Code   RO         4106    i.usbd_set_feature  usbd_sdr.o
    0x0800b602   0x0800b602   0x00000002   PAD
    0x0800b604   0x0800b604   0x00000088   Code   RO         3880    i.usbd_set_stall    usbd_core.o
    0x0800b68c   0x0800b68c   0x00000028   Code   RO         4107    i.usbd_setup_request_parse  usbd_sdr.o
    0x0800b6b4   0x0800b6b4   0x00000014   Code   RO         4037    i.usbd_sof_handler  usbd_int.o
    0x0800b6c8   0x0800b6c8   0x0000002a   Code   RO         4038    i.usbd_suspend_handler  usbd_int.o
    0x0800b6f2   0x0800b6f2   0x0000003c   Code   RO         4287    i.usbd_unicode_convert  cdc_desc.o
    0x0800b72e   0x0800b72e   0x00000024   Code   RO         4039    i.usbd_wakeup_handler  usbd_int.o
    0x0800b752   0x0800b752   0x00000018   Code   RO         4619    x$fpl$dcmpinf       fz_wm.l(dcmpi.o)
    0x0800b76a   0x0800b76a   0x00000002   PAD
    0x0800b76c   0x0800b76c   0x00000078   Code   RO         4564    x$fpl$dleqf         fz_wm.l(dleqf.o)
    0x0800b7e4   0x0800b7e4   0x0000009c   Code   RO         4621    x$fpl$dnaninf       fz_wm.l(dnaninf.o)
    0x0800b880   0x0800b880   0x0000000c   Code   RO         4623    x$fpl$dretinf       fz_wm.l(dretinf.o)
    0x0800b88c   0x0800b88c   0x00000056   Code   RO         4566    x$fpl$f2d           fz_wm.l(f2d.o)
    0x0800b8e2   0x0800b8e2   0x0000008c   Code   RO         4625    x$fpl$fnaninf       fz_wm.l(fnaninf.o)
    0x0800b96e   0x0800b96e   0x0000000a   Code   RO         4744    x$fpl$fpinit        fz_wm.l(fpinit.o)
    0x0800b978   0x0800b978   0x00000000   Code   RO         4627    x$fpl$usenofp       fz_wm.l(usenofp.o)
    0x0800b978   0x0800b978   0x00000010   Data   RO          365    .constdata          system_at32f403a_407.o
    0x0800b988   0x0800b988   0x00000028   Data   RO          568    .constdata          at32f403a_407_crm.o
    0x0800b9b0   0x0800b9b0   0x00000020   Data   RO         4645    .constdata          m_wm.l(rredf.o)
    0x0800b9d0   0x0800b9d0   0x00000500   Data   RO         2917    .conststring        debug.o
    0x0800bed0   0x0800bed0   0x00000020   Data   RO         4808    Region$$Table       anon$$obj.o


    Execution Region RW_IRAM1 (Exec base: 0x20000000, Load base: 0x0800bef0, Size: 0x000024a0, Max: 0x00038000, ABSOLUTE, COMPRESSED[0x000000fc])

    Exec Addr    Load Addr    Size         Type   Attr      Idx    E Section Name        Object

    0x20000000   COMPRESSED   0x00000004   Data   RW          366    .data               system_at32f403a_407.o
    0x20000004   COMPRESSED   0x00000006   Data   RW         2490    .data               at32f403a_407_usb.o
    0x2000000a   COMPRESSED   0x00000006   Data   RW         2709    .data               led.o
    0x20000010   COMPRESSED   0x00000008   Data   RW         2776    .data               usart.o
    0x20000018   COMPRESSED   0x0000000c   Data   RW         2918    .data               debug.o
    0x20000024   COMPRESSED   0x00000001   Data   RW         2990    .data               timer.o
    0x20000025   COMPRESSED   0x00000001   PAD
    0x20000026   COMPRESSED   0x00000006   Data   RW         3067    .data               adc.o
    0x2000002c   COMPRESSED   0x0000001a   Data   RW         3148    .data               encoder.o
    0x20000046   COMPRESSED   0x00000001   Data   RW         3233    .data               mpu6500.o
    0x20000047   COMPRESSED   0x00000001   Data   RW         3289    .data               ahrs.o
    0x20000048   COMPRESSED   0x00000008   Data   RW         3328    .data               key.o
    0x20000050   COMPRESSED   0x00000007   Data   RW         3372    .data               calibration.o
    0x20000057   COMPRESSED   0x00000001   PAD
    0x20000058   COMPRESSED   0x00000017   Data   RW         3426    .data               app.o
    0x2000006f   COMPRESSED   0x00000001   Data   RW         3494    .data               ws2812.o
    0x20000070   COMPRESSED   0x00000026   Data   RW         3627    .data               control.o
    0x20000096   COMPRESSED   0x0000000b   Data   RW         3731    .data               rcdata.o
    0x200000a1   COMPRESSED   0x00000001   PAD
    0x200000a2   COMPRESSED   0x00000004   Data   RW         3768    .data               delay.o
    0x200000a6   COMPRESSED   0x00000001   Data   RW         4108    .data               usbd_sdr.o
    0x200000a7   COMPRESSED   0x00000001   PAD
    0x200000a8   COMPRESSED   0x00000030   Data   RW         4193    .data               cdc_class.o
    0x200000d8   COMPRESSED   0x000000c8   Data   RW         4289    .data               cdc_desc.o
    0x200001a0   COMPRESSED   0x0000005c   Data   RW         4377    .data               AT32F403A_FOC_LIB.lib(at32f403a_foc_lib.o)
    0x200001fc        -       0x00000980   Zero   RW         2775    .bss                usart.o
    0x20000b7c        -       0x00000488   Zero   RW         2916    .bss                debug.o
    0x20001004        -       0x00000014   Zero   RW         2989    .bss                timer.o
    0x20001018        -       0x000000ae   Zero   RW         3288    .bss                ahrs.o
    0x200010c6        -       0x0000012e   Zero   RW         3371    .bss                calibration.o
    0x200011f4        -       0x000002dc   Zero   RW         3493    .bss                ws2812.o
    0x200014d0        -       0x00000272   Zero   RW         3626    .bss                control.o
    0x20001742   COMPRESSED   0x00000002   PAD
    0x20001744        -       0x00000054   Zero   RW         3730    .bss                rcdata.o
    0x20001798        -       0x0000042c   Zero   RW         3807    .bss                usb.o
    0x20001bc4        -       0x0000005c   Zero   RW         4192    .bss                cdc_class.o
    0x20001c20        -       0x00000100   Zero   RW         4288    .bss                cdc_desc.o
    0x20001d20        -       0x00000120   Zero   RW         4376    .bss                AT32F403A_FOC_LIB.lib(at32f403a_foc_lib.o)
    0x20001e40        -       0x00000060   Zero   RW         4674    .bss                c_w.l(libspace.o)
    0x20001ea0        -       0x00000200   Zero   RW          398    HEAP                startup_at32f403a_407.o
    0x200020a0        -       0x00000400   Zero   RW          397    STACK               startup_at32f403a_407.o


==============================================================================

Image component sizes


      Code (inc. data)   RO Data    RW Data    ZI Data      Debug   Object Name

      1064         94          0          6          0       4899   adc.o
      1256         60          0          1        174       6268   ahrs.o
      1296        120          0         23          0       2152   app.o
        84         22          0          0          0       2283   at32f403a_407_acc.o
      1032         60          0          0          0      12816   at32f403a_407_adc.o
       112          0          0          0          0        550   at32f403a_407_clock.o
      1042        136         40          0          0      11666   at32f403a_407_crm.o
       496         28          0          0          0       6709   at32f403a_407_dma.o
       292          6          0          0          0       4670   at32f403a_407_gpio.o
        26          0          0          0          0       3982   at32f403a_407_int.o
       280         18          0          0          0      32588   at32f403a_407_misc.o
       340          0          0          0          0       3023   at32f403a_407_spi.o
       764          0          0          0          0      10844   at32f403a_407_tmr.o
       274         16          0          0          0       6371   at32f403a_407_usart.o
      2116         34          0          6          0      17491   at32f403a_407_usb.o
      1716        180          0          7        302       4778   calibration.o
       798          6          0         48         92       9919   cdc_class.o
       422        146          0        200        256       7659   cdc_desc.o
      4604        444          0         38        626      13361   control.o
      1520        550       1280         12       1160       6566   debug.o
       108         12          0          4          0       1180   delay.o
      1992        152          0         26          0       7937   encoder.o
       132         14          0          0          0        570   gpio_config.o
       336         44          0          8          0       1397   key.o
      1396         40          0          6          0       3059   led.o
        22          0          0          0          0      85246   main.o
       648         52          0          1          0       4380   mpu6500.o
      3320        154          0         11         84       2959   rcdata.o
        64         26        388          0       1536        876   startup_at32f403a_407.o
       364         42         16          4          0       2156   system_at32f403a_407.o
      1092         92          0          1         20       3889   timer.o
      2400        334          0          8       2432      12583   usart.o
       180         46          0          0       1068       2650   usb.o
      1702         24          0          0          0      14183   usbd_core.o
       858         14          0          0          0       5068   usbd_int.o
      1428         30          0          1          0       8130   usbd_sdr.o
       778         52          0          0          0       5969   w25q64.o
       580         42          0          1        732       2762   ws2812.o

    ----------------------------------------------------------------------
     36966       3090       1756        416       8484     333589   Object Totals
         0          0         32          0          0          0   (incl. Generated)
        32          0          0          4          2          0   (incl. Padding)

    ----------------------------------------------------------------------

      Code (inc. data)   RO Data    RW Data    ZI Data      Debug   Library Member Name

      6896        428          0         92        288      17444   at32f403a_foc_lib.o
        90          0          0          0          0          0   __dczerorl2.o
         8          0          0          0          0         68   __main.o
        40          0          0          0          0         84   __printf_nopercent.o
         0          0          0          0          0          0   __rtentry.o
        12          0          0          0          0          0   __rtentry2.o
         6          0          0          0          0          0   __rtentry4.o
        52          8          0          0          0          0   __scatter.o
        28          0          0          0          0          0   __scatter_zi.o
        48          6          0          0          0         96   _printf_char_common.o
        36          4          0          0          0         80   _printf_char_file.o
        22          0          0          0          0        100   _rserrno.o
        18          0          0          0          0         80   exit.o
         8          0          0          0          0         68   ferror.o
         6          0          0          0          0        152   heapauxi.o
         2          0          0          0          0          0   libinit.o
         6          0          0          0          0          0   libinit2.o
         2          0          0          0          0          0   libshutdown.o
         2          0          0          0          0          0   libshutdown2.o
         8          4          0          0         96         68   libspace.o
        24          4          0          0          0         84   noretval__2printf.o
         8          4          0          0          0         68   rt_errno_addr_intlibspace.o
        68          0          0          0          0         68   rt_memclr.o
        78          0          0          0          0         80   rt_memclr_w.o
       138          0          0          0          0         68   rt_memcpy_v6.o
       100          0          0          0          0         80   rt_memcpy_w.o
         2          0          0          0          0          0   rtexit.o
        10          0          0          0          0          0   rtexit2.o
        74          0          0          0          0         80   sys_stackheap_outer.o
         2          0          0          0          0         68   use_no_semi.o
         2          0          0          0          0         68   use_no_semi_2.o
        24          0          0          0          0        116   dcmpi.o
       120          4          0          0          0        140   dleqf.o
       156          4          0          0          0        140   dnaninf.o
        12          0          0          0          0        116   dretinf.o
        86          4          0          0          0        132   f2d.o
       140          4          0          0          0        132   fnaninf.o
        10          0          0          0          0        116   fpinit.o
         0          0          0          0          0          0   usenofp.o
       592         90          0          0          0        184   atan2f.o
       336         56          0          0          0        136   cosf.o
        20          0          0          0          0        124   fabs.o
        38          0          0          0          0        116   fpclassifyf.o
        44         12          0          0          0        464   funder.o
       340         24         32          0          0        160   rredf.o
       400         56          0          0          0        212   sinf.o

    ----------------------------------------------------------------------
     10126        712         32         92        384      21192   Library Totals
        12          0          0          0          0          0   (incl. Padding)

    ----------------------------------------------------------------------

      Code (inc. data)   RO Data    RW Data    ZI Data      Debug   Library Name

      6896        428          0         92        288      17444   AT32F403A_FOC_LIB.lib
       900         30          0          0         96       1460   c_w.l
       548         16          0          0          0        892   fz_wm.l
      1770        238         32          0          0       1396   m_wm.l

    ----------------------------------------------------------------------
     10126        712         32         92        384      21192   Library Totals

    ----------------------------------------------------------------------

==============================================================================


      Code (inc. data)   RO Data    RW Data    ZI Data      Debug   

     47092       3802       1788        508       8868     324953   Grand Totals
     47092       3802       1788        252       8868     324953   ELF Image Totals (compressed)
     47092       3802       1788        252          0          0   ROM Totals

==============================================================================

    Total RO  Size (Code + RO Data)                48880 (  47.73kB)
    Total RW  Size (RW Data + ZI Data)              9376 (   9.16kB)
    Total ROM Size (Code + RO Data + RW Data)      49132 (  47.98kB)

==============================================================================

